{
	"dias-chain.sol": {
		"DiasChain": {
			"abi": [
				{
					"inputs": [
						{
							"internalType": "address",
							"name": "developmentTeamWallet",
							"type": "address"
						},
						{
							"internalType": "address",
							"name": "founder",
							"type": "address"
						},
						{
							"internalType": "uint256",
							"name": "lockDurationMonths",
							"type": "uint256"
						}
					],
					"stateMutability": "nonpayable",
					"type": "constructor"
				},
				{
					"anonymous": false,
					"inputs": [
						{
							"indexed": true,
							"internalType": "address",
							"name": "owner",
							"type": "address"
						},
						{
							"indexed": true,
							"internalType": "address",
							"name": "spender",
							"type": "address"
						},
						{
							"indexed": false,
							"internalType": "uint256",
							"name": "value",
							"type": "uint256"
						}
					],
					"name": "Approval",
					"type": "event"
				},
				{
					"anonymous": false,
					"inputs": [
						{
							"indexed": true,
							"internalType": "address",
							"name": "from",
							"type": "address"
						},
						{
							"indexed": true,
							"internalType": "address",
							"name": "to",
							"type": "address"
						},
						{
							"indexed": false,
							"internalType": "uint256",
							"name": "value",
							"type": "uint256"
						}
					],
					"name": "Transfer",
					"type": "event"
				},
				{
					"inputs": [
						{
							"internalType": "address",
							"name": "owner",
							"type": "address"
						},
						{
							"internalType": "address",
							"name": "spender",
							"type": "address"
						}
					],
					"name": "allowance",
					"outputs": [
						{
							"internalType": "uint256",
							"name": "",
							"type": "uint256"
						}
					],
					"stateMutability": "view",
					"type": "function"
				},
				{
					"inputs": [
						{
							"internalType": "address",
							"name": "spender",
							"type": "address"
						},
						{
							"internalType": "uint256",
							"name": "amount",
							"type": "uint256"
						}
					],
					"name": "approve",
					"outputs": [
						{
							"internalType": "bool",
							"name": "",
							"type": "bool"
						}
					],
					"stateMutability": "nonpayable",
					"type": "function"
				},
				{
					"inputs": [
						{
							"internalType": "address",
							"name": "account",
							"type": "address"
						}
					],
					"name": "balanceOf",
					"outputs": [
						{
							"internalType": "uint256",
							"name": "",
							"type": "uint256"
						}
					],
					"stateMutability": "view",
					"type": "function"
				},
				{
					"inputs": [],
					"name": "decimals",
					"outputs": [
						{
							"internalType": "uint8",
							"name": "",
							"type": "uint8"
						}
					],
					"stateMutability": "view",
					"type": "function"
				},
				{
					"inputs": [
						{
							"internalType": "address",
							"name": "account",
							"type": "address"
						}
					],
					"name": "isAccountLocked",
					"outputs": [
						{
							"internalType": "bool",
							"name": "",
							"type": "bool"
						}
					],
					"stateMutability": "view",
					"type": "function"
				},
				{
					"inputs": [
						{
							"internalType": "address",
							"name": "account",
							"type": "address"
						}
					],
					"name": "lockAccount",
					"outputs": [],
					"stateMutability": "nonpayable",
					"type": "function"
				},
				{
					"inputs": [
						{
							"internalType": "address",
							"name": "account",
							"type": "address"
						},
						{
							"internalType": "uint256",
							"name": "amount",
							"type": "uint256"
						}
					],
					"name": "lockTokens",
					"outputs": [],
					"stateMutability": "nonpayable",
					"type": "function"
				},
				{
					"inputs": [],
					"name": "name",
					"outputs": [
						{
							"internalType": "string",
							"name": "",
							"type": "string"
						}
					],
					"stateMutability": "view",
					"type": "function"
				},
				{
					"inputs": [],
					"name": "releaseLockedTokens",
					"outputs": [],
					"stateMutability": "nonpayable",
					"type": "function"
				},
				{
					"inputs": [],
					"name": "symbol",
					"outputs": [
						{
							"internalType": "string",
							"name": "",
							"type": "string"
						}
					],
					"stateMutability": "view",
					"type": "function"
				},
				{
					"inputs": [],
					"name": "totalSupply",
					"outputs": [
						{
							"internalType": "uint256",
							"name": "",
							"type": "uint256"
						}
					],
					"stateMutability": "view",
					"type": "function"
				},
				{
					"inputs": [
						{
							"internalType": "address",
							"name": "recipient",
							"type": "address"
						},
						{
							"internalType": "uint256",
							"name": "amount",
							"type": "uint256"
						}
					],
					"name": "transfer",
					"outputs": [
						{
							"internalType": "bool",
							"name": "",
							"type": "bool"
						}
					],
					"stateMutability": "nonpayable",
					"type": "function"
				},
				{
					"inputs": [
						{
							"internalType": "address",
							"name": "sender",
							"type": "address"
						},
						{
							"internalType": "address",
							"name": "recipient",
							"type": "address"
						},
						{
							"internalType": "uint256",
							"name": "amount",
							"type": "uint256"
						}
					],
					"name": "transferFrom",
					"outputs": [
						{
							"internalType": "bool",
							"name": "",
							"type": "bool"
						}
					],
					"stateMutability": "nonpayable",
					"type": "function"
				},
				{
					"inputs": [
						{
							"internalType": "address",
							"name": "recipient",
							"type": "address"
						},
						{
							"internalType": "uint256",
							"name": "amount",
							"type": "uint256"
						}
					],
					"name": "transferFromDevelopmentTeam",
					"outputs": [],
					"stateMutability": "nonpayable",
					"type": "function"
				},
				{
					"inputs": [
						{
							"internalType": "address",
							"name": "account",
							"type": "address"
						}
					],
					"name": "unlockAccount",
					"outputs": [],
					"stateMutability": "nonpayable",
					"type": "function"
				}
			],
			"devdoc": {
				"kind": "dev",
				"methods": {},
				"version": 1
			},
			"evm": {
				"assembly": "    /* \"dias-chain.sol\":371:6497  contract DiasChain {... */\n  mstore(0x40, 0x80)\n    /* \"dias-chain.sol\":1563:2487  constructor(address developmentTeamWallet, address founder, uint256 lockDurationMonths) {... */\n  callvalue\n  dup1\n  iszero\n  tag_1\n  jumpi\n  0x00\n  dup1\n  revert\ntag_1:\n  pop\n  mload(0x40)\n  sub(codesize, bytecodeSize)\n  dup1\n  bytecodeSize\n  dup4\n  codecopy\n  dup2\n  dup2\n  add\n  0x40\n  mstore\n  dup2\n  add\n  swap1\n  tag_2\n  swap2\n  swap1\n  tag_3\n  jump\t// in\ntag_2:\n    /* \"dias-chain.sol\":1702:1703  0 */\n  0x00\n    /* \"dias-chain.sol\":1669:1704  developmentTeamWallet != address(0) */\n  0xffffffffffffffffffffffffffffffffffffffff\n  and\n    /* \"dias-chain.sol\":1669:1690  developmentTeamWallet */\n  dup4\n    /* \"dias-chain.sol\":1669:1704  developmentTeamWallet != address(0) */\n  0xffffffffffffffffffffffffffffffffffffffff\n  and\n  sub\n    /* \"dias-chain.sol\":1661:1748  require(developmentTeamWallet != address(0), \"Invalid development team wallet address\") */\n  tag_6\n  jumpi\n  mload(0x40)\n  0x08c379a000000000000000000000000000000000000000000000000000000000\n  dup2\n  mstore\n  0x04\n  add\n  tag_7\n  swap1\n  tag_8\n  jump\t// in\ntag_7:\n  mload(0x40)\n  dup1\n  swap2\n  sub\n  swap1\n  revert\ntag_6:\n    /* \"dias-chain.sol\":1785:1786  0 */\n  0x00\n    /* \"dias-chain.sol\":1766:1787  founder != address(0) */\n  0xffffffffffffffffffffffffffffffffffffffff\n  and\n    /* \"dias-chain.sol\":1766:1773  founder */\n  dup3\n    /* \"dias-chain.sol\":1766:1787  founder != address(0) */\n  0xffffffffffffffffffffffffffffffffffffffff\n  and\n  sub\n    /* \"dias-chain.sol\":1758:1815  require(founder != address(0), \"Invalid founder address\") */\n  tag_9\n  jumpi\n  mload(0x40)\n  0x08c379a000000000000000000000000000000000000000000000000000000000\n  dup2\n  mstore\n  0x04\n  add\n  tag_10\n  swap1\n  tag_11\n  jump\t// in\ntag_10:\n  mload(0x40)\n  dup1\n  swap2\n  sub\n  swap1\n  revert\ntag_9:\n    /* \"dias-chain.sol\":1838:1848  msg.sender */\n  caller\n    /* \"dias-chain.sol\":1826:1835  _deployer */\n  0x02\n  0x00\n    /* \"dias-chain.sol\":1826:1848  _deployer = msg.sender */\n  0x0100\n  exp\n  dup2\n  sload\n  dup2\n  0xffffffffffffffffffffffffffffffffffffffff\n  mul\n  not\n  and\n  swap1\n  dup4\n  0xffffffffffffffffffffffffffffffffffffffff\n  and\n  mul\n  or\n  swap1\n  sstore\n  pop\n    /* \"dias-chain.sol\":1883:1904  developmentTeamWallet */\n  dup3\n    /* \"dias-chain.sol\":1858:1880  _developmentTeamWallet */\n  0x03\n  0x00\n    /* \"dias-chain.sol\":1858:1904  _developmentTeamWallet = developmentTeamWallet */\n  0x0100\n  exp\n  dup2\n  sload\n  dup2\n  0xffffffffffffffffffffffffffffffffffffffff\n  mul\n  not\n  and\n  swap1\n  dup4\n  0xffffffffffffffffffffffffffffffffffffffff\n  and\n  mul\n  or\n  swap1\n  sstore\n  pop\n    /* \"dias-chain.sol\":1925:1932  founder */\n  dup2\n    /* \"dias-chain.sol\":1914:1922  _founder */\n  0x04\n  0x00\n    /* \"dias-chain.sol\":1914:1932  _founder = founder */\n  0x0100\n  exp\n  dup2\n  sload\n  dup2\n  0xffffffffffffffffffffffffffffffffffffffff\n  mul\n  not\n  and\n  swap1\n  dup4\n  0xffffffffffffffffffffffffffffffffffffffff\n  and\n  mul\n  or\n  swap1\n  sstore\n  pop\n    /* \"dias-chain.sol\":1979:1986  30 days */\n  0x278d00\n    /* \"dias-chain.sol\":1958:1976  lockDurationMonths */\n  dup2\n    /* \"dias-chain.sol\":1958:1986  lockDurationMonths * 30 days */\n  tag_12\n  swap2\n  swap1\n  tag_13\n  jump\t// in\ntag_12:\n    /* \"dias-chain.sol\":1942:1955  _lockDuration */\n  0x08\n    /* \"dias-chain.sol\":1942:1986  _lockDuration = lockDurationMonths * 30 days */\n  dup2\n  swap1\n  sstore\n  pop\n    /* \"dias-chain.sol\":2029:2042  _lockDuration */\n  sload(0x08)\n    /* \"dias-chain.sol\":2011:2026  block.timestamp */\n  timestamp\n    /* \"dias-chain.sol\":2011:2042  block.timestamp + _lockDuration */\n  tag_14\n  swap2\n  swap1\n  tag_15\n  jump\t// in\ntag_14:\n    /* \"dias-chain.sol\":1996:2008  _releaseTime */\n  0x09\n    /* \"dias-chain.sol\":1996:2042  _releaseTime = block.timestamp + _lockDuration */\n  dup2\n  swap1\n  sstore\n  pop\n    /* \"dias-chain.sol\":2119:2122  100 */\n  0x64\n    /* \"dias-chain.sol\":894:895  5 */\n  0x05\n    /* \"dias-chain.sol\":520:522  18 */\n  0x12\n    /* \"dias-chain.sol\":584:601  uint256(decimals) */\n  0xff\n  and\n    /* \"dias-chain.sol\":580:582  10 */\n  0x0a\n    /* \"dias-chain.sol\":580:601  10**uint256(decimals) */\n  tag_16\n  swap2\n  swap1\n  tag_17\n  jump\t// in\ntag_16:\n    /* \"dias-chain.sol\":566:577  100_000_000 */\n  0x05f5e100\n    /* \"dias-chain.sol\":566:601  100_000_000 * 10**uint256(decimals) */\n  tag_18\n  swap2\n  swap1\n  tag_13\n  jump\t// in\ntag_18:\n    /* \"dias-chain.sol\":2074:2116  totalSupply * _founderAllocationPercentage */\n  tag_19\n  swap2\n  swap1\n  tag_13\n  jump\t// in\ntag_19:\n    /* \"dias-chain.sol\":2074:2122  totalSupply * _founderAllocationPercentage / 100 */\n  tag_20\n  swap2\n  swap1\n  tag_21\n  jump\t// in\ntag_20:\n    /* \"dias-chain.sol\":2053:2071  _founderAllocation */\n  0x05\n    /* \"dias-chain.sol\":2053:2122  _founderAllocation = totalSupply * _founderAllocationPercentage / 100 */\n  dup2\n  swap1\n  sstore\n  pop\n    /* \"dias-chain.sol\":2206:2224  _founderAllocation */\n  sload(0x05)\n    /* \"dias-chain.sol\":2184:2193  _balances */\n  0x00\n    /* \"dias-chain.sol\":2184:2203  _balances[_founder] */\n  dup1\n    /* \"dias-chain.sol\":2194:2202  _founder */\n  0x04\n  0x00\n  swap1\n  sload\n  swap1\n  0x0100\n  exp\n  swap1\n  div\n  0xffffffffffffffffffffffffffffffffffffffff\n  and\n    /* \"dias-chain.sol\":2184:2203  _balances[_founder] */\n  0xffffffffffffffffffffffffffffffffffffffff\n  and\n  0xffffffffffffffffffffffffffffffffffffffff\n  and\n  dup2\n  mstore\n  0x20\n  add\n  swap1\n  dup2\n  mstore\n  0x20\n  add\n  0x00\n  keccak256\n    /* \"dias-chain.sol\":2184:2224  _balances[_founder] = _founderAllocation */\n  dup2\n  swap1\n  sstore\n  pop\n    /* \"dias-chain.sol\":2289:2292  100 */\n  0x64\n    /* \"dias-chain.sol\":2284:2286  40 */\n  0x28\n    /* \"dias-chain.sol\":520:522  18 */\n  0x12\n    /* \"dias-chain.sol\":584:601  uint256(decimals) */\n  0xff\n  and\n    /* \"dias-chain.sol\":580:582  10 */\n  0x0a\n    /* \"dias-chain.sol\":580:601  10**uint256(decimals) */\n  tag_22\n  swap2\n  swap1\n  tag_17\n  jump\t// in\ntag_22:\n    /* \"dias-chain.sol\":566:577  100_000_000 */\n  0x05f5e100\n    /* \"dias-chain.sol\":566:601  100_000_000 * 10**uint256(decimals) */\n  tag_23\n  swap2\n  swap1\n  tag_13\n  jump\t// in\ntag_23:\n    /* \"dias-chain.sol\":2270:2286  totalSupply * 40 */\n  tag_24\n  swap2\n  swap1\n  tag_13\n  jump\t// in\ntag_24:\n    /* \"dias-chain.sol\":2270:2292  totalSupply * 40 / 100 */\n  tag_25\n  swap2\n  swap1\n  tag_21\n  jump\t// in\ntag_25:\n    /* \"dias-chain.sol\":2234:2243  _balances */\n  0x00\n    /* \"dias-chain.sol\":2234:2267  _balances[_developmentTeamWallet] */\n  dup1\n    /* \"dias-chain.sol\":2244:2266  _developmentTeamWallet */\n  0x03\n  0x00\n  swap1\n  sload\n  swap1\n  0x0100\n  exp\n  swap1\n  div\n  0xffffffffffffffffffffffffffffffffffffffff\n  and\n    /* \"dias-chain.sol\":2234:2267  _balances[_developmentTeamWallet] */\n  0xffffffffffffffffffffffffffffffffffffffff\n  and\n  0xffffffffffffffffffffffffffffffffffffffff\n  and\n  dup2\n  mstore\n  0x20\n  add\n  swap1\n  dup2\n  mstore\n  0x20\n  add\n  0x00\n  keccak256\n    /* \"dias-chain.sol\":2234:2292  _balances[_developmentTeamWallet] = totalSupply * 40 / 100 */\n  dup2\n  swap1\n  sstore\n  pop\n    /* \"dias-chain.sol\":2357:2365  _founder */\n  0x04\n  0x00\n  swap1\n  sload\n  swap1\n  0x0100\n  exp\n  swap1\n  div\n  0xffffffffffffffffffffffffffffffffffffffff\n  and\n    /* \"dias-chain.sol\":2336:2386  Transfer(address(0), _founder, _founderAllocation) */\n  0xffffffffffffffffffffffffffffffffffffffff\n  and\n    /* \"dias-chain.sol\":2353:2354  0 */\n  0x00\n    /* \"dias-chain.sol\":2336:2386  Transfer(address(0), _founder, _founderAllocation) */\n  0xffffffffffffffffffffffffffffffffffffffff\n  and\n  0xddf252ad1be2c89b69c2b068fc378daa952ba7f163c4a11628f55a4df523b3ef\n    /* \"dias-chain.sol\":2367:2385  _founderAllocation */\n  sload(0x05)\n    /* \"dias-chain.sol\":2336:2386  Transfer(address(0), _founder, _founderAllocation) */\n  mload(0x40)\n  tag_26\n  swap2\n  swap1\n  tag_27\n  jump\t// in\ntag_26:\n  mload(0x40)\n  dup1\n  swap2\n  sub\n  swap1\n  log3\n    /* \"dias-chain.sol\":2422:2444  _developmentTeamWallet */\n  0x03\n  0x00\n  swap1\n  sload\n  swap1\n  0x0100\n  exp\n  swap1\n  div\n  0xffffffffffffffffffffffffffffffffffffffff\n  and\n    /* \"dias-chain.sol\":2401:2480  Transfer(address(0), _developmentTeamWallet, _balances[_developmentTeamWallet]) */\n  0xffffffffffffffffffffffffffffffffffffffff\n  and\n    /* \"dias-chain.sol\":2418:2419  0 */\n  0x00\n    /* \"dias-chain.sol\":2401:2480  Transfer(address(0), _developmentTeamWallet, _balances[_developmentTeamWallet]) */\n  0xffffffffffffffffffffffffffffffffffffffff\n  and\n  0xddf252ad1be2c89b69c2b068fc378daa952ba7f163c4a11628f55a4df523b3ef\n    /* \"dias-chain.sol\":2446:2455  _balances */\n  0x00\n    /* \"dias-chain.sol\":2446:2479  _balances[_developmentTeamWallet] */\n  dup1\n    /* \"dias-chain.sol\":2456:2478  _developmentTeamWallet */\n  0x03\n  0x00\n  swap1\n  sload\n  swap1\n  0x0100\n  exp\n  swap1\n  div\n  0xffffffffffffffffffffffffffffffffffffffff\n  and\n    /* \"dias-chain.sol\":2446:2479  _balances[_developmentTeamWallet] */\n  0xffffffffffffffffffffffffffffffffffffffff\n  and\n  0xffffffffffffffffffffffffffffffffffffffff\n  and\n  dup2\n  mstore\n  0x20\n  add\n  swap1\n  dup2\n  mstore\n  0x20\n  add\n  0x00\n  keccak256\n  sload\n    /* \"dias-chain.sol\":2401:2480  Transfer(address(0), _developmentTeamWallet, _balances[_developmentTeamWallet]) */\n  mload(0x40)\n  tag_28\n  swap2\n  swap1\n  tag_27\n  jump\t// in\ntag_28:\n  mload(0x40)\n  dup1\n  swap2\n  sub\n  swap1\n  log3\n    /* \"dias-chain.sol\":1563:2487  constructor(address developmentTeamWallet, address founder, uint256 lockDurationMonths) {... */\n  pop\n  pop\n  pop\n    /* \"dias-chain.sol\":371:6497  contract DiasChain {... */\n  jump(tag_29)\n    /* \"#utility.yul\":88:205   */\ntag_31:\n    /* \"#utility.yul\":197:198   */\n  0x00\n    /* \"#utility.yul\":194:195   */\n  dup1\n    /* \"#utility.yul\":187:199   */\n  revert\n    /* \"#utility.yul\":334:460   */\ntag_33:\n    /* \"#utility.yul\":371:378   */\n  0x00\n    /* \"#utility.yul\":411:453   */\n  0xffffffffffffffffffffffffffffffffffffffff\n    /* \"#utility.yul\":404:409   */\n  dup3\n    /* \"#utility.yul\":400:454   */\n  and\n    /* \"#utility.yul\":389:454   */\n  swap1\n  pop\n    /* \"#utility.yul\":334:460   */\n  swap2\n  swap1\n  pop\n  jump\t// out\n    /* \"#utility.yul\":466:562   */\ntag_34:\n    /* \"#utility.yul\":503:510   */\n  0x00\n    /* \"#utility.yul\":532:556   */\n  tag_57\n    /* \"#utility.yul\":550:555   */\n  dup3\n    /* \"#utility.yul\":532:556   */\n  tag_33\n  jump\t// in\ntag_57:\n    /* \"#utility.yul\":521:556   */\n  swap1\n  pop\n    /* \"#utility.yul\":466:562   */\n  swap2\n  swap1\n  pop\n  jump\t// out\n    /* \"#utility.yul\":568:690   */\ntag_35:\n    /* \"#utility.yul\":641:665   */\n  tag_59\n    /* \"#utility.yul\":659:664   */\n  dup2\n    /* \"#utility.yul\":641:665   */\n  tag_34\n  jump\t// in\ntag_59:\n    /* \"#utility.yul\":634:639   */\n  dup2\n    /* \"#utility.yul\":631:666   */\n  eq\n    /* \"#utility.yul\":621:684   */\n  tag_60\n  jumpi\n    /* \"#utility.yul\":680:681   */\n  0x00\n    /* \"#utility.yul\":677:678   */\n  dup1\n    /* \"#utility.yul\":670:682   */\n  revert\n    /* \"#utility.yul\":621:684   */\ntag_60:\n    /* \"#utility.yul\":568:690   */\n  pop\n  jump\t// out\n    /* \"#utility.yul\":696:839   */\ntag_36:\n    /* \"#utility.yul\":753:758   */\n  0x00\n    /* \"#utility.yul\":784:790   */\n  dup2\n    /* \"#utility.yul\":778:791   */\n  mload\n    /* \"#utility.yul\":769:791   */\n  swap1\n  pop\n    /* \"#utility.yul\":800:833   */\n  tag_62\n    /* \"#utility.yul\":827:832   */\n  dup2\n    /* \"#utility.yul\":800:833   */\n  tag_35\n  jump\t// in\ntag_62:\n    /* \"#utility.yul\":696:839   */\n  swap3\n  swap2\n  pop\n  pop\n  jump\t// out\n    /* \"#utility.yul\":845:922   */\ntag_37:\n    /* \"#utility.yul\":882:889   */\n  0x00\n    /* \"#utility.yul\":911:916   */\n  dup2\n    /* \"#utility.yul\":900:916   */\n  swap1\n  pop\n    /* \"#utility.yul\":845:922   */\n  swap2\n  swap1\n  pop\n  jump\t// out\n    /* \"#utility.yul\":928:1050   */\ntag_38:\n    /* \"#utility.yul\":1001:1025   */\n  tag_65\n    /* \"#utility.yul\":1019:1024   */\n  dup2\n    /* \"#utility.yul\":1001:1025   */\n  tag_37\n  jump\t// in\ntag_65:\n    /* \"#utility.yul\":994:999   */\n  dup2\n    /* \"#utility.yul\":991:1026   */\n  eq\n    /* \"#utility.yul\":981:1044   */\n  tag_66\n  jumpi\n    /* \"#utility.yul\":1040:1041   */\n  0x00\n    /* \"#utility.yul\":1037:1038   */\n  dup1\n    /* \"#utility.yul\":1030:1042   */\n  revert\n    /* \"#utility.yul\":981:1044   */\ntag_66:\n    /* \"#utility.yul\":928:1050   */\n  pop\n  jump\t// out\n    /* \"#utility.yul\":1056:1199   */\ntag_39:\n    /* \"#utility.yul\":1113:1118   */\n  0x00\n    /* \"#utility.yul\":1144:1150   */\n  dup2\n    /* \"#utility.yul\":1138:1151   */\n  mload\n    /* \"#utility.yul\":1129:1151   */\n  swap1\n  pop\n    /* \"#utility.yul\":1160:1193   */\n  tag_68\n    /* \"#utility.yul\":1187:1192   */\n  dup2\n    /* \"#utility.yul\":1160:1193   */\n  tag_38\n  jump\t// in\ntag_68:\n    /* \"#utility.yul\":1056:1199   */\n  swap3\n  swap2\n  pop\n  pop\n  jump\t// out\n    /* \"#utility.yul\":1205:1868   */\ntag_3:\n    /* \"#utility.yul\":1293:1299   */\n  0x00\n    /* \"#utility.yul\":1301:1307   */\n  dup1\n    /* \"#utility.yul\":1309:1315   */\n  0x00\n    /* \"#utility.yul\":1358:1360   */\n  0x60\n    /* \"#utility.yul\":1346:1355   */\n  dup5\n    /* \"#utility.yul\":1337:1344   */\n  dup7\n    /* \"#utility.yul\":1333:1356   */\n  sub\n    /* \"#utility.yul\":1329:1361   */\n  slt\n    /* \"#utility.yul\":1326:1445   */\n  iszero\n  tag_70\n  jumpi\n    /* \"#utility.yul\":1364:1443   */\n  tag_71\n  tag_31\n  jump\t// in\ntag_71:\n    /* \"#utility.yul\":1326:1445   */\ntag_70:\n    /* \"#utility.yul\":1484:1485   */\n  0x00\n    /* \"#utility.yul\":1509:1573   */\n  tag_72\n    /* \"#utility.yul\":1565:1572   */\n  dup7\n    /* \"#utility.yul\":1556:1562   */\n  dup3\n    /* \"#utility.yul\":1545:1554   */\n  dup8\n    /* \"#utility.yul\":1541:1563   */\n  add\n    /* \"#utility.yul\":1509:1573   */\n  tag_36\n  jump\t// in\ntag_72:\n    /* \"#utility.yul\":1499:1573   */\n  swap4\n  pop\n    /* \"#utility.yul\":1455:1583   */\n  pop\n    /* \"#utility.yul\":1622:1624   */\n  0x20\n    /* \"#utility.yul\":1648:1712   */\n  tag_73\n    /* \"#utility.yul\":1704:1711   */\n  dup7\n    /* \"#utility.yul\":1695:1701   */\n  dup3\n    /* \"#utility.yul\":1684:1693   */\n  dup8\n    /* \"#utility.yul\":1680:1702   */\n  add\n    /* \"#utility.yul\":1648:1712   */\n  tag_36\n  jump\t// in\ntag_73:\n    /* \"#utility.yul\":1638:1712   */\n  swap3\n  pop\n    /* \"#utility.yul\":1593:1722   */\n  pop\n    /* \"#utility.yul\":1761:1763   */\n  0x40\n    /* \"#utility.yul\":1787:1851   */\n  tag_74\n    /* \"#utility.yul\":1843:1850   */\n  dup7\n    /* \"#utility.yul\":1834:1840   */\n  dup3\n    /* \"#utility.yul\":1823:1832   */\n  dup8\n    /* \"#utility.yul\":1819:1841   */\n  add\n    /* \"#utility.yul\":1787:1851   */\n  tag_39\n  jump\t// in\ntag_74:\n    /* \"#utility.yul\":1777:1851   */\n  swap2\n  pop\n    /* \"#utility.yul\":1732:1861   */\n  pop\n    /* \"#utility.yul\":1205:1868   */\n  swap3\n  pop\n  swap3\n  pop\n  swap3\n  jump\t// out\n    /* \"#utility.yul\":1874:2043   */\ntag_40:\n    /* \"#utility.yul\":1958:1969   */\n  0x00\n    /* \"#utility.yul\":1992:1998   */\n  dup3\n    /* \"#utility.yul\":1987:1990   */\n  dup3\n    /* \"#utility.yul\":1980:1999   */\n  mstore\n    /* \"#utility.yul\":2032:2036   */\n  0x20\n    /* \"#utility.yul\":2027:2030   */\n  dup3\n    /* \"#utility.yul\":2023:2037   */\n  add\n    /* \"#utility.yul\":2008:2037   */\n  swap1\n  pop\n    /* \"#utility.yul\":1874:2043   */\n  swap3\n  swap2\n  pop\n  pop\n  jump\t// out\n    /* \"#utility.yul\":2049:2275   */\ntag_41:\n    /* \"#utility.yul\":2189:2223   */\n  0x496e76616c696420646576656c6f706d656e74207465616d2077616c6c657420\n    /* \"#utility.yul\":2185:2186   */\n  0x00\n    /* \"#utility.yul\":2177:2183   */\n  dup3\n    /* \"#utility.yul\":2173:2187   */\n  add\n    /* \"#utility.yul\":2166:2224   */\n  mstore\n    /* \"#utility.yul\":2258:2267   */\n  0x6164647265737300000000000000000000000000000000000000000000000000\n    /* \"#utility.yul\":2253:2255   */\n  0x20\n    /* \"#utility.yul\":2245:2251   */\n  dup3\n    /* \"#utility.yul\":2241:2256   */\n  add\n    /* \"#utility.yul\":2234:2268   */\n  mstore\n    /* \"#utility.yul\":2049:2275   */\n  pop\n  jump\t// out\n    /* \"#utility.yul\":2281:2647   */\ntag_42:\n    /* \"#utility.yul\":2423:2426   */\n  0x00\n    /* \"#utility.yul\":2444:2511   */\n  tag_78\n    /* \"#utility.yul\":2508:2510   */\n  0x27\n    /* \"#utility.yul\":2503:2506   */\n  dup4\n    /* \"#utility.yul\":2444:2511   */\n  tag_40\n  jump\t// in\ntag_78:\n    /* \"#utility.yul\":2437:2511   */\n  swap2\n  pop\n    /* \"#utility.yul\":2520:2613   */\n  tag_79\n    /* \"#utility.yul\":2609:2612   */\n  dup3\n    /* \"#utility.yul\":2520:2613   */\n  tag_41\n  jump\t// in\ntag_79:\n    /* \"#utility.yul\":2638:2640   */\n  0x40\n    /* \"#utility.yul\":2633:2636   */\n  dup3\n    /* \"#utility.yul\":2629:2641   */\n  add\n    /* \"#utility.yul\":2622:2641   */\n  swap1\n  pop\n    /* \"#utility.yul\":2281:2647   */\n  swap2\n  swap1\n  pop\n  jump\t// out\n    /* \"#utility.yul\":2653:3072   */\ntag_8:\n    /* \"#utility.yul\":2819:2823   */\n  0x00\n    /* \"#utility.yul\":2857:2859   */\n  0x20\n    /* \"#utility.yul\":2846:2855   */\n  dup3\n    /* \"#utility.yul\":2842:2860   */\n  add\n    /* \"#utility.yul\":2834:2860   */\n  swap1\n  pop\n    /* \"#utility.yul\":2906:2915   */\n  dup2\n    /* \"#utility.yul\":2900:2904   */\n  dup2\n    /* \"#utility.yul\":2896:2916   */\n  sub\n    /* \"#utility.yul\":2892:2893   */\n  0x00\n    /* \"#utility.yul\":2881:2890   */\n  dup4\n    /* \"#utility.yul\":2877:2894   */\n  add\n    /* \"#utility.yul\":2870:2917   */\n  mstore\n    /* \"#utility.yul\":2934:3065   */\n  tag_81\n    /* \"#utility.yul\":3060:3064   */\n  dup2\n    /* \"#utility.yul\":2934:3065   */\n  tag_42\n  jump\t// in\ntag_81:\n    /* \"#utility.yul\":2926:3065   */\n  swap1\n  pop\n    /* \"#utility.yul\":2653:3072   */\n  swap2\n  swap1\n  pop\n  jump\t// out\n    /* \"#utility.yul\":3078:3251   */\ntag_43:\n    /* \"#utility.yul\":3218:3243   */\n  0x496e76616c696420666f756e6465722061646472657373000000000000000000\n    /* \"#utility.yul\":3214:3215   */\n  0x00\n    /* \"#utility.yul\":3206:3212   */\n  dup3\n    /* \"#utility.yul\":3202:3216   */\n  add\n    /* \"#utility.yul\":3195:3244   */\n  mstore\n    /* \"#utility.yul\":3078:3251   */\n  pop\n  jump\t// out\n    /* \"#utility.yul\":3257:3623   */\ntag_44:\n    /* \"#utility.yul\":3399:3402   */\n  0x00\n    /* \"#utility.yul\":3420:3487   */\n  tag_84\n    /* \"#utility.yul\":3484:3486   */\n  0x17\n    /* \"#utility.yul\":3479:3482   */\n  dup4\n    /* \"#utility.yul\":3420:3487   */\n  tag_40\n  jump\t// in\ntag_84:\n    /* \"#utility.yul\":3413:3487   */\n  swap2\n  pop\n    /* \"#utility.yul\":3496:3589   */\n  tag_85\n    /* \"#utility.yul\":3585:3588   */\n  dup3\n    /* \"#utility.yul\":3496:3589   */\n  tag_43\n  jump\t// in\ntag_85:\n    /* \"#utility.yul\":3614:3616   */\n  0x20\n    /* \"#utility.yul\":3609:3612   */\n  dup3\n    /* \"#utility.yul\":3605:3617   */\n  add\n    /* \"#utility.yul\":3598:3617   */\n  swap1\n  pop\n    /* \"#utility.yul\":3257:3623   */\n  swap2\n  swap1\n  pop\n  jump\t// out\n    /* \"#utility.yul\":3629:4048   */\ntag_11:\n    /* \"#utility.yul\":3795:3799   */\n  0x00\n    /* \"#utility.yul\":3833:3835   */\n  0x20\n    /* \"#utility.yul\":3822:3831   */\n  dup3\n    /* \"#utility.yul\":3818:3836   */\n  add\n    /* \"#utility.yul\":3810:3836   */\n  swap1\n  pop\n    /* \"#utility.yul\":3882:3891   */\n  dup2\n    /* \"#utility.yul\":3876:3880   */\n  dup2\n    /* \"#utility.yul\":3872:3892   */\n  sub\n    /* \"#utility.yul\":3868:3869   */\n  0x00\n    /* \"#utility.yul\":3857:3866   */\n  dup4\n    /* \"#utility.yul\":3853:3870   */\n  add\n    /* \"#utility.yul\":3846:3893   */\n  mstore\n    /* \"#utility.yul\":3910:4041   */\n  tag_87\n    /* \"#utility.yul\":4036:4040   */\n  dup2\n    /* \"#utility.yul\":3910:4041   */\n  tag_44\n  jump\t// in\ntag_87:\n    /* \"#utility.yul\":3902:4041   */\n  swap1\n  pop\n    /* \"#utility.yul\":3629:4048   */\n  swap2\n  swap1\n  pop\n  jump\t// out\n    /* \"#utility.yul\":4054:4234   */\ntag_45:\n    /* \"#utility.yul\":4102:4179   */\n  0x4e487b7100000000000000000000000000000000000000000000000000000000\n    /* \"#utility.yul\":4099:4100   */\n  0x00\n    /* \"#utility.yul\":4092:4180   */\n  mstore\n    /* \"#utility.yul\":4199:4203   */\n  0x11\n    /* \"#utility.yul\":4196:4197   */\n  0x04\n    /* \"#utility.yul\":4189:4204   */\n  mstore\n    /* \"#utility.yul\":4223:4227   */\n  0x24\n    /* \"#utility.yul\":4220:4221   */\n  0x00\n    /* \"#utility.yul\":4213:4228   */\n  revert\n    /* \"#utility.yul\":4240:4650   */\ntag_13:\n    /* \"#utility.yul\":4280:4287   */\n  0x00\n    /* \"#utility.yul\":4303:4323   */\n  tag_90\n    /* \"#utility.yul\":4321:4322   */\n  dup3\n    /* \"#utility.yul\":4303:4323   */\n  tag_37\n  jump\t// in\ntag_90:\n    /* \"#utility.yul\":4298:4323   */\n  swap2\n  pop\n    /* \"#utility.yul\":4337:4357   */\n  tag_91\n    /* \"#utility.yul\":4355:4356   */\n  dup4\n    /* \"#utility.yul\":4337:4357   */\n  tag_37\n  jump\t// in\ntag_91:\n    /* \"#utility.yul\":4332:4357   */\n  swap3\n  pop\n    /* \"#utility.yul\":4392:4393   */\n  dup3\n    /* \"#utility.yul\":4389:4390   */\n  dup3\n    /* \"#utility.yul\":4385:4394   */\n  mul\n    /* \"#utility.yul\":4414:4444   */\n  tag_92\n    /* \"#utility.yul\":4432:4443   */\n  dup2\n    /* \"#utility.yul\":4414:4444   */\n  tag_37\n  jump\t// in\ntag_92:\n    /* \"#utility.yul\":4403:4444   */\n  swap2\n  pop\n    /* \"#utility.yul\":4593:4594   */\n  dup3\n    /* \"#utility.yul\":4584:4591   */\n  dup3\n    /* \"#utility.yul\":4580:4595   */\n  div\n    /* \"#utility.yul\":4577:4578   */\n  dup5\n    /* \"#utility.yul\":4574:4596   */\n  eq\n    /* \"#utility.yul\":4554:4555   */\n  dup4\n    /* \"#utility.yul\":4547:4556   */\n  iszero\n    /* \"#utility.yul\":4527:4610   */\n  or\n    /* \"#utility.yul\":4504:4643   */\n  tag_93\n  jumpi\n    /* \"#utility.yul\":4623:4641   */\n  tag_94\n  tag_45\n  jump\t// in\ntag_94:\n    /* \"#utility.yul\":4504:4643   */\ntag_93:\n    /* \"#utility.yul\":4288:4650   */\n  pop\n    /* \"#utility.yul\":4240:4650   */\n  swap3\n  swap2\n  pop\n  pop\n  jump\t// out\n    /* \"#utility.yul\":4656:4847   */\ntag_15:\n    /* \"#utility.yul\":4696:4699   */\n  0x00\n    /* \"#utility.yul\":4715:4735   */\n  tag_96\n    /* \"#utility.yul\":4733:4734   */\n  dup3\n    /* \"#utility.yul\":4715:4735   */\n  tag_37\n  jump\t// in\ntag_96:\n    /* \"#utility.yul\":4710:4735   */\n  swap2\n  pop\n    /* \"#utility.yul\":4749:4769   */\n  tag_97\n    /* \"#utility.yul\":4767:4768   */\n  dup4\n    /* \"#utility.yul\":4749:4769   */\n  tag_37\n  jump\t// in\ntag_97:\n    /* \"#utility.yul\":4744:4769   */\n  swap3\n  pop\n    /* \"#utility.yul\":4792:4793   */\n  dup3\n    /* \"#utility.yul\":4789:4790   */\n  dup3\n    /* \"#utility.yul\":4785:4794   */\n  add\n    /* \"#utility.yul\":4778:4794   */\n  swap1\n  pop\n    /* \"#utility.yul\":4813:4816   */\n  dup1\n    /* \"#utility.yul\":4810:4811   */\n  dup3\n    /* \"#utility.yul\":4807:4817   */\n  gt\n    /* \"#utility.yul\":4804:4840   */\n  iszero\n  tag_98\n  jumpi\n    /* \"#utility.yul\":4820:4838   */\n  tag_99\n  tag_45\n  jump\t// in\ntag_99:\n    /* \"#utility.yul\":4804:4840   */\ntag_98:\n    /* \"#utility.yul\":4656:4847   */\n  swap3\n  swap2\n  pop\n  pop\n  jump\t// out\n    /* \"#utility.yul\":4853:4955   */\ntag_46:\n    /* \"#utility.yul\":4895:4903   */\n  0x00\n    /* \"#utility.yul\":4942:4947   */\n  dup2\n    /* \"#utility.yul\":4939:4940   */\n  0x01\n    /* \"#utility.yul\":4935:4948   */\n  shr\n    /* \"#utility.yul\":4914:4948   */\n  swap1\n  pop\n    /* \"#utility.yul\":4853:4955   */\n  swap2\n  swap1\n  pop\n  jump\t// out\n    /* \"#utility.yul\":4961:5809   */\ntag_47:\n    /* \"#utility.yul\":5022:5027   */\n  0x00\n    /* \"#utility.yul\":5029:5033   */\n  dup1\n    /* \"#utility.yul\":5053:5059   */\n  dup3\n    /* \"#utility.yul\":5044:5059   */\n  swap2\n  pop\n    /* \"#utility.yul\":5077:5082   */\n  dup4\n    /* \"#utility.yul\":5068:5082   */\n  swap1\n  pop\n    /* \"#utility.yul\":5091:5803   */\ntag_102:\n    /* \"#utility.yul\":5112:5113   */\n  0x01\n    /* \"#utility.yul\":5102:5110   */\n  dup6\n    /* \"#utility.yul\":5099:5114   */\n  gt\n    /* \"#utility.yul\":5091:5803   */\n  iszero\n  tag_104\n  jumpi\n    /* \"#utility.yul\":5207:5211   */\n  dup1\n    /* \"#utility.yul\":5202:5205   */\n  dup7\n    /* \"#utility.yul\":5198:5212   */\n  div\n    /* \"#utility.yul\":5192:5196   */\n  dup2\n    /* \"#utility.yul\":5189:5213   */\n  gt\n    /* \"#utility.yul\":5186:5236   */\n  iszero\n  tag_105\n  jumpi\n    /* \"#utility.yul\":5216:5234   */\n  tag_106\n  tag_45\n  jump\t// in\ntag_106:\n    /* \"#utility.yul\":5186:5236   */\ntag_105:\n    /* \"#utility.yul\":5266:5267   */\n  0x01\n    /* \"#utility.yul\":5256:5264   */\n  dup6\n    /* \"#utility.yul\":5252:5268   */\n  and\n    /* \"#utility.yul\":5249:5700   */\n  iszero\n  tag_107\n  jumpi\n    /* \"#utility.yul\":5681:5685   */\n  dup1\n    /* \"#utility.yul\":5674:5679   */\n  dup3\n    /* \"#utility.yul\":5670:5686   */\n  mul\n    /* \"#utility.yul\":5661:5686   */\n  swap2\n  pop\n    /* \"#utility.yul\":5249:5700   */\ntag_107:\n    /* \"#utility.yul\":5731:5735   */\n  dup1\n    /* \"#utility.yul\":5725:5729   */\n  dup2\n    /* \"#utility.yul\":5721:5736   */\n  mul\n    /* \"#utility.yul\":5713:5736   */\n  swap1\n  pop\n    /* \"#utility.yul\":5761:5793   */\n  tag_108\n    /* \"#utility.yul\":5784:5792   */\n  dup6\n    /* \"#utility.yul\":5761:5793   */\n  tag_46\n  jump\t// in\ntag_108:\n    /* \"#utility.yul\":5749:5793   */\n  swap5\n  pop\n    /* \"#utility.yul\":5091:5803   */\n  jump(tag_102)\ntag_104:\n    /* \"#utility.yul\":4961:5809   */\n  swap5\n  pop\n  swap5\n  swap3\n  pop\n  pop\n  pop\n  jump\t// out\n    /* \"#utility.yul\":5815:6888   */\ntag_48:\n    /* \"#utility.yul\":5869:5874   */\n  0x00\n    /* \"#utility.yul\":6060:6068   */\n  dup3\n    /* \"#utility.yul\":6050:6090   */\n  tag_110\n  jumpi\n    /* \"#utility.yul\":6081:6082   */\n  0x01\n    /* \"#utility.yul\":6072:6082   */\n  swap1\n  pop\n    /* \"#utility.yul\":6083:6088   */\n  jump(tag_109)\n    /* \"#utility.yul\":6050:6090   */\ntag_110:\n    /* \"#utility.yul\":6109:6113   */\n  dup2\n    /* \"#utility.yul\":6099:6135   */\n  tag_111\n  jumpi\n    /* \"#utility.yul\":6126:6127   */\n  0x00\n    /* \"#utility.yul\":6117:6127   */\n  swap1\n  pop\n    /* \"#utility.yul\":6128:6133   */\n  jump(tag_109)\n    /* \"#utility.yul\":6099:6135   */\ntag_111:\n    /* \"#utility.yul\":6195:6199   */\n  dup2\n    /* \"#utility.yul\":6243:6244   */\n  0x01\n    /* \"#utility.yul\":6238:6265   */\n  dup2\n  eq\n  tag_113\n  jumpi\n    /* \"#utility.yul\":6279:6280   */\n  0x02\n    /* \"#utility.yul\":6274:6465   */\n  dup2\n  eq\n  tag_114\n  jumpi\n    /* \"#utility.yul\":6188:6465   */\n  jump(tag_112)\n    /* \"#utility.yul\":6238:6265   */\ntag_113:\n    /* \"#utility.yul\":6256:6257   */\n  0x01\n    /* \"#utility.yul\":6247:6257   */\n  swap2\n  pop\n    /* \"#utility.yul\":6258:6263   */\n  pop\n  jump(tag_109)\n    /* \"#utility.yul\":6274:6465   */\ntag_114:\n    /* \"#utility.yul\":6319:6322   */\n  0xff\n    /* \"#utility.yul\":6309:6317   */\n  dup5\n    /* \"#utility.yul\":6306:6323   */\n  gt\n    /* \"#utility.yul\":6303:6346   */\n  iszero\n  tag_115\n  jumpi\n    /* \"#utility.yul\":6326:6344   */\n  tag_116\n  tag_45\n  jump\t// in\ntag_116:\n    /* \"#utility.yul\":6303:6346   */\ntag_115:\n    /* \"#utility.yul\":6375:6383   */\n  dup4\n    /* \"#utility.yul\":6372:6373   */\n  0x02\n    /* \"#utility.yul\":6368:6384   */\n  exp\n    /* \"#utility.yul\":6359:6384   */\n  swap2\n  pop\n    /* \"#utility.yul\":6410:6413   */\n  dup5\n    /* \"#utility.yul\":6403:6408   */\n  dup3\n    /* \"#utility.yul\":6400:6414   */\n  gt\n    /* \"#utility.yul\":6397:6437   */\n  iszero\n  tag_117\n  jumpi\n    /* \"#utility.yul\":6417:6435   */\n  tag_118\n  tag_45\n  jump\t// in\ntag_118:\n    /* \"#utility.yul\":6397:6437   */\ntag_117:\n    /* \"#utility.yul\":6450:6455   */\n  pop\n  jump(tag_109)\n    /* \"#utility.yul\":6188:6465   */\ntag_112:\n  pop\n    /* \"#utility.yul\":6574:6576   */\n  0x20\n    /* \"#utility.yul\":6564:6572   */\n  dup4\n    /* \"#utility.yul\":6561:6577   */\n  lt\n    /* \"#utility.yul\":6555:6558   */\n  0x0133\n    /* \"#utility.yul\":6549:6553   */\n  dup4\n    /* \"#utility.yul\":6546:6559   */\n  lt\n    /* \"#utility.yul\":6542:6578   */\n  and\n    /* \"#utility.yul\":6524:6526   */\n  0x4e\n    /* \"#utility.yul\":6514:6522   */\n  dup5\n    /* \"#utility.yul\":6511:6527   */\n  lt\n    /* \"#utility.yul\":6506:6508   */\n  0x0b\n    /* \"#utility.yul\":6500:6504   */\n  dup5\n    /* \"#utility.yul\":6497:6509   */\n  lt\n    /* \"#utility.yul\":6493:6528   */\n  and\n    /* \"#utility.yul\":6477:6588   */\n  or\n    /* \"#utility.yul\":6474:6720   */\n  iszero\n  tag_119\n  jumpi\n    /* \"#utility.yul\":6630:6638   */\n  dup3\n    /* \"#utility.yul\":6624:6628   */\n  dup3\n    /* \"#utility.yul\":6620:6639   */\n  exp\n    /* \"#utility.yul\":6611:6639   */\n  swap1\n  pop\n    /* \"#utility.yul\":6665:6668   */\n  dup4\n    /* \"#utility.yul\":6658:6663   */\n  dup2\n    /* \"#utility.yul\":6655:6669   */\n  gt\n    /* \"#utility.yul\":6652:6692   */\n  iszero\n  tag_120\n  jumpi\n    /* \"#utility.yul\":6672:6690   */\n  tag_121\n  tag_45\n  jump\t// in\ntag_121:\n    /* \"#utility.yul\":6652:6692   */\ntag_120:\n    /* \"#utility.yul\":6705:6710   */\n  jump(tag_109)\n    /* \"#utility.yul\":6474:6720   */\ntag_119:\n    /* \"#utility.yul\":6745:6787   */\n  tag_122\n    /* \"#utility.yul\":6783:6786   */\n  dup5\n    /* \"#utility.yul\":6773:6781   */\n  dup5\n    /* \"#utility.yul\":6767:6771   */\n  dup5\n    /* \"#utility.yul\":6764:6765   */\n  0x01\n    /* \"#utility.yul\":6745:6787   */\n  tag_47\n  jump\t// in\ntag_122:\n    /* \"#utility.yul\":6730:6787   */\n  swap3\n  pop\n  swap1\n  pop\n    /* \"#utility.yul\":6819:6823   */\n  dup2\n    /* \"#utility.yul\":6814:6817   */\n  dup5\n    /* \"#utility.yul\":6810:6824   */\n  div\n    /* \"#utility.yul\":6803:6808   */\n  dup2\n    /* \"#utility.yul\":6800:6825   */\n  gt\n    /* \"#utility.yul\":6797:6848   */\n  iszero\n  tag_123\n  jumpi\n    /* \"#utility.yul\":6828:6846   */\n  tag_124\n  tag_45\n  jump\t// in\ntag_124:\n    /* \"#utility.yul\":6797:6848   */\ntag_123:\n    /* \"#utility.yul\":6877:6881   */\n  dup2\n    /* \"#utility.yul\":6870:6875   */\n  dup2\n    /* \"#utility.yul\":6866:6882   */\n  mul\n    /* \"#utility.yul\":6857:6882   */\n  swap1\n  pop\n    /* \"#utility.yul\":5815:6888   */\ntag_109:\n  swap4\n  swap3\n  pop\n  pop\n  pop\n  jump\t// out\n    /* \"#utility.yul\":6894:7179   */\ntag_17:\n    /* \"#utility.yul\":6954:6959   */\n  0x00\n    /* \"#utility.yul\":6978:7001   */\n  tag_126\n    /* \"#utility.yul\":6996:7000   */\n  dup3\n    /* \"#utility.yul\":6978:7001   */\n  tag_37\n  jump\t// in\ntag_126:\n    /* \"#utility.yul\":6970:7001   */\n  swap2\n  pop\n    /* \"#utility.yul\":7022:7049   */\n  tag_127\n    /* \"#utility.yul\":7040:7048   */\n  dup4\n    /* \"#utility.yul\":7022:7049   */\n  tag_37\n  jump\t// in\ntag_127:\n    /* \"#utility.yul\":7010:7049   */\n  swap3\n  pop\n    /* \"#utility.yul\":7068:7172   */\n  tag_128\n    /* \"#utility.yul\":7105:7171   */\n  0xffffffffffffffffffffffffffffffffffffffffffffffffffffffffffffffff\n    /* \"#utility.yul\":7095:7103   */\n  dup5\n    /* \"#utility.yul\":7089:7093   */\n  dup5\n    /* \"#utility.yul\":7068:7172   */\n  tag_48\n  jump\t// in\ntag_128:\n    /* \"#utility.yul\":7059:7172   */\n  swap1\n  pop\n    /* \"#utility.yul\":6894:7179   */\n  swap3\n  swap2\n  pop\n  pop\n  jump\t// out\n    /* \"#utility.yul\":7185:7365   */\ntag_49:\n    /* \"#utility.yul\":7233:7310   */\n  0x4e487b7100000000000000000000000000000000000000000000000000000000\n    /* \"#utility.yul\":7230:7231   */\n  0x00\n    /* \"#utility.yul\":7223:7311   */\n  mstore\n    /* \"#utility.yul\":7330:7334   */\n  0x12\n    /* \"#utility.yul\":7327:7328   */\n  0x04\n    /* \"#utility.yul\":7320:7335   */\n  mstore\n    /* \"#utility.yul\":7354:7358   */\n  0x24\n    /* \"#utility.yul\":7351:7352   */\n  0x00\n    /* \"#utility.yul\":7344:7359   */\n  revert\n    /* \"#utility.yul\":7371:7556   */\ntag_21:\n    /* \"#utility.yul\":7411:7412   */\n  0x00\n    /* \"#utility.yul\":7428:7448   */\n  tag_131\n    /* \"#utility.yul\":7446:7447   */\n  dup3\n    /* \"#utility.yul\":7428:7448   */\n  tag_37\n  jump\t// in\ntag_131:\n    /* \"#utility.yul\":7423:7448   */\n  swap2\n  pop\n    /* \"#utility.yul\":7462:7482   */\n  tag_132\n    /* \"#utility.yul\":7480:7481   */\n  dup4\n    /* \"#utility.yul\":7462:7482   */\n  tag_37\n  jump\t// in\ntag_132:\n    /* \"#utility.yul\":7457:7482   */\n  swap3\n  pop\n    /* \"#utility.yul\":7501:7502   */\n  dup3\n    /* \"#utility.yul\":7491:7526   */\n  tag_133\n  jumpi\n    /* \"#utility.yul\":7506:7524   */\n  tag_134\n  tag_49\n  jump\t// in\ntag_134:\n    /* \"#utility.yul\":7491:7526   */\ntag_133:\n    /* \"#utility.yul\":7548:7549   */\n  dup3\n    /* \"#utility.yul\":7545:7546   */\n  dup3\n    /* \"#utility.yul\":7541:7550   */\n  div\n    /* \"#utility.yul\":7536:7550   */\n  swap1\n  pop\n    /* \"#utility.yul\":7371:7556   */\n  swap3\n  swap2\n  pop\n  pop\n  jump\t// out\n    /* \"#utility.yul\":7562:7680   */\ntag_50:\n    /* \"#utility.yul\":7649:7673   */\n  tag_136\n    /* \"#utility.yul\":7667:7672   */\n  dup2\n    /* \"#utility.yul\":7649:7673   */\n  tag_37\n  jump\t// in\ntag_136:\n    /* \"#utility.yul\":7644:7647   */\n  dup3\n    /* \"#utility.yul\":7637:7674   */\n  mstore\n    /* \"#utility.yul\":7562:7680   */\n  pop\n  pop\n  jump\t// out\n    /* \"#utility.yul\":7686:7908   */\ntag_27:\n    /* \"#utility.yul\":7779:7783   */\n  0x00\n    /* \"#utility.yul\":7817:7819   */\n  0x20\n    /* \"#utility.yul\":7806:7815   */\n  dup3\n    /* \"#utility.yul\":7802:7820   */\n  add\n    /* \"#utility.yul\":7794:7820   */\n  swap1\n  pop\n    /* \"#utility.yul\":7830:7901   */\n  tag_138\n    /* \"#utility.yul\":7898:7899   */\n  0x00\n    /* \"#utility.yul\":7887:7896   */\n  dup4\n    /* \"#utility.yul\":7883:7900   */\n  add\n    /* \"#utility.yul\":7874:7880   */\n  dup5\n    /* \"#utility.yul\":7830:7901   */\n  tag_50\n  jump\t// in\ntag_138:\n    /* \"#utility.yul\":7686:7908   */\n  swap3\n  swap2\n  pop\n  pop\n  jump\t// out\n    /* \"dias-chain.sol\":371:6497  contract DiasChain {... */\ntag_29:\n  dataSize(sub_0)\n  dup1\n  dataOffset(sub_0)\n  0x00\n  codecopy\n  0x00\n  return\nstop\n\nsub_0: assembly {\n        /* \"dias-chain.sol\":371:6497  contract DiasChain {... */\n      mstore(0x40, 0x80)\n      callvalue\n      dup1\n      iszero\n      tag_1\n      jumpi\n      0x00\n      dup1\n      revert\n    tag_1:\n      pop\n      jumpi(tag_2, lt(calldatasize, 0x04))\n      shr(0xe0, calldataload(0x00))\n      dup1\n      0x70a08231\n      gt\n      tag_18\n      jumpi\n      dup1\n      0xa9059cbb\n      gt\n      tag_19\n      jumpi\n      dup1\n      0xa9059cbb\n      eq\n      tag_14\n      jumpi\n      dup1\n      0xb1c25586\n      eq\n      tag_15\n      jumpi\n      dup1\n      0xdd62ed3e\n      eq\n      tag_16\n      jumpi\n      dup1\n      0xfbd42e0f\n      eq\n      tag_17\n      jumpi\n      jump(tag_2)\n    tag_19:\n      dup1\n      0x70a08231\n      eq\n      tag_10\n      jumpi\n      dup1\n      0x74eb9b68\n      eq\n      tag_11\n      jumpi\n      dup1\n      0x905295e3\n      eq\n      tag_12\n      jumpi\n      dup1\n      0x95d89b41\n      eq\n      tag_13\n      jumpi\n      jump(tag_2)\n    tag_18:\n      dup1\n      0x23b872dd\n      gt\n      tag_20\n      jumpi\n      dup1\n      0x23b872dd\n      eq\n      tag_6\n      jumpi\n      dup1\n      0x313ce567\n      eq\n      tag_7\n      jumpi\n      dup1\n      0x3b81c1ec\n      eq\n      tag_8\n      jumpi\n      dup1\n      0x47a64f44\n      eq\n      tag_9\n      jumpi\n      jump(tag_2)\n    tag_20:\n      dup1\n      0x06fdde03\n      eq\n      tag_3\n      jumpi\n      dup1\n      0x095ea7b3\n      eq\n      tag_4\n      jumpi\n      dup1\n      0x18160ddd\n      eq\n      tag_5\n      jumpi\n    tag_2:\n      0x00\n      dup1\n      revert\n        /* \"dias-chain.sol\":396:437  string public constant name = \"DIASCHAIN\" */\n    tag_3:\n      tag_21\n      tag_22\n      jump\t// in\n    tag_21:\n      mload(0x40)\n      tag_23\n      swap2\n      swap1\n      tag_24\n      jump\t// in\n    tag_23:\n      mload(0x40)\n      dup1\n      swap2\n      sub\n      swap1\n      return\n        /* \"dias-chain.sol\":3051:3362  function approve(address spender, uint256 amount) external notDeployer(msg.sender) notLocked(msg.sender) returns (bool) {... */\n    tag_4:\n      tag_25\n      0x04\n      dup1\n      calldatasize\n      sub\n      dup2\n      add\n      swap1\n      tag_26\n      swap2\n      swap1\n      tag_27\n      jump\t// in\n    tag_26:\n      tag_28\n      jump\t// in\n    tag_25:\n      mload(0x40)\n      tag_29\n      swap2\n      swap1\n      tag_30\n      jump\t// in\n    tag_29:\n      mload(0x40)\n      dup1\n      swap2\n      sub\n      swap1\n      return\n        /* \"dias-chain.sol\":528:601  uint256 public constant totalSupply = 100_000_000 * 10**uint256(decimals) */\n    tag_5:\n      tag_31\n      tag_32\n      jump\t// in\n    tag_31:\n      mload(0x40)\n      tag_33\n      swap2\n      swap1\n      tag_34\n      jump\t// in\n    tag_33:\n      mload(0x40)\n      dup1\n      swap2\n      sub\n      swap1\n      return\n        /* \"dias-chain.sol\":3368:3934  function transferFrom(address sender, address recipient, uint256 amount) external notDeployer(sender) notLocked(sender) returns (bool) {... */\n    tag_6:\n      tag_35\n      0x04\n      dup1\n      calldatasize\n      sub\n      dup2\n      add\n      swap1\n      tag_36\n      swap2\n      swap1\n      tag_37\n      jump\t// in\n    tag_36:\n      tag_38\n      jump\t// in\n    tag_35:\n      mload(0x40)\n      tag_39\n      swap2\n      swap1\n      tag_30\n      jump\t// in\n    tag_39:\n      mload(0x40)\n      dup1\n      swap2\n      sub\n      swap1\n      return\n        /* \"dias-chain.sol\":487:522  uint8 public constant decimals = 18 */\n    tag_7:\n      tag_40\n      tag_41\n      jump\t// in\n    tag_40:\n      mload(0x40)\n      tag_42\n      swap2\n      swap1\n      tag_43\n      jump\t// in\n    tag_42:\n      mload(0x40)\n      dup1\n      swap2\n      sub\n      swap1\n      return\n        /* \"dias-chain.sol\":4480:4793  function transferFromDevelopmentTeam(address recipient, uint256 amount) external onlyDeployer {... */\n    tag_8:\n      tag_44\n      0x04\n      dup1\n      calldatasize\n      sub\n      dup2\n      add\n      swap1\n      tag_45\n      swap2\n      swap1\n      tag_27\n      jump\t// in\n    tag_45:\n      tag_46\n      jump\t// in\n    tag_44:\n      stop\n        /* \"dias-chain.sol\":4799:5040  function lockAccount(address account) external onlyDeployer {... */\n    tag_9:\n      tag_47\n      0x04\n      dup1\n      calldatasize\n      sub\n      dup2\n      add\n      swap1\n      tag_48\n      swap2\n      swap1\n      tag_49\n      jump\t// in\n    tag_48:\n      tag_50\n      jump\t// in\n    tag_47:\n      stop\n        /* \"dias-chain.sol\":2493:2700  function balanceOf(address account) external view returns (uint256) {... */\n    tag_10:\n      tag_51\n      0x04\n      dup1\n      calldatasize\n      sub\n      dup2\n      add\n      swap1\n      tag_52\n      swap2\n      swap1\n      tag_49\n      jump\t// in\n    tag_52:\n      tag_53\n      jump\t// in\n    tag_51:\n      mload(0x40)\n      tag_54\n      swap2\n      swap1\n      tag_34\n      jump\t// in\n    tag_54:\n      mload(0x40)\n      dup1\n      swap2\n      sub\n      swap1\n      return\n        /* \"dias-chain.sol\":5298:5477  function isAccountLocked(address account) external view returns (bool) {... */\n    tag_11:\n      tag_55\n      0x04\n      dup1\n      calldatasize\n      sub\n      dup2\n      add\n      swap1\n      tag_56\n      swap2\n      swap1\n      tag_49\n      jump\t// in\n    tag_56:\n      tag_57\n      jump\t// in\n    tag_55:\n      mload(0x40)\n      tag_58\n      swap2\n      swap1\n      tag_30\n      jump\t// in\n    tag_58:\n      mload(0x40)\n      dup1\n      swap2\n      sub\n      swap1\n      return\n        /* \"dias-chain.sol\":5046:5292  function unlockAccount(address account) external onlyDeployer {... */\n    tag_12:\n      tag_59\n      0x04\n      dup1\n      calldatasize\n      sub\n      dup2\n      add\n      swap1\n      tag_60\n      swap2\n      swap1\n      tag_49\n      jump\t// in\n    tag_60:\n      tag_61\n      jump\t// in\n    tag_59:\n      stop\n        /* \"dias-chain.sol\":443:481  string public constant symbol = \"DIAS\" */\n    tag_13:\n      tag_62\n      tag_63\n      jump\t// in\n    tag_62:\n      mload(0x40)\n      tag_64\n      swap2\n      swap1\n      tag_24\n      jump\t// in\n    tag_64:\n      mload(0x40)\n      dup1\n      swap2\n      sub\n      swap1\n      return\n        /* \"dias-chain.sol\":2706:3045  function transfer(address recipient, uint256 amount) external notDeployer(msg.sender) notLocked(msg.sender) returns (bool) {... */\n    tag_14:\n      tag_65\n      0x04\n      dup1\n      calldatasize\n      sub\n      dup2\n      add\n      swap1\n      tag_66\n      swap2\n      swap1\n      tag_27\n      jump\t// in\n    tag_66:\n      tag_67\n      jump\t// in\n    tag_65:\n      mload(0x40)\n      tag_68\n      swap2\n      swap1\n      tag_30\n      jump\t// in\n    tag_68:\n      mload(0x40)\n      dup1\n      swap2\n      sub\n      swap1\n      return\n        /* \"dias-chain.sol\":5914:6334  function lockTokens(address account, uint256 amount) external onlyDeployer {... */\n    tag_15:\n      tag_69\n      0x04\n      dup1\n      calldatasize\n      sub\n      dup2\n      add\n      swap1\n      tag_70\n      swap2\n      swap1\n      tag_27\n      jump\t// in\n    tag_70:\n      tag_71\n      jump\t// in\n    tag_69:\n      stop\n        /* \"dias-chain.sol\":3940:4074  function allowance(address owner, address spender) external view returns (uint256) {... */\n    tag_16:\n      tag_72\n      0x04\n      dup1\n      calldatasize\n      sub\n      dup2\n      add\n      swap1\n      tag_73\n      swap2\n      swap1\n      tag_74\n      jump\t// in\n    tag_73:\n      tag_75\n      jump\t// in\n    tag_72:\n      mload(0x40)\n      tag_76\n      swap2\n      swap1\n      tag_34\n      jump\t// in\n    tag_76:\n      mload(0x40)\n      dup1\n      swap2\n      sub\n      swap1\n      return\n        /* \"dias-chain.sol\":5483:5908  function releaseLockedTokens() external onlyDeployer {... */\n    tag_17:\n      tag_77\n      tag_78\n      jump\t// in\n    tag_77:\n      stop\n        /* \"dias-chain.sol\":396:437  string public constant name = \"DIASCHAIN\" */\n    tag_22:\n      mload(0x40)\n      dup1\n      0x40\n      add\n      0x40\n      mstore\n      dup1\n      0x09\n      dup2\n      mstore\n      0x20\n      add\n      0x44494153434841494e0000000000000000000000000000000000000000000000\n      dup2\n      mstore\n      pop\n      dup2\n      jump\t// out\n        /* \"dias-chain.sol\":3051:3362  function approve(address spender, uint256 amount) external notDeployer(msg.sender) notLocked(msg.sender) returns (bool) {... */\n    tag_28:\n        /* \"dias-chain.sol\":3165:3169  bool */\n      0x00\n        /* \"dias-chain.sol\":3122:3132  msg.sender */\n      caller\n        /* \"dias-chain.sol\":1357:1366  _deployer */\n      0x02\n      0x00\n      swap1\n      sload\n      swap1\n      0x0100\n      exp\n      swap1\n      div\n      0xffffffffffffffffffffffffffffffffffffffff\n      and\n        /* \"dias-chain.sol\":1346:1366  account != _deployer */\n      0xffffffffffffffffffffffffffffffffffffffff\n      and\n        /* \"dias-chain.sol\":1346:1353  account */\n      dup2\n        /* \"dias-chain.sol\":1346:1366  account != _deployer */\n      0xffffffffffffffffffffffffffffffffffffffff\n      and\n      sub\n        /* \"dias-chain.sol\":1338:1414  require(account != _deployer, \"Deployer address cannot perform this action\") */\n      tag_80\n      jumpi\n      mload(0x40)\n      0x08c379a000000000000000000000000000000000000000000000000000000000\n      dup2\n      mstore\n      0x04\n      add\n      tag_81\n      swap1\n      tag_82\n      jump\t// in\n    tag_81:\n      mload(0x40)\n      dup1\n      swap2\n      sub\n      swap1\n      revert\n    tag_80:\n        /* \"dias-chain.sol\":3144:3154  msg.sender */\n      caller\n        /* \"dias-chain.sol\":1493:1508  _lockedAccounts */\n      0x06\n        /* \"dias-chain.sol\":1493:1517  _lockedAccounts[account] */\n      0x00\n        /* \"dias-chain.sol\":1509:1516  account */\n      dup3\n        /* \"dias-chain.sol\":1493:1517  _lockedAccounts[account] */\n      0xffffffffffffffffffffffffffffffffffffffff\n      and\n      0xffffffffffffffffffffffffffffffffffffffff\n      and\n      dup2\n      mstore\n      0x20\n      add\n      swap1\n      dup2\n      mstore\n      0x20\n      add\n      0x00\n      keccak256\n      0x00\n      swap1\n      sload\n      swap1\n      0x0100\n      exp\n      swap1\n      div\n      0xff\n      and\n        /* \"dias-chain.sol\":1492:1517  !_lockedAccounts[account] */\n      iszero\n        /* \"dias-chain.sol\":1484:1539  require(!_lockedAccounts[account], \"Account is locked\") */\n      tag_84\n      jumpi\n      mload(0x40)\n      0x08c379a000000000000000000000000000000000000000000000000000000000\n      dup2\n      mstore\n      0x04\n      add\n      tag_85\n      swap1\n      tag_86\n      jump\t// in\n    tag_85:\n      mload(0x40)\n      dup1\n      swap2\n      sub\n      swap1\n      revert\n    tag_84:\n        /* \"dias-chain.sol\":3208:3209  0 */\n      0x00\n        /* \"dias-chain.sol\":3189:3210  spender != address(0) */\n      0xffffffffffffffffffffffffffffffffffffffff\n      and\n        /* \"dias-chain.sol\":3189:3196  spender */\n      dup6\n        /* \"dias-chain.sol\":3189:3210  spender != address(0) */\n      0xffffffffffffffffffffffffffffffffffffffff\n      and\n      sub\n        /* \"dias-chain.sol\":3181:3230  require(spender != address(0), \"Invalid spender\") */\n      tag_88\n      jumpi\n      mload(0x40)\n      0x08c379a000000000000000000000000000000000000000000000000000000000\n      dup2\n      mstore\n      0x04\n      add\n      tag_89\n      swap1\n      tag_90\n      jump\t// in\n    tag_89:\n      mload(0x40)\n      dup1\n      swap2\n      sub\n      swap1\n      revert\n    tag_88:\n        /* \"dias-chain.sol\":3276:3282  amount */\n      dup4\n        /* \"dias-chain.sol\":3241:3252  _allowances */\n      0x01\n        /* \"dias-chain.sol\":3241:3264  _allowances[msg.sender] */\n      0x00\n        /* \"dias-chain.sol\":3253:3263  msg.sender */\n      caller\n        /* \"dias-chain.sol\":3241:3264  _allowances[msg.sender] */\n      0xffffffffffffffffffffffffffffffffffffffff\n      and\n      0xffffffffffffffffffffffffffffffffffffffff\n      and\n      dup2\n      mstore\n      0x20\n      add\n      swap1\n      dup2\n      mstore\n      0x20\n      add\n      0x00\n      keccak256\n        /* \"dias-chain.sol\":3241:3273  _allowances[msg.sender][spender] */\n      0x00\n        /* \"dias-chain.sol\":3265:3272  spender */\n      dup8\n        /* \"dias-chain.sol\":3241:3273  _allowances[msg.sender][spender] */\n      0xffffffffffffffffffffffffffffffffffffffff\n      and\n      0xffffffffffffffffffffffffffffffffffffffff\n      and\n      dup2\n      mstore\n      0x20\n      add\n      swap1\n      dup2\n      mstore\n      0x20\n      add\n      0x00\n      keccak256\n        /* \"dias-chain.sol\":3241:3282  _allowances[msg.sender][spender] = amount */\n      dup2\n      swap1\n      sstore\n      pop\n        /* \"dias-chain.sol\":3318:3325  spender */\n      dup5\n        /* \"dias-chain.sol\":3297:3334  Approval(msg.sender, spender, amount) */\n      0xffffffffffffffffffffffffffffffffffffffff\n      and\n        /* \"dias-chain.sol\":3306:3316  msg.sender */\n      caller\n        /* \"dias-chain.sol\":3297:3334  Approval(msg.sender, spender, amount) */\n      0xffffffffffffffffffffffffffffffffffffffff\n      and\n      0x8c5be1e5ebec7d5bd14f71427d1e84f3dd0314c0f7b2291e5b200ac8c7c3b925\n        /* \"dias-chain.sol\":3327:3333  amount */\n      dup7\n        /* \"dias-chain.sol\":3297:3334  Approval(msg.sender, spender, amount) */\n      mload(0x40)\n      tag_91\n      swap2\n      swap1\n      tag_34\n      jump\t// in\n    tag_91:\n      mload(0x40)\n      dup1\n      swap2\n      sub\n      swap1\n      log3\n        /* \"dias-chain.sol\":3351:3355  true */\n      0x01\n        /* \"dias-chain.sol\":3344:3355  return true */\n      swap3\n      pop\n        /* \"dias-chain.sol\":1424:1425  _ */\n      pop\n        /* \"dias-chain.sol\":3051:3362  function approve(address spender, uint256 amount) external notDeployer(msg.sender) notLocked(msg.sender) returns (bool) {... */\n      pop\n      swap3\n      swap2\n      pop\n      pop\n      jump\t// out\n        /* \"dias-chain.sol\":528:601  uint256 public constant totalSupply = 100_000_000 * 10**uint256(decimals) */\n    tag_32:\n        /* \"dias-chain.sol\":520:522  18 */\n      0x12\n        /* \"dias-chain.sol\":584:601  uint256(decimals) */\n      0xff\n      and\n        /* \"dias-chain.sol\":580:582  10 */\n      0x0a\n        /* \"dias-chain.sol\":580:601  10**uint256(decimals) */\n      tag_92\n      swap2\n      swap1\n      tag_93\n      jump\t// in\n    tag_92:\n        /* \"dias-chain.sol\":566:577  100_000_000 */\n      0x05f5e100\n        /* \"dias-chain.sol\":566:601  100_000_000 * 10**uint256(decimals) */\n      tag_94\n      swap2\n      swap1\n      tag_95\n      jump\t// in\n    tag_94:\n        /* \"dias-chain.sol\":528:601  uint256 public constant totalSupply = 100_000_000 * 10**uint256(decimals) */\n      dup2\n      jump\t// out\n        /* \"dias-chain.sol\":3368:3934  function transferFrom(address sender, address recipient, uint256 amount) external notDeployer(sender) notLocked(sender) returns (bool) {... */\n    tag_38:\n        /* \"dias-chain.sol\":3497:3501  bool */\n      0x00\n        /* \"dias-chain.sol\":3462:3468  sender */\n      dup4\n        /* \"dias-chain.sol\":1357:1366  _deployer */\n      0x02\n      0x00\n      swap1\n      sload\n      swap1\n      0x0100\n      exp\n      swap1\n      div\n      0xffffffffffffffffffffffffffffffffffffffff\n      and\n        /* \"dias-chain.sol\":1346:1366  account != _deployer */\n      0xffffffffffffffffffffffffffffffffffffffff\n      and\n        /* \"dias-chain.sol\":1346:1353  account */\n      dup2\n        /* \"dias-chain.sol\":1346:1366  account != _deployer */\n      0xffffffffffffffffffffffffffffffffffffffff\n      and\n      sub\n        /* \"dias-chain.sol\":1338:1414  require(account != _deployer, \"Deployer address cannot perform this action\") */\n      tag_97\n      jumpi\n      mload(0x40)\n      0x08c379a000000000000000000000000000000000000000000000000000000000\n      dup2\n      mstore\n      0x04\n      add\n      tag_98\n      swap1\n      tag_82\n      jump\t// in\n    tag_98:\n      mload(0x40)\n      dup1\n      swap2\n      sub\n      swap1\n      revert\n    tag_97:\n        /* \"dias-chain.sol\":3480:3486  sender */\n      dup5\n        /* \"dias-chain.sol\":1493:1508  _lockedAccounts */\n      0x06\n        /* \"dias-chain.sol\":1493:1517  _lockedAccounts[account] */\n      0x00\n        /* \"dias-chain.sol\":1509:1516  account */\n      dup3\n        /* \"dias-chain.sol\":1493:1517  _lockedAccounts[account] */\n      0xffffffffffffffffffffffffffffffffffffffff\n      and\n      0xffffffffffffffffffffffffffffffffffffffff\n      and\n      dup2\n      mstore\n      0x20\n      add\n      swap1\n      dup2\n      mstore\n      0x20\n      add\n      0x00\n      keccak256\n      0x00\n      swap1\n      sload\n      swap1\n      0x0100\n      exp\n      swap1\n      div\n      0xff\n      and\n        /* \"dias-chain.sol\":1492:1517  !_lockedAccounts[account] */\n      iszero\n        /* \"dias-chain.sol\":1484:1539  require(!_lockedAccounts[account], \"Account is locked\") */\n      tag_100\n      jumpi\n      mload(0x40)\n      0x08c379a000000000000000000000000000000000000000000000000000000000\n      dup2\n      mstore\n      0x04\n      add\n      tag_101\n      swap1\n      tag_86\n      jump\t// in\n    tag_101:\n      mload(0x40)\n      dup1\n      swap2\n      sub\n      swap1\n      revert\n    tag_100:\n        /* \"dias-chain.sol\":3539:3540  0 */\n      0x00\n        /* \"dias-chain.sol\":3521:3541  sender != address(0) */\n      0xffffffffffffffffffffffffffffffffffffffff\n      and\n        /* \"dias-chain.sol\":3521:3527  sender */\n      dup7\n        /* \"dias-chain.sol\":3521:3541  sender != address(0) */\n      0xffffffffffffffffffffffffffffffffffffffff\n      and\n      sub\n        /* \"dias-chain.sol\":3513:3560  require(sender != address(0), \"Invalid sender\") */\n      tag_103\n      jumpi\n      mload(0x40)\n      0x08c379a000000000000000000000000000000000000000000000000000000000\n      dup2\n      mstore\n      0x04\n      add\n      tag_104\n      swap1\n      tag_105\n      jump\t// in\n    tag_104:\n      mload(0x40)\n      dup1\n      swap2\n      sub\n      swap1\n      revert\n    tag_103:\n        /* \"dias-chain.sol\":3599:3600  0 */\n      0x00\n        /* \"dias-chain.sol\":3578:3601  recipient != address(0) */\n      0xffffffffffffffffffffffffffffffffffffffff\n      and\n        /* \"dias-chain.sol\":3578:3587  recipient */\n      dup6\n        /* \"dias-chain.sol\":3578:3601  recipient != address(0) */\n      0xffffffffffffffffffffffffffffffffffffffff\n      and\n      sub\n        /* \"dias-chain.sol\":3570:3623  require(recipient != address(0), \"Invalid recipient\") */\n      tag_106\n      jumpi\n      mload(0x40)\n      0x08c379a000000000000000000000000000000000000000000000000000000000\n      dup2\n      mstore\n      0x04\n      add\n      tag_107\n      swap1\n      tag_108\n      jump\t// in\n    tag_107:\n      mload(0x40)\n      dup1\n      swap2\n      sub\n      swap1\n      revert\n    tag_106:\n        /* \"dias-chain.sol\":3651:3660  _balances */\n      0x00\n        /* \"dias-chain.sol\":3651:3668  _balances[sender] */\n      dup1\n        /* \"dias-chain.sol\":3661:3667  sender */\n      dup8\n        /* \"dias-chain.sol\":3651:3668  _balances[sender] */\n      0xffffffffffffffffffffffffffffffffffffffff\n      and\n      0xffffffffffffffffffffffffffffffffffffffff\n      and\n      dup2\n      mstore\n      0x20\n      add\n      swap1\n      dup2\n      mstore\n      0x20\n      add\n      0x00\n      keccak256\n      sload\n        /* \"dias-chain.sol\":3641:3647  amount */\n      dup5\n        /* \"dias-chain.sol\":3641:3668  amount <= _balances[sender] */\n      gt\n      iszero\n        /* \"dias-chain.sol\":3633:3693  require(amount <= _balances[sender], \"Insufficient balance\") */\n      tag_109\n      jumpi\n      mload(0x40)\n      0x08c379a000000000000000000000000000000000000000000000000000000000\n      dup2\n      mstore\n      0x04\n      add\n      tag_110\n      swap1\n      tag_111\n      jump\t// in\n    tag_110:\n      mload(0x40)\n      dup1\n      swap2\n      sub\n      swap1\n      revert\n    tag_109:\n        /* \"dias-chain.sol\":3721:3732  _allowances */\n      0x01\n        /* \"dias-chain.sol\":3721:3740  _allowances[sender] */\n      0x00\n        /* \"dias-chain.sol\":3733:3739  sender */\n      dup8\n        /* \"dias-chain.sol\":3721:3740  _allowances[sender] */\n      0xffffffffffffffffffffffffffffffffffffffff\n      and\n      0xffffffffffffffffffffffffffffffffffffffff\n      and\n      dup2\n      mstore\n      0x20\n      add\n      swap1\n      dup2\n      mstore\n      0x20\n      add\n      0x00\n      keccak256\n        /* \"dias-chain.sol\":3721:3752  _allowances[sender][msg.sender] */\n      0x00\n        /* \"dias-chain.sol\":3741:3751  msg.sender */\n      caller\n        /* \"dias-chain.sol\":3721:3752  _allowances[sender][msg.sender] */\n      0xffffffffffffffffffffffffffffffffffffffff\n      and\n      0xffffffffffffffffffffffffffffffffffffffff\n      and\n      dup2\n      mstore\n      0x20\n      add\n      swap1\n      dup2\n      mstore\n      0x20\n      add\n      0x00\n      keccak256\n      sload\n        /* \"dias-chain.sol\":3711:3717  amount */\n      dup5\n        /* \"dias-chain.sol\":3711:3752  amount <= _allowances[sender][msg.sender] */\n      gt\n      iszero\n        /* \"dias-chain.sol\":3703:3779  require(amount <= _allowances[sender][msg.sender], \"Insufficient allowance\") */\n      tag_112\n      jumpi\n      mload(0x40)\n      0x08c379a000000000000000000000000000000000000000000000000000000000\n      dup2\n      mstore\n      0x04\n      add\n      tag_113\n      swap1\n      tag_114\n      jump\t// in\n    tag_113:\n      mload(0x40)\n      dup1\n      swap2\n      sub\n      swap1\n      revert\n    tag_112:\n        /* \"dias-chain.sol\":3790:3826  _transfer(sender, recipient, amount) */\n      tag_115\n        /* \"dias-chain.sol\":3800:3806  sender */\n      dup7\n        /* \"dias-chain.sol\":3808:3817  recipient */\n      dup7\n        /* \"dias-chain.sol\":3819:3825  amount */\n      dup7\n        /* \"dias-chain.sol\":3790:3799  _transfer */\n      tag_116\n        /* \"dias-chain.sol\":3790:3826  _transfer(sender, recipient, amount) */\n      jump\t// in\n    tag_115:\n        /* \"dias-chain.sol\":3836:3906  _approve(sender, msg.sender, _allowances[sender][msg.sender] - amount) */\n      tag_117\n        /* \"dias-chain.sol\":3845:3851  sender */\n      dup7\n        /* \"dias-chain.sol\":3853:3863  msg.sender */\n      caller\n        /* \"dias-chain.sol\":3899:3905  amount */\n      dup7\n        /* \"dias-chain.sol\":3865:3876  _allowances */\n      0x01\n        /* \"dias-chain.sol\":3865:3884  _allowances[sender] */\n      0x00\n        /* \"dias-chain.sol\":3877:3883  sender */\n      dup12\n        /* \"dias-chain.sol\":3865:3884  _allowances[sender] */\n      0xffffffffffffffffffffffffffffffffffffffff\n      and\n      0xffffffffffffffffffffffffffffffffffffffff\n      and\n      dup2\n      mstore\n      0x20\n      add\n      swap1\n      dup2\n      mstore\n      0x20\n      add\n      0x00\n      keccak256\n        /* \"dias-chain.sol\":3865:3896  _allowances[sender][msg.sender] */\n      0x00\n        /* \"dias-chain.sol\":3885:3895  msg.sender */\n      caller\n        /* \"dias-chain.sol\":3865:3896  _allowances[sender][msg.sender] */\n      0xffffffffffffffffffffffffffffffffffffffff\n      and\n      0xffffffffffffffffffffffffffffffffffffffff\n      and\n      dup2\n      mstore\n      0x20\n      add\n      swap1\n      dup2\n      mstore\n      0x20\n      add\n      0x00\n      keccak256\n      sload\n        /* \"dias-chain.sol\":3865:3905  _allowances[sender][msg.sender] - amount */\n      tag_118\n      swap2\n      swap1\n      tag_119\n      jump\t// in\n    tag_118:\n        /* \"dias-chain.sol\":3836:3844  _approve */\n      tag_120\n        /* \"dias-chain.sol\":3836:3906  _approve(sender, msg.sender, _allowances[sender][msg.sender] - amount) */\n      jump\t// in\n    tag_117:\n        /* \"dias-chain.sol\":3923:3927  true */\n      0x01\n        /* \"dias-chain.sol\":3916:3927  return true */\n      swap3\n      pop\n        /* \"dias-chain.sol\":1424:1425  _ */\n      pop\n        /* \"dias-chain.sol\":3368:3934  function transferFrom(address sender, address recipient, uint256 amount) external notDeployer(sender) notLocked(sender) returns (bool) {... */\n      pop\n      swap4\n      swap3\n      pop\n      pop\n      pop\n      jump\t// out\n        /* \"dias-chain.sol\":487:522  uint8 public constant decimals = 18 */\n    tag_41:\n        /* \"dias-chain.sol\":520:522  18 */\n      0x12\n        /* \"dias-chain.sol\":487:522  uint8 public constant decimals = 18 */\n      dup2\n      jump\t// out\n        /* \"dias-chain.sol\":4480:4793  function transferFromDevelopmentTeam(address recipient, uint256 amount) external onlyDeployer {... */\n    tag_46:\n        /* \"dias-chain.sol\":1212:1221  _deployer */\n      0x02\n      0x00\n      swap1\n      sload\n      swap1\n      0x0100\n      exp\n      swap1\n      div\n      0xffffffffffffffffffffffffffffffffffffffff\n      and\n        /* \"dias-chain.sol\":1198:1221  msg.sender == _deployer */\n      0xffffffffffffffffffffffffffffffffffffffff\n      and\n        /* \"dias-chain.sol\":1198:1208  msg.sender */\n      caller\n        /* \"dias-chain.sol\":1198:1221  msg.sender == _deployer */\n      0xffffffffffffffffffffffffffffffffffffffff\n      and\n      eq\n        /* \"dias-chain.sol\":1190:1266  require(msg.sender == _deployer, \"Only the deployer can call this function\") */\n      tag_122\n      jumpi\n      mload(0x40)\n      0x08c379a000000000000000000000000000000000000000000000000000000000\n      dup2\n      mstore\n      0x04\n      add\n      tag_123\n      swap1\n      tag_124\n      jump\t// in\n    tag_123:\n      mload(0x40)\n      dup1\n      swap2\n      sub\n      swap1\n      revert\n    tag_122:\n        /* \"dias-chain.sol\":4613:4614  0 */\n      0x00\n        /* \"dias-chain.sol\":4592:4615  recipient != address(0) */\n      0xffffffffffffffffffffffffffffffffffffffff\n      and\n        /* \"dias-chain.sol\":4592:4601  recipient */\n      dup3\n        /* \"dias-chain.sol\":4592:4615  recipient != address(0) */\n      0xffffffffffffffffffffffffffffffffffffffff\n      and\n      sub\n        /* \"dias-chain.sol\":4584:4637  require(recipient != address(0), \"Invalid recipient\") */\n      tag_126\n      jumpi\n      mload(0x40)\n      0x08c379a000000000000000000000000000000000000000000000000000000000\n      dup2\n      mstore\n      0x04\n      add\n      tag_127\n      swap1\n      tag_108\n      jump\t// in\n    tag_127:\n      mload(0x40)\n      dup1\n      swap2\n      sub\n      swap1\n      revert\n    tag_126:\n        /* \"dias-chain.sol\":4665:4674  _balances */\n      0x00\n        /* \"dias-chain.sol\":4665:4698  _balances[_developmentTeamWallet] */\n      dup1\n        /* \"dias-chain.sol\":4675:4697  _developmentTeamWallet */\n      0x03\n      0x00\n      swap1\n      sload\n      swap1\n      0x0100\n      exp\n      swap1\n      div\n      0xffffffffffffffffffffffffffffffffffffffff\n      and\n        /* \"dias-chain.sol\":4665:4698  _balances[_developmentTeamWallet] */\n      0xffffffffffffffffffffffffffffffffffffffff\n      and\n      0xffffffffffffffffffffffffffffffffffffffff\n      and\n      dup2\n      mstore\n      0x20\n      add\n      swap1\n      dup2\n      mstore\n      0x20\n      add\n      0x00\n      keccak256\n      sload\n        /* \"dias-chain.sol\":4655:4661  amount */\n      dup2\n        /* \"dias-chain.sol\":4655:4698  amount <= _balances[_developmentTeamWallet] */\n      gt\n      iszero\n        /* \"dias-chain.sol\":4647:4723  require(amount <= _balances[_developmentTeamWallet], \"Insufficient balance\") */\n      tag_128\n      jumpi\n      mload(0x40)\n      0x08c379a000000000000000000000000000000000000000000000000000000000\n      dup2\n      mstore\n      0x04\n      add\n      tag_129\n      swap1\n      tag_111\n      jump\t// in\n    tag_129:\n      mload(0x40)\n      dup1\n      swap2\n      sub\n      swap1\n      revert\n    tag_128:\n        /* \"dias-chain.sol\":4734:4786  _transfer(_developmentTeamWallet, recipient, amount) */\n      tag_130\n        /* \"dias-chain.sol\":4744:4766  _developmentTeamWallet */\n      0x03\n      0x00\n      swap1\n      sload\n      swap1\n      0x0100\n      exp\n      swap1\n      div\n      0xffffffffffffffffffffffffffffffffffffffff\n      and\n        /* \"dias-chain.sol\":4768:4777  recipient */\n      dup4\n        /* \"dias-chain.sol\":4779:4785  amount */\n      dup4\n        /* \"dias-chain.sol\":4734:4743  _transfer */\n      tag_116\n        /* \"dias-chain.sol\":4734:4786  _transfer(_developmentTeamWallet, recipient, amount) */\n      jump\t// in\n    tag_130:\n        /* \"dias-chain.sol\":4480:4793  function transferFromDevelopmentTeam(address recipient, uint256 amount) external onlyDeployer {... */\n      pop\n      pop\n      jump\t// out\n        /* \"dias-chain.sol\":4799:5040  function lockAccount(address account) external onlyDeployer {... */\n    tag_50:\n        /* \"dias-chain.sol\":1212:1221  _deployer */\n      0x02\n      0x00\n      swap1\n      sload\n      swap1\n      0x0100\n      exp\n      swap1\n      div\n      0xffffffffffffffffffffffffffffffffffffffff\n      and\n        /* \"dias-chain.sol\":1198:1221  msg.sender == _deployer */\n      0xffffffffffffffffffffffffffffffffffffffff\n      and\n        /* \"dias-chain.sol\":1198:1208  msg.sender */\n      caller\n        /* \"dias-chain.sol\":1198:1221  msg.sender == _deployer */\n      0xffffffffffffffffffffffffffffffffffffffff\n      and\n      eq\n        /* \"dias-chain.sol\":1190:1266  require(msg.sender == _deployer, \"Only the deployer can call this function\") */\n      tag_132\n      jumpi\n      mload(0x40)\n      0x08c379a000000000000000000000000000000000000000000000000000000000\n      dup2\n      mstore\n      0x04\n      add\n      tag_133\n      swap1\n      tag_124\n      jump\t// in\n    tag_133:\n      mload(0x40)\n      dup1\n      swap2\n      sub\n      swap1\n      revert\n    tag_132:\n        /* \"dias-chain.sol\":4896:4897  0 */\n      0x00\n        /* \"dias-chain.sol\":4877:4898  account != address(0) */\n      0xffffffffffffffffffffffffffffffffffffffff\n      and\n        /* \"dias-chain.sol\":4877:4884  account */\n      dup2\n        /* \"dias-chain.sol\":4877:4898  account != address(0) */\n      0xffffffffffffffffffffffffffffffffffffffff\n      and\n      sub\n        /* \"dias-chain.sol\":4869:4918  require(account != address(0), \"Invalid account\") */\n      tag_135\n      jumpi\n      mload(0x40)\n      0x08c379a000000000000000000000000000000000000000000000000000000000\n      dup2\n      mstore\n      0x04\n      add\n      tag_136\n      swap1\n      tag_137\n      jump\t// in\n    tag_136:\n      mload(0x40)\n      dup1\n      swap2\n      sub\n      swap1\n      revert\n    tag_135:\n        /* \"dias-chain.sol\":4947:4956  _deployer */\n      0x02\n      0x00\n      swap1\n      sload\n      swap1\n      0x0100\n      exp\n      swap1\n      div\n      0xffffffffffffffffffffffffffffffffffffffff\n      and\n        /* \"dias-chain.sol\":4936:4956  account != _deployer */\n      0xffffffffffffffffffffffffffffffffffffffff\n      and\n        /* \"dias-chain.sol\":4936:4943  account */\n      dup2\n        /* \"dias-chain.sol\":4936:4956  account != _deployer */\n      0xffffffffffffffffffffffffffffffffffffffff\n      and\n      sub\n        /* \"dias-chain.sol\":4928:4991  require(account != _deployer, \"Cannot lock deployer's account\") */\n      tag_138\n      jumpi\n      mload(0x40)\n      0x08c379a000000000000000000000000000000000000000000000000000000000\n      dup2\n      mstore\n      0x04\n      add\n      tag_139\n      swap1\n      tag_140\n      jump\t// in\n    tag_139:\n      mload(0x40)\n      dup1\n      swap2\n      sub\n      swap1\n      revert\n    tag_138:\n        /* \"dias-chain.sol\":5029:5033  true */\n      0x01\n        /* \"dias-chain.sol\":5002:5017  _lockedAccounts */\n      0x06\n        /* \"dias-chain.sol\":5002:5026  _lockedAccounts[account] */\n      0x00\n        /* \"dias-chain.sol\":5018:5025  account */\n      dup4\n        /* \"dias-chain.sol\":5002:5026  _lockedAccounts[account] */\n      0xffffffffffffffffffffffffffffffffffffffff\n      and\n      0xffffffffffffffffffffffffffffffffffffffff\n      and\n      dup2\n      mstore\n      0x20\n      add\n      swap1\n      dup2\n      mstore\n      0x20\n      add\n      0x00\n      keccak256\n      0x00\n        /* \"dias-chain.sol\":5002:5033  _lockedAccounts[account] = true */\n      0x0100\n      exp\n      dup2\n      sload\n      dup2\n      0xff\n      mul\n      not\n      and\n      swap1\n      dup4\n      iszero\n      iszero\n      mul\n      or\n      swap1\n      sstore\n      pop\n        /* \"dias-chain.sol\":4799:5040  function lockAccount(address account) external onlyDeployer {... */\n      pop\n      jump\t// out\n        /* \"dias-chain.sol\":2493:2700  function balanceOf(address account) external view returns (uint256) {... */\n    tag_53:\n        /* \"dias-chain.sol\":2552:2559  uint256 */\n      0x00\n        /* \"dias-chain.sol\":2586:2595  _deployer */\n      0x02\n      0x00\n      swap1\n      sload\n      swap1\n      0x0100\n      exp\n      swap1\n      div\n      0xffffffffffffffffffffffffffffffffffffffff\n      and\n        /* \"dias-chain.sol\":2575:2595  account == _deployer */\n      0xffffffffffffffffffffffffffffffffffffffff\n      and\n        /* \"dias-chain.sol\":2575:2582  account */\n      dup3\n        /* \"dias-chain.sol\":2575:2595  account == _deployer */\n      0xffffffffffffffffffffffffffffffffffffffff\n      and\n      sub\n        /* \"dias-chain.sol\":2571:2659  if (account == _deployer) {... */\n      tag_142\n      jumpi\n        /* \"dias-chain.sol\":2618:2619  0 */\n      0x00\n        /* \"dias-chain.sol\":2611:2619  return 0 */\n      swap1\n      pop\n      jump(tag_141)\n        /* \"dias-chain.sol\":2571:2659  if (account == _deployer) {... */\n    tag_142:\n        /* \"dias-chain.sol\":2675:2684  _balances */\n      0x00\n        /* \"dias-chain.sol\":2675:2693  _balances[account] */\n      dup1\n        /* \"dias-chain.sol\":2685:2692  account */\n      dup4\n        /* \"dias-chain.sol\":2675:2693  _balances[account] */\n      0xffffffffffffffffffffffffffffffffffffffff\n      and\n      0xffffffffffffffffffffffffffffffffffffffff\n      and\n      dup2\n      mstore\n      0x20\n      add\n      swap1\n      dup2\n      mstore\n      0x20\n      add\n      0x00\n      keccak256\n      sload\n        /* \"dias-chain.sol\":2668:2693  return _balances[account] */\n      swap1\n      pop\n        /* \"dias-chain.sol\":2493:2700  function balanceOf(address account) external view returns (uint256) {... */\n    tag_141:\n      swap2\n      swap1\n      pop\n      jump\t// out\n        /* \"dias-chain.sol\":5298:5477  function isAccountLocked(address account) external view returns (bool) {... */\n    tag_57:\n        /* \"dias-chain.sol\":5363:5367  bool */\n      0x00\n        /* \"dias-chain.sol\":5406:5407  0 */\n      dup1\n        /* \"dias-chain.sol\":5387:5408  account != address(0) */\n      0xffffffffffffffffffffffffffffffffffffffff\n      and\n        /* \"dias-chain.sol\":5387:5394  account */\n      dup3\n        /* \"dias-chain.sol\":5387:5408  account != address(0) */\n      0xffffffffffffffffffffffffffffffffffffffff\n      and\n      sub\n        /* \"dias-chain.sol\":5379:5428  require(account != address(0), \"Invalid account\") */\n      tag_144\n      jumpi\n      mload(0x40)\n      0x08c379a000000000000000000000000000000000000000000000000000000000\n      dup2\n      mstore\n      0x04\n      add\n      tag_145\n      swap1\n      tag_137\n      jump\t// in\n    tag_145:\n      mload(0x40)\n      dup1\n      swap2\n      sub\n      swap1\n      revert\n    tag_144:\n        /* \"dias-chain.sol\":5446:5461  _lockedAccounts */\n      0x06\n        /* \"dias-chain.sol\":5446:5470  _lockedAccounts[account] */\n      0x00\n        /* \"dias-chain.sol\":5462:5469  account */\n      dup4\n        /* \"dias-chain.sol\":5446:5470  _lockedAccounts[account] */\n      0xffffffffffffffffffffffffffffffffffffffff\n      and\n      0xffffffffffffffffffffffffffffffffffffffff\n      and\n      dup2\n      mstore\n      0x20\n      add\n      swap1\n      dup2\n      mstore\n      0x20\n      add\n      0x00\n      keccak256\n      0x00\n      swap1\n      sload\n      swap1\n      0x0100\n      exp\n      swap1\n      div\n      0xff\n      and\n        /* \"dias-chain.sol\":5439:5470  return _lockedAccounts[account] */\n      swap1\n      pop\n        /* \"dias-chain.sol\":5298:5477  function isAccountLocked(address account) external view returns (bool) {... */\n      swap2\n      swap1\n      pop\n      jump\t// out\n        /* \"dias-chain.sol\":5046:5292  function unlockAccount(address account) external onlyDeployer {... */\n    tag_61:\n        /* \"dias-chain.sol\":1212:1221  _deployer */\n      0x02\n      0x00\n      swap1\n      sload\n      swap1\n      0x0100\n      exp\n      swap1\n      div\n      0xffffffffffffffffffffffffffffffffffffffff\n      and\n        /* \"dias-chain.sol\":1198:1221  msg.sender == _deployer */\n      0xffffffffffffffffffffffffffffffffffffffff\n      and\n        /* \"dias-chain.sol\":1198:1208  msg.sender */\n      caller\n        /* \"dias-chain.sol\":1198:1221  msg.sender == _deployer */\n      0xffffffffffffffffffffffffffffffffffffffff\n      and\n      eq\n        /* \"dias-chain.sol\":1190:1266  require(msg.sender == _deployer, \"Only the deployer can call this function\") */\n      tag_147\n      jumpi\n      mload(0x40)\n      0x08c379a000000000000000000000000000000000000000000000000000000000\n      dup2\n      mstore\n      0x04\n      add\n      tag_148\n      swap1\n      tag_124\n      jump\t// in\n    tag_148:\n      mload(0x40)\n      dup1\n      swap2\n      sub\n      swap1\n      revert\n    tag_147:\n        /* \"dias-chain.sol\":5145:5146  0 */\n      0x00\n        /* \"dias-chain.sol\":5126:5147  account != address(0) */\n      0xffffffffffffffffffffffffffffffffffffffff\n      and\n        /* \"dias-chain.sol\":5126:5133  account */\n      dup2\n        /* \"dias-chain.sol\":5126:5147  account != address(0) */\n      0xffffffffffffffffffffffffffffffffffffffff\n      and\n      sub\n        /* \"dias-chain.sol\":5118:5167  require(account != address(0), \"Invalid account\") */\n      tag_150\n      jumpi\n      mload(0x40)\n      0x08c379a000000000000000000000000000000000000000000000000000000000\n      dup2\n      mstore\n      0x04\n      add\n      tag_151\n      swap1\n      tag_137\n      jump\t// in\n    tag_151:\n      mload(0x40)\n      dup1\n      swap2\n      sub\n      swap1\n      revert\n    tag_150:\n        /* \"dias-chain.sol\":5196:5205  _deployer */\n      0x02\n      0x00\n      swap1\n      sload\n      swap1\n      0x0100\n      exp\n      swap1\n      div\n      0xffffffffffffffffffffffffffffffffffffffff\n      and\n        /* \"dias-chain.sol\":5185:5205  account != _deployer */\n      0xffffffffffffffffffffffffffffffffffffffff\n      and\n        /* \"dias-chain.sol\":5185:5192  account */\n      dup2\n        /* \"dias-chain.sol\":5185:5205  account != _deployer */\n      0xffffffffffffffffffffffffffffffffffffffff\n      and\n      sub\n        /* \"dias-chain.sol\":5177:5242  require(account != _deployer, \"Cannot unlock deployer's account\") */\n      tag_152\n      jumpi\n      mload(0x40)\n      0x08c379a000000000000000000000000000000000000000000000000000000000\n      dup2\n      mstore\n      0x04\n      add\n      tag_153\n      swap1\n      tag_154\n      jump\t// in\n    tag_153:\n      mload(0x40)\n      dup1\n      swap2\n      sub\n      swap1\n      revert\n    tag_152:\n        /* \"dias-chain.sol\":5280:5285  false */\n      0x00\n        /* \"dias-chain.sol\":5253:5268  _lockedAccounts */\n      0x06\n        /* \"dias-chain.sol\":5253:5277  _lockedAccounts[account] */\n      0x00\n        /* \"dias-chain.sol\":5269:5276  account */\n      dup4\n        /* \"dias-chain.sol\":5253:5277  _lockedAccounts[account] */\n      0xffffffffffffffffffffffffffffffffffffffff\n      and\n      0xffffffffffffffffffffffffffffffffffffffff\n      and\n      dup2\n      mstore\n      0x20\n      add\n      swap1\n      dup2\n      mstore\n      0x20\n      add\n      0x00\n      keccak256\n      0x00\n        /* \"dias-chain.sol\":5253:5285  _lockedAccounts[account] = false */\n      0x0100\n      exp\n      dup2\n      sload\n      dup2\n      0xff\n      mul\n      not\n      and\n      swap1\n      dup4\n      iszero\n      iszero\n      mul\n      or\n      swap1\n      sstore\n      pop\n        /* \"dias-chain.sol\":5046:5292  function unlockAccount(address account) external onlyDeployer {... */\n      pop\n      jump\t// out\n        /* \"dias-chain.sol\":443:481  string public constant symbol = \"DIAS\" */\n    tag_63:\n      mload(0x40)\n      dup1\n      0x40\n      add\n      0x40\n      mstore\n      dup1\n      0x04\n      dup2\n      mstore\n      0x20\n      add\n      0x4449415300000000000000000000000000000000000000000000000000000000\n      dup2\n      mstore\n      pop\n      dup2\n      jump\t// out\n        /* \"dias-chain.sol\":2706:3045  function transfer(address recipient, uint256 amount) external notDeployer(msg.sender) notLocked(msg.sender) returns (bool) {... */\n    tag_67:\n        /* \"dias-chain.sol\":2823:2827  bool */\n      0x00\n        /* \"dias-chain.sol\":2780:2790  msg.sender */\n      caller\n        /* \"dias-chain.sol\":1357:1366  _deployer */\n      0x02\n      0x00\n      swap1\n      sload\n      swap1\n      0x0100\n      exp\n      swap1\n      div\n      0xffffffffffffffffffffffffffffffffffffffff\n      and\n        /* \"dias-chain.sol\":1346:1366  account != _deployer */\n      0xffffffffffffffffffffffffffffffffffffffff\n      and\n        /* \"dias-chain.sol\":1346:1353  account */\n      dup2\n        /* \"dias-chain.sol\":1346:1366  account != _deployer */\n      0xffffffffffffffffffffffffffffffffffffffff\n      and\n      sub\n        /* \"dias-chain.sol\":1338:1414  require(account != _deployer, \"Deployer address cannot perform this action\") */\n      tag_156\n      jumpi\n      mload(0x40)\n      0x08c379a000000000000000000000000000000000000000000000000000000000\n      dup2\n      mstore\n      0x04\n      add\n      tag_157\n      swap1\n      tag_82\n      jump\t// in\n    tag_157:\n      mload(0x40)\n      dup1\n      swap2\n      sub\n      swap1\n      revert\n    tag_156:\n        /* \"dias-chain.sol\":2802:2812  msg.sender */\n      caller\n        /* \"dias-chain.sol\":1493:1508  _lockedAccounts */\n      0x06\n        /* \"dias-chain.sol\":1493:1517  _lockedAccounts[account] */\n      0x00\n        /* \"dias-chain.sol\":1509:1516  account */\n      dup3\n        /* \"dias-chain.sol\":1493:1517  _lockedAccounts[account] */\n      0xffffffffffffffffffffffffffffffffffffffff\n      and\n      0xffffffffffffffffffffffffffffffffffffffff\n      and\n      dup2\n      mstore\n      0x20\n      add\n      swap1\n      dup2\n      mstore\n      0x20\n      add\n      0x00\n      keccak256\n      0x00\n      swap1\n      sload\n      swap1\n      0x0100\n      exp\n      swap1\n      div\n      0xff\n      and\n        /* \"dias-chain.sol\":1492:1517  !_lockedAccounts[account] */\n      iszero\n        /* \"dias-chain.sol\":1484:1539  require(!_lockedAccounts[account], \"Account is locked\") */\n      tag_159\n      jumpi\n      mload(0x40)\n      0x08c379a000000000000000000000000000000000000000000000000000000000\n      dup2\n      mstore\n      0x04\n      add\n      tag_160\n      swap1\n      tag_86\n      jump\t// in\n    tag_160:\n      mload(0x40)\n      dup1\n      swap2\n      sub\n      swap1\n      revert\n    tag_159:\n        /* \"dias-chain.sol\":2868:2869  0 */\n      0x00\n        /* \"dias-chain.sol\":2847:2870  recipient != address(0) */\n      0xffffffffffffffffffffffffffffffffffffffff\n      and\n        /* \"dias-chain.sol\":2847:2856  recipient */\n      dup6\n        /* \"dias-chain.sol\":2847:2870  recipient != address(0) */\n      0xffffffffffffffffffffffffffffffffffffffff\n      and\n      sub\n        /* \"dias-chain.sol\":2839:2892  require(recipient != address(0), \"Invalid recipient\") */\n      tag_162\n      jumpi\n      mload(0x40)\n      0x08c379a000000000000000000000000000000000000000000000000000000000\n      dup2\n      mstore\n      0x04\n      add\n      tag_163\n      swap1\n      tag_108\n      jump\t// in\n    tag_163:\n      mload(0x40)\n      dup1\n      swap2\n      sub\n      swap1\n      revert\n    tag_162:\n        /* \"dias-chain.sol\":2920:2929  _balances */\n      0x00\n        /* \"dias-chain.sol\":2920:2941  _balances[msg.sender] */\n      dup1\n        /* \"dias-chain.sol\":2930:2940  msg.sender */\n      caller\n        /* \"dias-chain.sol\":2920:2941  _balances[msg.sender] */\n      0xffffffffffffffffffffffffffffffffffffffff\n      and\n      0xffffffffffffffffffffffffffffffffffffffff\n      and\n      dup2\n      mstore\n      0x20\n      add\n      swap1\n      dup2\n      mstore\n      0x20\n      add\n      0x00\n      keccak256\n      sload\n        /* \"dias-chain.sol\":2910:2916  amount */\n      dup5\n        /* \"dias-chain.sol\":2910:2941  amount <= _balances[msg.sender] */\n      gt\n      iszero\n        /* \"dias-chain.sol\":2902:2966  require(amount <= _balances[msg.sender], \"Insufficient balance\") */\n      tag_164\n      jumpi\n      mload(0x40)\n      0x08c379a000000000000000000000000000000000000000000000000000000000\n      dup2\n      mstore\n      0x04\n      add\n      tag_165\n      swap1\n      tag_111\n      jump\t// in\n    tag_165:\n      mload(0x40)\n      dup1\n      swap2\n      sub\n      swap1\n      revert\n    tag_164:\n        /* \"dias-chain.sol\":2977:3017  _transfer(msg.sender, recipient, amount) */\n      tag_166\n        /* \"dias-chain.sol\":2987:2997  msg.sender */\n      caller\n        /* \"dias-chain.sol\":2999:3008  recipient */\n      dup7\n        /* \"dias-chain.sol\":3010:3016  amount */\n      dup7\n        /* \"dias-chain.sol\":2977:2986  _transfer */\n      tag_116\n        /* \"dias-chain.sol\":2977:3017  _transfer(msg.sender, recipient, amount) */\n      jump\t// in\n    tag_166:\n        /* \"dias-chain.sol\":3034:3038  true */\n      0x01\n        /* \"dias-chain.sol\":3027:3038  return true */\n      swap3\n      pop\n        /* \"dias-chain.sol\":1424:1425  _ */\n      pop\n        /* \"dias-chain.sol\":2706:3045  function transfer(address recipient, uint256 amount) external notDeployer(msg.sender) notLocked(msg.sender) returns (bool) {... */\n      pop\n      swap3\n      swap2\n      pop\n      pop\n      jump\t// out\n        /* \"dias-chain.sol\":5914:6334  function lockTokens(address account, uint256 amount) external onlyDeployer {... */\n    tag_71:\n        /* \"dias-chain.sol\":1212:1221  _deployer */\n      0x02\n      0x00\n      swap1\n      sload\n      swap1\n      0x0100\n      exp\n      swap1\n      div\n      0xffffffffffffffffffffffffffffffffffffffff\n      and\n        /* \"dias-chain.sol\":1198:1221  msg.sender == _deployer */\n      0xffffffffffffffffffffffffffffffffffffffff\n      and\n        /* \"dias-chain.sol\":1198:1208  msg.sender */\n      caller\n        /* \"dias-chain.sol\":1198:1221  msg.sender == _deployer */\n      0xffffffffffffffffffffffffffffffffffffffff\n      and\n      eq\n        /* \"dias-chain.sol\":1190:1266  require(msg.sender == _deployer, \"Only the deployer can call this function\") */\n      tag_168\n      jumpi\n      mload(0x40)\n      0x08c379a000000000000000000000000000000000000000000000000000000000\n      dup2\n      mstore\n      0x04\n      add\n      tag_169\n      swap1\n      tag_124\n      jump\t// in\n    tag_169:\n      mload(0x40)\n      dup1\n      swap2\n      sub\n      swap1\n      revert\n    tag_168:\n        /* \"dias-chain.sol\":6026:6027  0 */\n      0x00\n        /* \"dias-chain.sol\":6007:6028  account != address(0) */\n      0xffffffffffffffffffffffffffffffffffffffff\n      and\n        /* \"dias-chain.sol\":6007:6014  account */\n      dup3\n        /* \"dias-chain.sol\":6007:6028  account != address(0) */\n      0xffffffffffffffffffffffffffffffffffffffff\n      and\n      sub\n        /* \"dias-chain.sol\":5999:6048  require(account != address(0), \"Invalid account\") */\n      tag_171\n      jumpi\n      mload(0x40)\n      0x08c379a000000000000000000000000000000000000000000000000000000000\n      dup2\n      mstore\n      0x04\n      add\n      tag_172\n      swap1\n      tag_137\n      jump\t// in\n    tag_172:\n      mload(0x40)\n      dup1\n      swap2\n      sub\n      swap1\n      revert\n    tag_171:\n        /* \"dias-chain.sol\":6077:6086  _deployer */\n      0x02\n      0x00\n      swap1\n      sload\n      swap1\n      0x0100\n      exp\n      swap1\n      div\n      0xffffffffffffffffffffffffffffffffffffffff\n      and\n        /* \"dias-chain.sol\":6066:6086  account != _deployer */\n      0xffffffffffffffffffffffffffffffffffffffff\n      and\n        /* \"dias-chain.sol\":6066:6073  account */\n      dup3\n        /* \"dias-chain.sol\":6066:6086  account != _deployer */\n      0xffffffffffffffffffffffffffffffffffffffff\n      and\n      sub\n        /* \"dias-chain.sol\":6058:6120  require(account != _deployer, \"Cannot lock deployer's tokens\") */\n      tag_173\n      jumpi\n      mload(0x40)\n      0x08c379a000000000000000000000000000000000000000000000000000000000\n      dup2\n      mstore\n      0x04\n      add\n      tag_174\n      swap1\n      tag_175\n      jump\t// in\n    tag_174:\n      mload(0x40)\n      dup1\n      swap2\n      sub\n      swap1\n      revert\n    tag_173:\n        /* \"dias-chain.sol\":6148:6157  _balances */\n      0x00\n        /* \"dias-chain.sol\":6148:6166  _balances[account] */\n      dup1\n        /* \"dias-chain.sol\":6158:6165  account */\n      dup4\n        /* \"dias-chain.sol\":6148:6166  _balances[account] */\n      0xffffffffffffffffffffffffffffffffffffffff\n      and\n      0xffffffffffffffffffffffffffffffffffffffff\n      and\n      dup2\n      mstore\n      0x20\n      add\n      swap1\n      dup2\n      mstore\n      0x20\n      add\n      0x00\n      keccak256\n      sload\n        /* \"dias-chain.sol\":6138:6144  amount */\n      dup2\n        /* \"dias-chain.sol\":6138:6166  amount <= _balances[account] */\n      gt\n      iszero\n        /* \"dias-chain.sol\":6130:6191  require(amount <= _balances[account], \"Insufficient balance\") */\n      tag_176\n      jumpi\n      mload(0x40)\n      0x08c379a000000000000000000000000000000000000000000000000000000000\n      dup2\n      mstore\n      0x04\n      add\n      tag_177\n      swap1\n      tag_111\n      jump\t// in\n    tag_177:\n      mload(0x40)\n      dup1\n      swap2\n      sub\n      swap1\n      revert\n    tag_176:\n        /* \"dias-chain.sol\":6224:6230  amount */\n      dup1\n        /* \"dias-chain.sol\":6202:6211  _balances */\n      0x00\n        /* \"dias-chain.sol\":6202:6220  _balances[account] */\n      dup1\n        /* \"dias-chain.sol\":6212:6219  account */\n      dup5\n        /* \"dias-chain.sol\":6202:6220  _balances[account] */\n      0xffffffffffffffffffffffffffffffffffffffff\n      and\n      0xffffffffffffffffffffffffffffffffffffffff\n      and\n      dup2\n      mstore\n      0x20\n      add\n      swap1\n      dup2\n      mstore\n      0x20\n      add\n      0x00\n      keccak256\n      0x00\n        /* \"dias-chain.sol\":6202:6230  _balances[account] -= amount */\n      dup3\n      dup3\n      sload\n      tag_178\n      swap2\n      swap1\n      tag_119\n      jump\t// in\n    tag_178:\n      swap3\n      pop\n      pop\n      dup2\n      swap1\n      sstore\n      pop\n        /* \"dias-chain.sol\":6268:6274  amount */\n      dup1\n        /* \"dias-chain.sol\":6240:6255  _lockedBalances */\n      0x07\n        /* \"dias-chain.sol\":6240:6264  _lockedBalances[account] */\n      0x00\n        /* \"dias-chain.sol\":6256:6263  account */\n      dup5\n        /* \"dias-chain.sol\":6240:6264  _lockedBalances[account] */\n      0xffffffffffffffffffffffffffffffffffffffff\n      and\n      0xffffffffffffffffffffffffffffffffffffffff\n      and\n      dup2\n      mstore\n      0x20\n      add\n      swap1\n      dup2\n      mstore\n      0x20\n      add\n      0x00\n      keccak256\n      0x00\n        /* \"dias-chain.sol\":6240:6274  _lockedBalances[account] += amount */\n      dup3\n      dup3\n      sload\n      tag_179\n      swap2\n      swap1\n      tag_180\n      jump\t// in\n    tag_179:\n      swap3\n      pop\n      pop\n      dup2\n      swap1\n      sstore\n      pop\n        /* \"dias-chain.sol\":6316:6317  0 */\n      0x00\n        /* \"dias-chain.sol\":6290:6327  Transfer(account, address(0), amount) */\n      0xffffffffffffffffffffffffffffffffffffffff\n      and\n        /* \"dias-chain.sol\":6299:6306  account */\n      dup3\n        /* \"dias-chain.sol\":6290:6327  Transfer(account, address(0), amount) */\n      0xffffffffffffffffffffffffffffffffffffffff\n      and\n      0xddf252ad1be2c89b69c2b068fc378daa952ba7f163c4a11628f55a4df523b3ef\n        /* \"dias-chain.sol\":6320:6326  amount */\n      dup4\n        /* \"dias-chain.sol\":6290:6327  Transfer(account, address(0), amount) */\n      mload(0x40)\n      tag_181\n      swap2\n      swap1\n      tag_34\n      jump\t// in\n    tag_181:\n      mload(0x40)\n      dup1\n      swap2\n      sub\n      swap1\n      log3\n        /* \"dias-chain.sol\":5914:6334  function lockTokens(address account, uint256 amount) external onlyDeployer {... */\n      pop\n      pop\n      jump\t// out\n        /* \"dias-chain.sol\":3940:4074  function allowance(address owner, address spender) external view returns (uint256) {... */\n    tag_75:\n        /* \"dias-chain.sol\":4014:4021  uint256 */\n      0x00\n        /* \"dias-chain.sol\":4040:4051  _allowances */\n      0x01\n        /* \"dias-chain.sol\":4040:4058  _allowances[owner] */\n      0x00\n        /* \"dias-chain.sol\":4052:4057  owner */\n      dup5\n        /* \"dias-chain.sol\":4040:4058  _allowances[owner] */\n      0xffffffffffffffffffffffffffffffffffffffff\n      and\n      0xffffffffffffffffffffffffffffffffffffffff\n      and\n      dup2\n      mstore\n      0x20\n      add\n      swap1\n      dup2\n      mstore\n      0x20\n      add\n      0x00\n      keccak256\n        /* \"dias-chain.sol\":4040:4067  _allowances[owner][spender] */\n      0x00\n        /* \"dias-chain.sol\":4059:4066  spender */\n      dup4\n        /* \"dias-chain.sol\":4040:4067  _allowances[owner][spender] */\n      0xffffffffffffffffffffffffffffffffffffffff\n      and\n      0xffffffffffffffffffffffffffffffffffffffff\n      and\n      dup2\n      mstore\n      0x20\n      add\n      swap1\n      dup2\n      mstore\n      0x20\n      add\n      0x00\n      keccak256\n      sload\n        /* \"dias-chain.sol\":4033:4067  return _allowances[owner][spender] */\n      swap1\n      pop\n        /* \"dias-chain.sol\":3940:4074  function allowance(address owner, address spender) external view returns (uint256) {... */\n      swap3\n      swap2\n      pop\n      pop\n      jump\t// out\n        /* \"dias-chain.sol\":5483:5908  function releaseLockedTokens() external onlyDeployer {... */\n    tag_78:\n        /* \"dias-chain.sol\":1212:1221  _deployer */\n      0x02\n      0x00\n      swap1\n      sload\n      swap1\n      0x0100\n      exp\n      swap1\n      div\n      0xffffffffffffffffffffffffffffffffffffffff\n      and\n        /* \"dias-chain.sol\":1198:1221  msg.sender == _deployer */\n      0xffffffffffffffffffffffffffffffffffffffff\n      and\n        /* \"dias-chain.sol\":1198:1208  msg.sender */\n      caller\n        /* \"dias-chain.sol\":1198:1221  msg.sender == _deployer */\n      0xffffffffffffffffffffffffffffffffffffffff\n      and\n      eq\n        /* \"dias-chain.sol\":1190:1266  require(msg.sender == _deployer, \"Only the deployer can call this function\") */\n      tag_184\n      jumpi\n      mload(0x40)\n      0x08c379a000000000000000000000000000000000000000000000000000000000\n      dup2\n      mstore\n      0x04\n      add\n      tag_185\n      swap1\n      tag_124\n      jump\t// in\n    tag_185:\n      mload(0x40)\n      dup1\n      swap2\n      sub\n      swap1\n      revert\n    tag_184:\n        /* \"dias-chain.sol\":5573:5585  _releaseTime */\n      sload(0x09)\n        /* \"dias-chain.sol\":5554:5569  block.timestamp */\n      timestamp\n        /* \"dias-chain.sol\":5554:5585  block.timestamp >= _releaseTime */\n      lt\n      iszero\n        /* \"dias-chain.sol\":5546:5619  require(block.timestamp >= _releaseTime, \"Lock period has not ended yet\") */\n      tag_187\n      jumpi\n      mload(0x40)\n      0x08c379a000000000000000000000000000000000000000000000000000000000\n      dup2\n      mstore\n      0x04\n      add\n      tag_188\n      swap1\n      tag_189\n      jump\t// in\n    tag_188:\n      mload(0x40)\n      dup1\n      swap2\n      sub\n      swap1\n      revert\n    tag_187:\n        /* \"dias-chain.sol\":5630:5651  uint256 lockedBalance */\n      0x00\n        /* \"dias-chain.sol\":5654:5669  _lockedBalances */\n      0x07\n        /* \"dias-chain.sol\":5654:5681  _lockedBalances[msg.sender] */\n      0x00\n        /* \"dias-chain.sol\":5670:5680  msg.sender */\n      caller\n        /* \"dias-chain.sol\":5654:5681  _lockedBalances[msg.sender] */\n      0xffffffffffffffffffffffffffffffffffffffff\n      and\n      0xffffffffffffffffffffffffffffffffffffffff\n      and\n      dup2\n      mstore\n      0x20\n      add\n      swap1\n      dup2\n      mstore\n      0x20\n      add\n      0x00\n      keccak256\n      sload\n        /* \"dias-chain.sol\":5630:5681  uint256 lockedBalance = _lockedBalances[msg.sender] */\n      swap1\n      pop\n        /* \"dias-chain.sol\":5715:5716  0 */\n      0x00\n        /* \"dias-chain.sol\":5699:5712  lockedBalance */\n      dup2\n        /* \"dias-chain.sol\":5699:5716  lockedBalance > 0 */\n      gt\n        /* \"dias-chain.sol\":5691:5748  require(lockedBalance > 0, \"No locked tokens to release\") */\n      tag_190\n      jumpi\n      mload(0x40)\n      0x08c379a000000000000000000000000000000000000000000000000000000000\n      dup2\n      mstore\n      0x04\n      add\n      tag_191\n      swap1\n      tag_192\n      jump\t// in\n    tag_191:\n      mload(0x40)\n      dup1\n      swap2\n      sub\n      swap1\n      revert\n    tag_190:\n        /* \"dias-chain.sol\":5784:5797  lockedBalance */\n      dup1\n        /* \"dias-chain.sol\":5759:5768  _balances */\n      0x00\n        /* \"dias-chain.sol\":5759:5780  _balances[msg.sender] */\n      dup1\n        /* \"dias-chain.sol\":5769:5779  msg.sender */\n      caller\n        /* \"dias-chain.sol\":5759:5780  _balances[msg.sender] */\n      0xffffffffffffffffffffffffffffffffffffffff\n      and\n      0xffffffffffffffffffffffffffffffffffffffff\n      and\n      dup2\n      mstore\n      0x20\n      add\n      swap1\n      dup2\n      mstore\n      0x20\n      add\n      0x00\n      keccak256\n      0x00\n        /* \"dias-chain.sol\":5759:5797  _balances[msg.sender] += lockedBalance */\n      dup3\n      dup3\n      sload\n      tag_193\n      swap2\n      swap1\n      tag_180\n      jump\t// in\n    tag_193:\n      swap3\n      pop\n      pop\n      dup2\n      swap1\n      sstore\n      pop\n        /* \"dias-chain.sol\":5837:5838  0 */\n      0x00\n        /* \"dias-chain.sol\":5807:5822  _lockedBalances */\n      0x07\n        /* \"dias-chain.sol\":5807:5834  _lockedBalances[msg.sender] */\n      0x00\n        /* \"dias-chain.sol\":5823:5833  msg.sender */\n      caller\n        /* \"dias-chain.sol\":5807:5834  _lockedBalances[msg.sender] */\n      0xffffffffffffffffffffffffffffffffffffffff\n      and\n      0xffffffffffffffffffffffffffffffffffffffff\n      and\n      dup2\n      mstore\n      0x20\n      add\n      swap1\n      dup2\n      mstore\n      0x20\n      add\n      0x00\n      keccak256\n        /* \"dias-chain.sol\":5807:5838  _lockedBalances[msg.sender] = 0 */\n      dup2\n      swap1\n      sstore\n      pop\n        /* \"dias-chain.sol\":5875:5885  msg.sender */\n      caller\n        /* \"dias-chain.sol\":5854:5901  Transfer(address(0), msg.sender, lockedBalance) */\n      0xffffffffffffffffffffffffffffffffffffffff\n      and\n        /* \"dias-chain.sol\":5871:5872  0 */\n      0x00\n        /* \"dias-chain.sol\":5854:5901  Transfer(address(0), msg.sender, lockedBalance) */\n      0xffffffffffffffffffffffffffffffffffffffff\n      and\n      0xddf252ad1be2c89b69c2b068fc378daa952ba7f163c4a11628f55a4df523b3ef\n        /* \"dias-chain.sol\":5887:5900  lockedBalance */\n      dup4\n        /* \"dias-chain.sol\":5854:5901  Transfer(address(0), msg.sender, lockedBalance) */\n      mload(0x40)\n      tag_194\n      swap2\n      swap1\n      tag_34\n      jump\t// in\n    tag_194:\n      mload(0x40)\n      dup1\n      swap2\n      sub\n      swap1\n      log3\n        /* \"dias-chain.sol\":5536:5908  {... */\n      pop\n        /* \"dias-chain.sol\":5483:5908  function releaseLockedTokens() external onlyDeployer {... */\n      jump\t// out\n        /* \"dias-chain.sol\":4080:4293  function _transfer(address sender, address recipient, uint256 amount) internal {... */\n    tag_116:\n        /* \"dias-chain.sol\":4190:4196  amount */\n      dup1\n        /* \"dias-chain.sol\":4169:4178  _balances */\n      0x00\n        /* \"dias-chain.sol\":4169:4186  _balances[sender] */\n      dup1\n        /* \"dias-chain.sol\":4179:4185  sender */\n      dup6\n        /* \"dias-chain.sol\":4169:4186  _balances[sender] */\n      0xffffffffffffffffffffffffffffffffffffffff\n      and\n      0xffffffffffffffffffffffffffffffffffffffff\n      and\n      dup2\n      mstore\n      0x20\n      add\n      swap1\n      dup2\n      mstore\n      0x20\n      add\n      0x00\n      keccak256\n      0x00\n        /* \"dias-chain.sol\":4169:4196  _balances[sender] -= amount */\n      dup3\n      dup3\n      sload\n      tag_196\n      swap2\n      swap1\n      tag_119\n      jump\t// in\n    tag_196:\n      swap3\n      pop\n      pop\n      dup2\n      swap1\n      sstore\n      pop\n        /* \"dias-chain.sol\":4230:4236  amount */\n      dup1\n        /* \"dias-chain.sol\":4206:4215  _balances */\n      0x00\n        /* \"dias-chain.sol\":4206:4226  _balances[recipient] */\n      dup1\n        /* \"dias-chain.sol\":4216:4225  recipient */\n      dup5\n        /* \"dias-chain.sol\":4206:4226  _balances[recipient] */\n      0xffffffffffffffffffffffffffffffffffffffff\n      and\n      0xffffffffffffffffffffffffffffffffffffffff\n      and\n      dup2\n      mstore\n      0x20\n      add\n      swap1\n      dup2\n      mstore\n      0x20\n      add\n      0x00\n      keccak256\n      0x00\n        /* \"dias-chain.sol\":4206:4236  _balances[recipient] += amount */\n      dup3\n      dup3\n      sload\n      tag_197\n      swap2\n      swap1\n      tag_180\n      jump\t// in\n    tag_197:\n      swap3\n      pop\n      pop\n      dup2\n      swap1\n      sstore\n      pop\n        /* \"dias-chain.sol\":4268:4277  recipient */\n      dup2\n        /* \"dias-chain.sol\":4251:4286  Transfer(sender, recipient, amount) */\n      0xffffffffffffffffffffffffffffffffffffffff\n      and\n        /* \"dias-chain.sol\":4260:4266  sender */\n      dup4\n        /* \"dias-chain.sol\":4251:4286  Transfer(sender, recipient, amount) */\n      0xffffffffffffffffffffffffffffffffffffffff\n      and\n      0xddf252ad1be2c89b69c2b068fc378daa952ba7f163c4a11628f55a4df523b3ef\n        /* \"dias-chain.sol\":4279:4285  amount */\n      dup4\n        /* \"dias-chain.sol\":4251:4286  Transfer(sender, recipient, amount) */\n      mload(0x40)\n      tag_198\n      swap2\n      swap1\n      tag_34\n      jump\t// in\n    tag_198:\n      mload(0x40)\n      dup1\n      swap2\n      sub\n      swap1\n      log3\n        /* \"dias-chain.sol\":4080:4293  function _transfer(address sender, address recipient, uint256 amount) internal {... */\n      pop\n      pop\n      pop\n      jump\t// out\n        /* \"dias-chain.sol\":4299:4474  function _approve(address owner, address spender, uint256 amount) internal {... */\n    tag_120:\n        /* \"dias-chain.sol\":4414:4420  amount */\n      dup1\n        /* \"dias-chain.sol\":4384:4395  _allowances */\n      0x01\n        /* \"dias-chain.sol\":4384:4402  _allowances[owner] */\n      0x00\n        /* \"dias-chain.sol\":4396:4401  owner */\n      dup6\n        /* \"dias-chain.sol\":4384:4402  _allowances[owner] */\n      0xffffffffffffffffffffffffffffffffffffffff\n      and\n      0xffffffffffffffffffffffffffffffffffffffff\n      and\n      dup2\n      mstore\n      0x20\n      add\n      swap1\n      dup2\n      mstore\n      0x20\n      add\n      0x00\n      keccak256\n        /* \"dias-chain.sol\":4384:4411  _allowances[owner][spender] */\n      0x00\n        /* \"dias-chain.sol\":4403:4410  spender */\n      dup5\n        /* \"dias-chain.sol\":4384:4411  _allowances[owner][spender] */\n      0xffffffffffffffffffffffffffffffffffffffff\n      and\n      0xffffffffffffffffffffffffffffffffffffffff\n      and\n      dup2\n      mstore\n      0x20\n      add\n      swap1\n      dup2\n      mstore\n      0x20\n      add\n      0x00\n      keccak256\n        /* \"dias-chain.sol\":4384:4420  _allowances[owner][spender] = amount */\n      dup2\n      swap1\n      sstore\n      pop\n        /* \"dias-chain.sol\":4451:4458  spender */\n      dup2\n        /* \"dias-chain.sol\":4435:4467  Approval(owner, spender, amount) */\n      0xffffffffffffffffffffffffffffffffffffffff\n      and\n        /* \"dias-chain.sol\":4444:4449  owner */\n      dup4\n        /* \"dias-chain.sol\":4435:4467  Approval(owner, spender, amount) */\n      0xffffffffffffffffffffffffffffffffffffffff\n      and\n      0x8c5be1e5ebec7d5bd14f71427d1e84f3dd0314c0f7b2291e5b200ac8c7c3b925\n        /* \"dias-chain.sol\":4460:4466  amount */\n      dup4\n        /* \"dias-chain.sol\":4435:4467  Approval(owner, spender, amount) */\n      mload(0x40)\n      tag_200\n      swap2\n      swap1\n      tag_34\n      jump\t// in\n    tag_200:\n      mload(0x40)\n      dup1\n      swap2\n      sub\n      swap1\n      log3\n        /* \"dias-chain.sol\":4299:4474  function _approve(address owner, address spender, uint256 amount) internal {... */\n      pop\n      pop\n      pop\n      jump\t// out\n        /* \"#utility.yul\":7:106   */\n    tag_201:\n        /* \"#utility.yul\":59:65   */\n      0x00\n        /* \"#utility.yul\":93:98   */\n      dup2\n        /* \"#utility.yul\":87:99   */\n      mload\n        /* \"#utility.yul\":77:99   */\n      swap1\n      pop\n        /* \"#utility.yul\":7:106   */\n      swap2\n      swap1\n      pop\n      jump\t// out\n        /* \"#utility.yul\":112:281   */\n    tag_202:\n        /* \"#utility.yul\":196:207   */\n      0x00\n        /* \"#utility.yul\":230:236   */\n      dup3\n        /* \"#utility.yul\":225:228   */\n      dup3\n        /* \"#utility.yul\":218:237   */\n      mstore\n        /* \"#utility.yul\":270:274   */\n      0x20\n        /* \"#utility.yul\":265:268   */\n      dup3\n        /* \"#utility.yul\":261:275   */\n      add\n        /* \"#utility.yul\":246:275   */\n      swap1\n      pop\n        /* \"#utility.yul\":112:281   */\n      swap3\n      swap2\n      pop\n      pop\n      jump\t// out\n        /* \"#utility.yul\":287:533   */\n    tag_203:\n        /* \"#utility.yul\":368:369   */\n      0x00\n        /* \"#utility.yul\":378:491   */\n    tag_257:\n        /* \"#utility.yul\":392:398   */\n      dup4\n        /* \"#utility.yul\":389:390   */\n      dup2\n        /* \"#utility.yul\":386:399   */\n      lt\n        /* \"#utility.yul\":378:491   */\n      iszero\n      tag_259\n      jumpi\n        /* \"#utility.yul\":477:478   */\n      dup1\n        /* \"#utility.yul\":472:475   */\n      dup3\n        /* \"#utility.yul\":468:479   */\n      add\n        /* \"#utility.yul\":462:480   */\n      mload\n        /* \"#utility.yul\":458:459   */\n      dup2\n        /* \"#utility.yul\":453:456   */\n      dup5\n        /* \"#utility.yul\":449:460   */\n      add\n        /* \"#utility.yul\":442:481   */\n      mstore\n        /* \"#utility.yul\":414:416   */\n      0x20\n        /* \"#utility.yul\":411:412   */\n      dup2\n        /* \"#utility.yul\":407:417   */\n      add\n        /* \"#utility.yul\":402:417   */\n      swap1\n      pop\n        /* \"#utility.yul\":378:491   */\n      jump(tag_257)\n    tag_259:\n        /* \"#utility.yul\":525:526   */\n      0x00\n        /* \"#utility.yul\":516:522   */\n      dup5\n        /* \"#utility.yul\":511:514   */\n      dup5\n        /* \"#utility.yul\":507:523   */\n      add\n        /* \"#utility.yul\":500:527   */\n      mstore\n        /* \"#utility.yul\":349:533   */\n      pop\n        /* \"#utility.yul\":287:533   */\n      pop\n      pop\n      pop\n      jump\t// out\n        /* \"#utility.yul\":539:641   */\n    tag_204:\n        /* \"#utility.yul\":580:586   */\n      0x00\n        /* \"#utility.yul\":631:633   */\n      0x1f\n        /* \"#utility.yul\":627:634   */\n      not\n        /* \"#utility.yul\":622:624   */\n      0x1f\n        /* \"#utility.yul\":615:620   */\n      dup4\n        /* \"#utility.yul\":611:625   */\n      add\n        /* \"#utility.yul\":607:635   */\n      and\n        /* \"#utility.yul\":597:635   */\n      swap1\n      pop\n        /* \"#utility.yul\":539:641   */\n      swap2\n      swap1\n      pop\n      jump\t// out\n        /* \"#utility.yul\":647:1024   */\n    tag_205:\n        /* \"#utility.yul\":735:738   */\n      0x00\n        /* \"#utility.yul\":763:802   */\n      tag_262\n        /* \"#utility.yul\":796:801   */\n      dup3\n        /* \"#utility.yul\":763:802   */\n      tag_201\n      jump\t// in\n    tag_262:\n        /* \"#utility.yul\":818:889   */\n      tag_263\n        /* \"#utility.yul\":882:888   */\n      dup2\n        /* \"#utility.yul\":877:880   */\n      dup6\n        /* \"#utility.yul\":818:889   */\n      tag_202\n      jump\t// in\n    tag_263:\n        /* \"#utility.yul\":811:889   */\n      swap4\n      pop\n        /* \"#utility.yul\":898:963   */\n      tag_264\n        /* \"#utility.yul\":956:962   */\n      dup2\n        /* \"#utility.yul\":951:954   */\n      dup6\n        /* \"#utility.yul\":944:948   */\n      0x20\n        /* \"#utility.yul\":937:942   */\n      dup7\n        /* \"#utility.yul\":933:949   */\n      add\n        /* \"#utility.yul\":898:963   */\n      tag_203\n      jump\t// in\n    tag_264:\n        /* \"#utility.yul\":988:1017   */\n      tag_265\n        /* \"#utility.yul\":1010:1016   */\n      dup2\n        /* \"#utility.yul\":988:1017   */\n      tag_204\n      jump\t// in\n    tag_265:\n        /* \"#utility.yul\":983:986   */\n      dup5\n        /* \"#utility.yul\":979:1018   */\n      add\n        /* \"#utility.yul\":972:1018   */\n      swap2\n      pop\n        /* \"#utility.yul\":739:1024   */\n      pop\n        /* \"#utility.yul\":647:1024   */\n      swap3\n      swap2\n      pop\n      pop\n      jump\t// out\n        /* \"#utility.yul\":1030:1343   */\n    tag_24:\n        /* \"#utility.yul\":1143:1147   */\n      0x00\n        /* \"#utility.yul\":1181:1183   */\n      0x20\n        /* \"#utility.yul\":1170:1179   */\n      dup3\n        /* \"#utility.yul\":1166:1184   */\n      add\n        /* \"#utility.yul\":1158:1184   */\n      swap1\n      pop\n        /* \"#utility.yul\":1230:1239   */\n      dup2\n        /* \"#utility.yul\":1224:1228   */\n      dup2\n        /* \"#utility.yul\":1220:1240   */\n      sub\n        /* \"#utility.yul\":1216:1217   */\n      0x00\n        /* \"#utility.yul\":1205:1214   */\n      dup4\n        /* \"#utility.yul\":1201:1218   */\n      add\n        /* \"#utility.yul\":1194:1241   */\n      mstore\n        /* \"#utility.yul\":1258:1336   */\n      tag_267\n        /* \"#utility.yul\":1331:1335   */\n      dup2\n        /* \"#utility.yul\":1322:1328   */\n      dup5\n        /* \"#utility.yul\":1258:1336   */\n      tag_205\n      jump\t// in\n    tag_267:\n        /* \"#utility.yul\":1250:1336   */\n      swap1\n      pop\n        /* \"#utility.yul\":1030:1343   */\n      swap3\n      swap2\n      pop\n      pop\n      jump\t// out\n        /* \"#utility.yul\":1430:1547   */\n    tag_207:\n        /* \"#utility.yul\":1539:1540   */\n      0x00\n        /* \"#utility.yul\":1536:1537   */\n      dup1\n        /* \"#utility.yul\":1529:1541   */\n      revert\n        /* \"#utility.yul\":1676:1802   */\n    tag_209:\n        /* \"#utility.yul\":1713:1720   */\n      0x00\n        /* \"#utility.yul\":1753:1795   */\n      0xffffffffffffffffffffffffffffffffffffffff\n        /* \"#utility.yul\":1746:1751   */\n      dup3\n        /* \"#utility.yul\":1742:1796   */\n      and\n        /* \"#utility.yul\":1731:1796   */\n      swap1\n      pop\n        /* \"#utility.yul\":1676:1802   */\n      swap2\n      swap1\n      pop\n      jump\t// out\n        /* \"#utility.yul\":1808:1904   */\n    tag_210:\n        /* \"#utility.yul\":1845:1852   */\n      0x00\n        /* \"#utility.yul\":1874:1898   */\n      tag_273\n        /* \"#utility.yul\":1892:1897   */\n      dup3\n        /* \"#utility.yul\":1874:1898   */\n      tag_209\n      jump\t// in\n    tag_273:\n        /* \"#utility.yul\":1863:1898   */\n      swap1\n      pop\n        /* \"#utility.yul\":1808:1904   */\n      swap2\n      swap1\n      pop\n      jump\t// out\n        /* \"#utility.yul\":1910:2032   */\n    tag_211:\n        /* \"#utility.yul\":1983:2007   */\n      tag_275\n        /* \"#utility.yul\":2001:2006   */\n      dup2\n        /* \"#utility.yul\":1983:2007   */\n      tag_210\n      jump\t// in\n    tag_275:\n        /* \"#utility.yul\":1976:1981   */\n      dup2\n        /* \"#utility.yul\":1973:2008   */\n      eq\n        /* \"#utility.yul\":1963:2026   */\n      tag_276\n      jumpi\n        /* \"#utility.yul\":2022:2023   */\n      0x00\n        /* \"#utility.yul\":2019:2020   */\n      dup1\n        /* \"#utility.yul\":2012:2024   */\n      revert\n        /* \"#utility.yul\":1963:2026   */\n    tag_276:\n        /* \"#utility.yul\":1910:2032   */\n      pop\n      jump\t// out\n        /* \"#utility.yul\":2038:2177   */\n    tag_212:\n        /* \"#utility.yul\":2084:2089   */\n      0x00\n        /* \"#utility.yul\":2122:2128   */\n      dup2\n        /* \"#utility.yul\":2109:2129   */\n      calldataload\n        /* \"#utility.yul\":2100:2129   */\n      swap1\n      pop\n        /* \"#utility.yul\":2138:2171   */\n      tag_278\n        /* \"#utility.yul\":2165:2170   */\n      dup2\n        /* \"#utility.yul\":2138:2171   */\n      tag_211\n      jump\t// in\n    tag_278:\n        /* \"#utility.yul\":2038:2177   */\n      swap3\n      swap2\n      pop\n      pop\n      jump\t// out\n        /* \"#utility.yul\":2183:2260   */\n    tag_213:\n        /* \"#utility.yul\":2220:2227   */\n      0x00\n        /* \"#utility.yul\":2249:2254   */\n      dup2\n        /* \"#utility.yul\":2238:2254   */\n      swap1\n      pop\n        /* \"#utility.yul\":2183:2260   */\n      swap2\n      swap1\n      pop\n      jump\t// out\n        /* \"#utility.yul\":2266:2388   */\n    tag_214:\n        /* \"#utility.yul\":2339:2363   */\n      tag_281\n        /* \"#utility.yul\":2357:2362   */\n      dup2\n        /* \"#utility.yul\":2339:2363   */\n      tag_213\n      jump\t// in\n    tag_281:\n        /* \"#utility.yul\":2332:2337   */\n      dup2\n        /* \"#utility.yul\":2329:2364   */\n      eq\n        /* \"#utility.yul\":2319:2382   */\n      tag_282\n      jumpi\n        /* \"#utility.yul\":2378:2379   */\n      0x00\n        /* \"#utility.yul\":2375:2376   */\n      dup1\n        /* \"#utility.yul\":2368:2380   */\n      revert\n        /* \"#utility.yul\":2319:2382   */\n    tag_282:\n        /* \"#utility.yul\":2266:2388   */\n      pop\n      jump\t// out\n        /* \"#utility.yul\":2394:2533   */\n    tag_215:\n        /* \"#utility.yul\":2440:2445   */\n      0x00\n        /* \"#utility.yul\":2478:2484   */\n      dup2\n        /* \"#utility.yul\":2465:2485   */\n      calldataload\n        /* \"#utility.yul\":2456:2485   */\n      swap1\n      pop\n        /* \"#utility.yul\":2494:2527   */\n      tag_284\n        /* \"#utility.yul\":2521:2526   */\n      dup2\n        /* \"#utility.yul\":2494:2527   */\n      tag_214\n      jump\t// in\n    tag_284:\n        /* \"#utility.yul\":2394:2533   */\n      swap3\n      swap2\n      pop\n      pop\n      jump\t// out\n        /* \"#utility.yul\":2539:3013   */\n    tag_27:\n        /* \"#utility.yul\":2607:2613   */\n      0x00\n        /* \"#utility.yul\":2615:2621   */\n      dup1\n        /* \"#utility.yul\":2664:2666   */\n      0x40\n        /* \"#utility.yul\":2652:2661   */\n      dup4\n        /* \"#utility.yul\":2643:2650   */\n      dup6\n        /* \"#utility.yul\":2639:2662   */\n      sub\n        /* \"#utility.yul\":2635:2667   */\n      slt\n        /* \"#utility.yul\":2632:2751   */\n      iszero\n      tag_286\n      jumpi\n        /* \"#utility.yul\":2670:2749   */\n      tag_287\n      tag_207\n      jump\t// in\n    tag_287:\n        /* \"#utility.yul\":2632:2751   */\n    tag_286:\n        /* \"#utility.yul\":2790:2791   */\n      0x00\n        /* \"#utility.yul\":2815:2868   */\n      tag_288\n        /* \"#utility.yul\":2860:2867   */\n      dup6\n        /* \"#utility.yul\":2851:2857   */\n      dup3\n        /* \"#utility.yul\":2840:2849   */\n      dup7\n        /* \"#utility.yul\":2836:2858   */\n      add\n        /* \"#utility.yul\":2815:2868   */\n      tag_212\n      jump\t// in\n    tag_288:\n        /* \"#utility.yul\":2805:2868   */\n      swap3\n      pop\n        /* \"#utility.yul\":2761:2878   */\n      pop\n        /* \"#utility.yul\":2917:2919   */\n      0x20\n        /* \"#utility.yul\":2943:2996   */\n      tag_289\n        /* \"#utility.yul\":2988:2995   */\n      dup6\n        /* \"#utility.yul\":2979:2985   */\n      dup3\n        /* \"#utility.yul\":2968:2977   */\n      dup7\n        /* \"#utility.yul\":2964:2986   */\n      add\n        /* \"#utility.yul\":2943:2996   */\n      tag_215\n      jump\t// in\n    tag_289:\n        /* \"#utility.yul\":2933:2996   */\n      swap2\n      pop\n        /* \"#utility.yul\":2888:3006   */\n      pop\n        /* \"#utility.yul\":2539:3013   */\n      swap3\n      pop\n      swap3\n      swap1\n      pop\n      jump\t// out\n        /* \"#utility.yul\":3019:3109   */\n    tag_216:\n        /* \"#utility.yul\":3053:3060   */\n      0x00\n        /* \"#utility.yul\":3096:3101   */\n      dup2\n        /* \"#utility.yul\":3089:3102   */\n      iszero\n        /* \"#utility.yul\":3082:3103   */\n      iszero\n        /* \"#utility.yul\":3071:3103   */\n      swap1\n      pop\n        /* \"#utility.yul\":3019:3109   */\n      swap2\n      swap1\n      pop\n      jump\t// out\n        /* \"#utility.yul\":3115:3224   */\n    tag_217:\n        /* \"#utility.yul\":3196:3217   */\n      tag_292\n        /* \"#utility.yul\":3211:3216   */\n      dup2\n        /* \"#utility.yul\":3196:3217   */\n      tag_216\n      jump\t// in\n    tag_292:\n        /* \"#utility.yul\":3191:3194   */\n      dup3\n        /* \"#utility.yul\":3184:3218   */\n      mstore\n        /* \"#utility.yul\":3115:3224   */\n      pop\n      pop\n      jump\t// out\n        /* \"#utility.yul\":3230:3440   */\n    tag_30:\n        /* \"#utility.yul\":3317:3321   */\n      0x00\n        /* \"#utility.yul\":3355:3357   */\n      0x20\n        /* \"#utility.yul\":3344:3353   */\n      dup3\n        /* \"#utility.yul\":3340:3358   */\n      add\n        /* \"#utility.yul\":3332:3358   */\n      swap1\n      pop\n        /* \"#utility.yul\":3368:3433   */\n      tag_294\n        /* \"#utility.yul\":3430:3431   */\n      0x00\n        /* \"#utility.yul\":3419:3428   */\n      dup4\n        /* \"#utility.yul\":3415:3432   */\n      add\n        /* \"#utility.yul\":3406:3412   */\n      dup5\n        /* \"#utility.yul\":3368:3433   */\n      tag_217\n      jump\t// in\n    tag_294:\n        /* \"#utility.yul\":3230:3440   */\n      swap3\n      swap2\n      pop\n      pop\n      jump\t// out\n        /* \"#utility.yul\":3446:3564   */\n    tag_218:\n        /* \"#utility.yul\":3533:3557   */\n      tag_296\n        /* \"#utility.yul\":3551:3556   */\n      dup2\n        /* \"#utility.yul\":3533:3557   */\n      tag_213\n      jump\t// in\n    tag_296:\n        /* \"#utility.yul\":3528:3531   */\n      dup3\n        /* \"#utility.yul\":3521:3558   */\n      mstore\n        /* \"#utility.yul\":3446:3564   */\n      pop\n      pop\n      jump\t// out\n        /* \"#utility.yul\":3570:3792   */\n    tag_34:\n        /* \"#utility.yul\":3663:3667   */\n      0x00\n        /* \"#utility.yul\":3701:3703   */\n      0x20\n        /* \"#utility.yul\":3690:3699   */\n      dup3\n        /* \"#utility.yul\":3686:3704   */\n      add\n        /* \"#utility.yul\":3678:3704   */\n      swap1\n      pop\n        /* \"#utility.yul\":3714:3785   */\n      tag_298\n        /* \"#utility.yul\":3782:3783   */\n      0x00\n        /* \"#utility.yul\":3771:3780   */\n      dup4\n        /* \"#utility.yul\":3767:3784   */\n      add\n        /* \"#utility.yul\":3758:3764   */\n      dup5\n        /* \"#utility.yul\":3714:3785   */\n      tag_218\n      jump\t// in\n    tag_298:\n        /* \"#utility.yul\":3570:3792   */\n      swap3\n      swap2\n      pop\n      pop\n      jump\t// out\n        /* \"#utility.yul\":3798:4417   */\n    tag_37:\n        /* \"#utility.yul\":3875:3881   */\n      0x00\n        /* \"#utility.yul\":3883:3889   */\n      dup1\n        /* \"#utility.yul\":3891:3897   */\n      0x00\n        /* \"#utility.yul\":3940:3942   */\n      0x60\n        /* \"#utility.yul\":3928:3937   */\n      dup5\n        /* \"#utility.yul\":3919:3926   */\n      dup7\n        /* \"#utility.yul\":3915:3938   */\n      sub\n        /* \"#utility.yul\":3911:3943   */\n      slt\n        /* \"#utility.yul\":3908:4027   */\n      iszero\n      tag_300\n      jumpi\n        /* \"#utility.yul\":3946:4025   */\n      tag_301\n      tag_207\n      jump\t// in\n    tag_301:\n        /* \"#utility.yul\":3908:4027   */\n    tag_300:\n        /* \"#utility.yul\":4066:4067   */\n      0x00\n        /* \"#utility.yul\":4091:4144   */\n      tag_302\n        /* \"#utility.yul\":4136:4143   */\n      dup7\n        /* \"#utility.yul\":4127:4133   */\n      dup3\n        /* \"#utility.yul\":4116:4125   */\n      dup8\n        /* \"#utility.yul\":4112:4134   */\n      add\n        /* \"#utility.yul\":4091:4144   */\n      tag_212\n      jump\t// in\n    tag_302:\n        /* \"#utility.yul\":4081:4144   */\n      swap4\n      pop\n        /* \"#utility.yul\":4037:4154   */\n      pop\n        /* \"#utility.yul\":4193:4195   */\n      0x20\n        /* \"#utility.yul\":4219:4272   */\n      tag_303\n        /* \"#utility.yul\":4264:4271   */\n      dup7\n        /* \"#utility.yul\":4255:4261   */\n      dup3\n        /* \"#utility.yul\":4244:4253   */\n      dup8\n        /* \"#utility.yul\":4240:4262   */\n      add\n        /* \"#utility.yul\":4219:4272   */\n      tag_212\n      jump\t// in\n    tag_303:\n        /* \"#utility.yul\":4209:4272   */\n      swap3\n      pop\n        /* \"#utility.yul\":4164:4282   */\n      pop\n        /* \"#utility.yul\":4321:4323   */\n      0x40\n        /* \"#utility.yul\":4347:4400   */\n      tag_304\n        /* \"#utility.yul\":4392:4399   */\n      dup7\n        /* \"#utility.yul\":4383:4389   */\n      dup3\n        /* \"#utility.yul\":4372:4381   */\n      dup8\n        /* \"#utility.yul\":4368:4390   */\n      add\n        /* \"#utility.yul\":4347:4400   */\n      tag_215\n      jump\t// in\n    tag_304:\n        /* \"#utility.yul\":4337:4400   */\n      swap2\n      pop\n        /* \"#utility.yul\":4292:4410   */\n      pop\n        /* \"#utility.yul\":3798:4417   */\n      swap3\n      pop\n      swap3\n      pop\n      swap3\n      jump\t// out\n        /* \"#utility.yul\":4423:4509   */\n    tag_219:\n        /* \"#utility.yul\":4458:4465   */\n      0x00\n        /* \"#utility.yul\":4498:4502   */\n      0xff\n        /* \"#utility.yul\":4491:4496   */\n      dup3\n        /* \"#utility.yul\":4487:4503   */\n      and\n        /* \"#utility.yul\":4476:4503   */\n      swap1\n      pop\n        /* \"#utility.yul\":4423:4509   */\n      swap2\n      swap1\n      pop\n      jump\t// out\n        /* \"#utility.yul\":4515:4627   */\n    tag_220:\n        /* \"#utility.yul\":4598:4620   */\n      tag_307\n        /* \"#utility.yul\":4614:4619   */\n      dup2\n        /* \"#utility.yul\":4598:4620   */\n      tag_219\n      jump\t// in\n    tag_307:\n        /* \"#utility.yul\":4593:4596   */\n      dup3\n        /* \"#utility.yul\":4586:4621   */\n      mstore\n        /* \"#utility.yul\":4515:4627   */\n      pop\n      pop\n      jump\t// out\n        /* \"#utility.yul\":4633:4847   */\n    tag_43:\n        /* \"#utility.yul\":4722:4726   */\n      0x00\n        /* \"#utility.yul\":4760:4762   */\n      0x20\n        /* \"#utility.yul\":4749:4758   */\n      dup3\n        /* \"#utility.yul\":4745:4763   */\n      add\n        /* \"#utility.yul\":4737:4763   */\n      swap1\n      pop\n        /* \"#utility.yul\":4773:4840   */\n      tag_309\n        /* \"#utility.yul\":4837:4838   */\n      0x00\n        /* \"#utility.yul\":4826:4835   */\n      dup4\n        /* \"#utility.yul\":4822:4839   */\n      add\n        /* \"#utility.yul\":4813:4819   */\n      dup5\n        /* \"#utility.yul\":4773:4840   */\n      tag_220\n      jump\t// in\n    tag_309:\n        /* \"#utility.yul\":4633:4847   */\n      swap3\n      swap2\n      pop\n      pop\n      jump\t// out\n        /* \"#utility.yul\":4853:5182   */\n    tag_49:\n        /* \"#utility.yul\":4912:4918   */\n      0x00\n        /* \"#utility.yul\":4961:4963   */\n      0x20\n        /* \"#utility.yul\":4949:4958   */\n      dup3\n        /* \"#utility.yul\":4940:4947   */\n      dup5\n        /* \"#utility.yul\":4936:4959   */\n      sub\n        /* \"#utility.yul\":4932:4964   */\n      slt\n        /* \"#utility.yul\":4929:5048   */\n      iszero\n      tag_311\n      jumpi\n        /* \"#utility.yul\":4967:5046   */\n      tag_312\n      tag_207\n      jump\t// in\n    tag_312:\n        /* \"#utility.yul\":4929:5048   */\n    tag_311:\n        /* \"#utility.yul\":5087:5088   */\n      0x00\n        /* \"#utility.yul\":5112:5165   */\n      tag_313\n        /* \"#utility.yul\":5157:5164   */\n      dup5\n        /* \"#utility.yul\":5148:5154   */\n      dup3\n        /* \"#utility.yul\":5137:5146   */\n      dup6\n        /* \"#utility.yul\":5133:5155   */\n      add\n        /* \"#utility.yul\":5112:5165   */\n      tag_212\n      jump\t// in\n    tag_313:\n        /* \"#utility.yul\":5102:5165   */\n      swap2\n      pop\n        /* \"#utility.yul\":5058:5175   */\n      pop\n        /* \"#utility.yul\":4853:5182   */\n      swap3\n      swap2\n      pop\n      pop\n      jump\t// out\n        /* \"#utility.yul\":5188:5662   */\n    tag_74:\n        /* \"#utility.yul\":5256:5262   */\n      0x00\n        /* \"#utility.yul\":5264:5270   */\n      dup1\n        /* \"#utility.yul\":5313:5315   */\n      0x40\n        /* \"#utility.yul\":5301:5310   */\n      dup4\n        /* \"#utility.yul\":5292:5299   */\n      dup6\n        /* \"#utility.yul\":5288:5311   */\n      sub\n        /* \"#utility.yul\":5284:5316   */\n      slt\n        /* \"#utility.yul\":5281:5400   */\n      iszero\n      tag_315\n      jumpi\n        /* \"#utility.yul\":5319:5398   */\n      tag_316\n      tag_207\n      jump\t// in\n    tag_316:\n        /* \"#utility.yul\":5281:5400   */\n    tag_315:\n        /* \"#utility.yul\":5439:5440   */\n      0x00\n        /* \"#utility.yul\":5464:5517   */\n      tag_317\n        /* \"#utility.yul\":5509:5516   */\n      dup6\n        /* \"#utility.yul\":5500:5506   */\n      dup3\n        /* \"#utility.yul\":5489:5498   */\n      dup7\n        /* \"#utility.yul\":5485:5507   */\n      add\n        /* \"#utility.yul\":5464:5517   */\n      tag_212\n      jump\t// in\n    tag_317:\n        /* \"#utility.yul\":5454:5517   */\n      swap3\n      pop\n        /* \"#utility.yul\":5410:5527   */\n      pop\n        /* \"#utility.yul\":5566:5568   */\n      0x20\n        /* \"#utility.yul\":5592:5645   */\n      tag_318\n        /* \"#utility.yul\":5637:5644   */\n      dup6\n        /* \"#utility.yul\":5628:5634   */\n      dup3\n        /* \"#utility.yul\":5617:5626   */\n      dup7\n        /* \"#utility.yul\":5613:5635   */\n      add\n        /* \"#utility.yul\":5592:5645   */\n      tag_212\n      jump\t// in\n    tag_318:\n        /* \"#utility.yul\":5582:5645   */\n      swap2\n      pop\n        /* \"#utility.yul\":5537:5655   */\n      pop\n        /* \"#utility.yul\":5188:5662   */\n      swap3\n      pop\n      swap3\n      swap1\n      pop\n      jump\t// out\n        /* \"#utility.yul\":5668:5898   */\n    tag_221:\n        /* \"#utility.yul\":5808:5842   */\n      0x4465706c6f79657220616464726573732063616e6e6f7420706572666f726d20\n        /* \"#utility.yul\":5804:5805   */\n      0x00\n        /* \"#utility.yul\":5796:5802   */\n      dup3\n        /* \"#utility.yul\":5792:5806   */\n      add\n        /* \"#utility.yul\":5785:5843   */\n      mstore\n        /* \"#utility.yul\":5877:5890   */\n      0x7468697320616374696f6e000000000000000000000000000000000000000000\n        /* \"#utility.yul\":5872:5874   */\n      0x20\n        /* \"#utility.yul\":5864:5870   */\n      dup3\n        /* \"#utility.yul\":5860:5875   */\n      add\n        /* \"#utility.yul\":5853:5891   */\n      mstore\n        /* \"#utility.yul\":5668:5898   */\n      pop\n      jump\t// out\n        /* \"#utility.yul\":5904:6270   */\n    tag_222:\n        /* \"#utility.yul\":6046:6049   */\n      0x00\n        /* \"#utility.yul\":6067:6134   */\n      tag_321\n        /* \"#utility.yul\":6131:6133   */\n      0x2b\n        /* \"#utility.yul\":6126:6129   */\n      dup4\n        /* \"#utility.yul\":6067:6134   */\n      tag_202\n      jump\t// in\n    tag_321:\n        /* \"#utility.yul\":6060:6134   */\n      swap2\n      pop\n        /* \"#utility.yul\":6143:6236   */\n      tag_322\n        /* \"#utility.yul\":6232:6235   */\n      dup3\n        /* \"#utility.yul\":6143:6236   */\n      tag_221\n      jump\t// in\n    tag_322:\n        /* \"#utility.yul\":6261:6263   */\n      0x40\n        /* \"#utility.yul\":6256:6259   */\n      dup3\n        /* \"#utility.yul\":6252:6264   */\n      add\n        /* \"#utility.yul\":6245:6264   */\n      swap1\n      pop\n        /* \"#utility.yul\":5904:6270   */\n      swap2\n      swap1\n      pop\n      jump\t// out\n        /* \"#utility.yul\":6276:6695   */\n    tag_82:\n        /* \"#utility.yul\":6442:6446   */\n      0x00\n        /* \"#utility.yul\":6480:6482   */\n      0x20\n        /* \"#utility.yul\":6469:6478   */\n      dup3\n        /* \"#utility.yul\":6465:6483   */\n      add\n        /* \"#utility.yul\":6457:6483   */\n      swap1\n      pop\n        /* \"#utility.yul\":6529:6538   */\n      dup2\n        /* \"#utility.yul\":6523:6527   */\n      dup2\n        /* \"#utility.yul\":6519:6539   */\n      sub\n        /* \"#utility.yul\":6515:6516   */\n      0x00\n        /* \"#utility.yul\":6504:6513   */\n      dup4\n        /* \"#utility.yul\":6500:6517   */\n      add\n        /* \"#utility.yul\":6493:6540   */\n      mstore\n        /* \"#utility.yul\":6557:6688   */\n      tag_324\n        /* \"#utility.yul\":6683:6687   */\n      dup2\n        /* \"#utility.yul\":6557:6688   */\n      tag_222\n      jump\t// in\n    tag_324:\n        /* \"#utility.yul\":6549:6688   */\n      swap1\n      pop\n        /* \"#utility.yul\":6276:6695   */\n      swap2\n      swap1\n      pop\n      jump\t// out\n        /* \"#utility.yul\":6701:6868   */\n    tag_223:\n        /* \"#utility.yul\":6841:6860   */\n      0x4163636f756e74206973206c6f636b6564000000000000000000000000000000\n        /* \"#utility.yul\":6837:6838   */\n      0x00\n        /* \"#utility.yul\":6829:6835   */\n      dup3\n        /* \"#utility.yul\":6825:6839   */\n      add\n        /* \"#utility.yul\":6818:6861   */\n      mstore\n        /* \"#utility.yul\":6701:6868   */\n      pop\n      jump\t// out\n        /* \"#utility.yul\":6874:7240   */\n    tag_224:\n        /* \"#utility.yul\":7016:7019   */\n      0x00\n        /* \"#utility.yul\":7037:7104   */\n      tag_327\n        /* \"#utility.yul\":7101:7103   */\n      0x11\n        /* \"#utility.yul\":7096:7099   */\n      dup4\n        /* \"#utility.yul\":7037:7104   */\n      tag_202\n      jump\t// in\n    tag_327:\n        /* \"#utility.yul\":7030:7104   */\n      swap2\n      pop\n        /* \"#utility.yul\":7113:7206   */\n      tag_328\n        /* \"#utility.yul\":7202:7205   */\n      dup3\n        /* \"#utility.yul\":7113:7206   */\n      tag_223\n      jump\t// in\n    tag_328:\n        /* \"#utility.yul\":7231:7233   */\n      0x20\n        /* \"#utility.yul\":7226:7229   */\n      dup3\n        /* \"#utility.yul\":7222:7234   */\n      add\n        /* \"#utility.yul\":7215:7234   */\n      swap1\n      pop\n        /* \"#utility.yul\":6874:7240   */\n      swap2\n      swap1\n      pop\n      jump\t// out\n        /* \"#utility.yul\":7246:7665   */\n    tag_86:\n        /* \"#utility.yul\":7412:7416   */\n      0x00\n        /* \"#utility.yul\":7450:7452   */\n      0x20\n        /* \"#utility.yul\":7439:7448   */\n      dup3\n        /* \"#utility.yul\":7435:7453   */\n      add\n        /* \"#utility.yul\":7427:7453   */\n      swap1\n      pop\n        /* \"#utility.yul\":7499:7508   */\n      dup2\n        /* \"#utility.yul\":7493:7497   */\n      dup2\n        /* \"#utility.yul\":7489:7509   */\n      sub\n        /* \"#utility.yul\":7485:7486   */\n      0x00\n        /* \"#utility.yul\":7474:7483   */\n      dup4\n        /* \"#utility.yul\":7470:7487   */\n      add\n        /* \"#utility.yul\":7463:7510   */\n      mstore\n        /* \"#utility.yul\":7527:7658   */\n      tag_330\n        /* \"#utility.yul\":7653:7657   */\n      dup2\n        /* \"#utility.yul\":7527:7658   */\n      tag_224\n      jump\t// in\n    tag_330:\n        /* \"#utility.yul\":7519:7658   */\n      swap1\n      pop\n        /* \"#utility.yul\":7246:7665   */\n      swap2\n      swap1\n      pop\n      jump\t// out\n        /* \"#utility.yul\":7671:7836   */\n    tag_225:\n        /* \"#utility.yul\":7811:7828   */\n      0x496e76616c6964207370656e6465720000000000000000000000000000000000\n        /* \"#utility.yul\":7807:7808   */\n      0x00\n        /* \"#utility.yul\":7799:7805   */\n      dup3\n        /* \"#utility.yul\":7795:7809   */\n      add\n        /* \"#utility.yul\":7788:7829   */\n      mstore\n        /* \"#utility.yul\":7671:7836   */\n      pop\n      jump\t// out\n        /* \"#utility.yul\":7842:8208   */\n    tag_226:\n        /* \"#utility.yul\":7984:7987   */\n      0x00\n        /* \"#utility.yul\":8005:8072   */\n      tag_333\n        /* \"#utility.yul\":8069:8071   */\n      0x0f\n        /* \"#utility.yul\":8064:8067   */\n      dup4\n        /* \"#utility.yul\":8005:8072   */\n      tag_202\n      jump\t// in\n    tag_333:\n        /* \"#utility.yul\":7998:8072   */\n      swap2\n      pop\n        /* \"#utility.yul\":8081:8174   */\n      tag_334\n        /* \"#utility.yul\":8170:8173   */\n      dup3\n        /* \"#utility.yul\":8081:8174   */\n      tag_225\n      jump\t// in\n    tag_334:\n        /* \"#utility.yul\":8199:8201   */\n      0x20\n        /* \"#utility.yul\":8194:8197   */\n      dup3\n        /* \"#utility.yul\":8190:8202   */\n      add\n        /* \"#utility.yul\":8183:8202   */\n      swap1\n      pop\n        /* \"#utility.yul\":7842:8208   */\n      swap2\n      swap1\n      pop\n      jump\t// out\n        /* \"#utility.yul\":8214:8633   */\n    tag_90:\n        /* \"#utility.yul\":8380:8384   */\n      0x00\n        /* \"#utility.yul\":8418:8420   */\n      0x20\n        /* \"#utility.yul\":8407:8416   */\n      dup3\n        /* \"#utility.yul\":8403:8421   */\n      add\n        /* \"#utility.yul\":8395:8421   */\n      swap1\n      pop\n        /* \"#utility.yul\":8467:8476   */\n      dup2\n        /* \"#utility.yul\":8461:8465   */\n      dup2\n        /* \"#utility.yul\":8457:8477   */\n      sub\n        /* \"#utility.yul\":8453:8454   */\n      0x00\n        /* \"#utility.yul\":8442:8451   */\n      dup4\n        /* \"#utility.yul\":8438:8455   */\n      add\n        /* \"#utility.yul\":8431:8478   */\n      mstore\n        /* \"#utility.yul\":8495:8626   */\n      tag_336\n        /* \"#utility.yul\":8621:8625   */\n      dup2\n        /* \"#utility.yul\":8495:8626   */\n      tag_226\n      jump\t// in\n    tag_336:\n        /* \"#utility.yul\":8487:8626   */\n      swap1\n      pop\n        /* \"#utility.yul\":8214:8633   */\n      swap2\n      swap1\n      pop\n      jump\t// out\n        /* \"#utility.yul\":8639:8819   */\n    tag_227:\n        /* \"#utility.yul\":8687:8764   */\n      0x4e487b7100000000000000000000000000000000000000000000000000000000\n        /* \"#utility.yul\":8684:8685   */\n      0x00\n        /* \"#utility.yul\":8677:8765   */\n      mstore\n        /* \"#utility.yul\":8784:8788   */\n      0x11\n        /* \"#utility.yul\":8781:8782   */\n      0x04\n        /* \"#utility.yul\":8774:8789   */\n      mstore\n        /* \"#utility.yul\":8808:8812   */\n      0x24\n        /* \"#utility.yul\":8805:8806   */\n      0x00\n        /* \"#utility.yul\":8798:8813   */\n      revert\n        /* \"#utility.yul\":8825:8927   */\n    tag_228:\n        /* \"#utility.yul\":8867:8875   */\n      0x00\n        /* \"#utility.yul\":8914:8919   */\n      dup2\n        /* \"#utility.yul\":8911:8912   */\n      0x01\n        /* \"#utility.yul\":8907:8920   */\n      shr\n        /* \"#utility.yul\":8886:8920   */\n      swap1\n      pop\n        /* \"#utility.yul\":8825:8927   */\n      swap2\n      swap1\n      pop\n      jump\t// out\n        /* \"#utility.yul\":8933:9781   */\n    tag_229:\n        /* \"#utility.yul\":8994:8999   */\n      0x00\n        /* \"#utility.yul\":9001:9005   */\n      dup1\n        /* \"#utility.yul\":9025:9031   */\n      dup3\n        /* \"#utility.yul\":9016:9031   */\n      swap2\n      pop\n        /* \"#utility.yul\":9049:9054   */\n      dup4\n        /* \"#utility.yul\":9040:9054   */\n      swap1\n      pop\n        /* \"#utility.yul\":9063:9775   */\n    tag_340:\n        /* \"#utility.yul\":9084:9085   */\n      0x01\n        /* \"#utility.yul\":9074:9082   */\n      dup6\n        /* \"#utility.yul\":9071:9086   */\n      gt\n        /* \"#utility.yul\":9063:9775   */\n      iszero\n      tag_342\n      jumpi\n        /* \"#utility.yul\":9179:9183   */\n      dup1\n        /* \"#utility.yul\":9174:9177   */\n      dup7\n        /* \"#utility.yul\":9170:9184   */\n      div\n        /* \"#utility.yul\":9164:9168   */\n      dup2\n        /* \"#utility.yul\":9161:9185   */\n      gt\n        /* \"#utility.yul\":9158:9208   */\n      iszero\n      tag_343\n      jumpi\n        /* \"#utility.yul\":9188:9206   */\n      tag_344\n      tag_227\n      jump\t// in\n    tag_344:\n        /* \"#utility.yul\":9158:9208   */\n    tag_343:\n        /* \"#utility.yul\":9238:9239   */\n      0x01\n        /* \"#utility.yul\":9228:9236   */\n      dup6\n        /* \"#utility.yul\":9224:9240   */\n      and\n        /* \"#utility.yul\":9221:9672   */\n      iszero\n      tag_345\n      jumpi\n        /* \"#utility.yul\":9653:9657   */\n      dup1\n        /* \"#utility.yul\":9646:9651   */\n      dup3\n        /* \"#utility.yul\":9642:9658   */\n      mul\n        /* \"#utility.yul\":9633:9658   */\n      swap2\n      pop\n        /* \"#utility.yul\":9221:9672   */\n    tag_345:\n        /* \"#utility.yul\":9703:9707   */\n      dup1\n        /* \"#utility.yul\":9697:9701   */\n      dup2\n        /* \"#utility.yul\":9693:9708   */\n      mul\n        /* \"#utility.yul\":9685:9708   */\n      swap1\n      pop\n        /* \"#utility.yul\":9733:9765   */\n      tag_346\n        /* \"#utility.yul\":9756:9764   */\n      dup6\n        /* \"#utility.yul\":9733:9765   */\n      tag_228\n      jump\t// in\n    tag_346:\n        /* \"#utility.yul\":9721:9765   */\n      swap5\n      pop\n        /* \"#utility.yul\":9063:9775   */\n      jump(tag_340)\n    tag_342:\n        /* \"#utility.yul\":8933:9781   */\n      swap5\n      pop\n      swap5\n      swap3\n      pop\n      pop\n      pop\n      jump\t// out\n        /* \"#utility.yul\":9787:10860   */\n    tag_230:\n        /* \"#utility.yul\":9841:9846   */\n      0x00\n        /* \"#utility.yul\":10032:10040   */\n      dup3\n        /* \"#utility.yul\":10022:10062   */\n      tag_348\n      jumpi\n        /* \"#utility.yul\":10053:10054   */\n      0x01\n        /* \"#utility.yul\":10044:10054   */\n      swap1\n      pop\n        /* \"#utility.yul\":10055:10060   */\n      jump(tag_347)\n        /* \"#utility.yul\":10022:10062   */\n    tag_348:\n        /* \"#utility.yul\":10081:10085   */\n      dup2\n        /* \"#utility.yul\":10071:10107   */\n      tag_349\n      jumpi\n        /* \"#utility.yul\":10098:10099   */\n      0x00\n        /* \"#utility.yul\":10089:10099   */\n      swap1\n      pop\n        /* \"#utility.yul\":10100:10105   */\n      jump(tag_347)\n        /* \"#utility.yul\":10071:10107   */\n    tag_349:\n        /* \"#utility.yul\":10167:10171   */\n      dup2\n        /* \"#utility.yul\":10215:10216   */\n      0x01\n        /* \"#utility.yul\":10210:10237   */\n      dup2\n      eq\n      tag_351\n      jumpi\n        /* \"#utility.yul\":10251:10252   */\n      0x02\n        /* \"#utility.yul\":10246:10437   */\n      dup2\n      eq\n      tag_352\n      jumpi\n        /* \"#utility.yul\":10160:10437   */\n      jump(tag_350)\n        /* \"#utility.yul\":10210:10237   */\n    tag_351:\n        /* \"#utility.yul\":10228:10229   */\n      0x01\n        /* \"#utility.yul\":10219:10229   */\n      swap2\n      pop\n        /* \"#utility.yul\":10230:10235   */\n      pop\n      jump(tag_347)\n        /* \"#utility.yul\":10246:10437   */\n    tag_352:\n        /* \"#utility.yul\":10291:10294   */\n      0xff\n        /* \"#utility.yul\":10281:10289   */\n      dup5\n        /* \"#utility.yul\":10278:10295   */\n      gt\n        /* \"#utility.yul\":10275:10318   */\n      iszero\n      tag_353\n      jumpi\n        /* \"#utility.yul\":10298:10316   */\n      tag_354\n      tag_227\n      jump\t// in\n    tag_354:\n        /* \"#utility.yul\":10275:10318   */\n    tag_353:\n        /* \"#utility.yul\":10347:10355   */\n      dup4\n        /* \"#utility.yul\":10344:10345   */\n      0x02\n        /* \"#utility.yul\":10340:10356   */\n      exp\n        /* \"#utility.yul\":10331:10356   */\n      swap2\n      pop\n        /* \"#utility.yul\":10382:10385   */\n      dup5\n        /* \"#utility.yul\":10375:10380   */\n      dup3\n        /* \"#utility.yul\":10372:10386   */\n      gt\n        /* \"#utility.yul\":10369:10409   */\n      iszero\n      tag_355\n      jumpi\n        /* \"#utility.yul\":10389:10407   */\n      tag_356\n      tag_227\n      jump\t// in\n    tag_356:\n        /* \"#utility.yul\":10369:10409   */\n    tag_355:\n        /* \"#utility.yul\":10422:10427   */\n      pop\n      jump(tag_347)\n        /* \"#utility.yul\":10160:10437   */\n    tag_350:\n      pop\n        /* \"#utility.yul\":10546:10548   */\n      0x20\n        /* \"#utility.yul\":10536:10544   */\n      dup4\n        /* \"#utility.yul\":10533:10549   */\n      lt\n        /* \"#utility.yul\":10527:10530   */\n      0x0133\n        /* \"#utility.yul\":10521:10525   */\n      dup4\n        /* \"#utility.yul\":10518:10531   */\n      lt\n        /* \"#utility.yul\":10514:10550   */\n      and\n        /* \"#utility.yul\":10496:10498   */\n      0x4e\n        /* \"#utility.yul\":10486:10494   */\n      dup5\n        /* \"#utility.yul\":10483:10499   */\n      lt\n        /* \"#utility.yul\":10478:10480   */\n      0x0b\n        /* \"#utility.yul\":10472:10476   */\n      dup5\n        /* \"#utility.yul\":10469:10481   */\n      lt\n        /* \"#utility.yul\":10465:10500   */\n      and\n        /* \"#utility.yul\":10449:10560   */\n      or\n        /* \"#utility.yul\":10446:10692   */\n      iszero\n      tag_357\n      jumpi\n        /* \"#utility.yul\":10602:10610   */\n      dup3\n        /* \"#utility.yul\":10596:10600   */\n      dup3\n        /* \"#utility.yul\":10592:10611   */\n      exp\n        /* \"#utility.yul\":10583:10611   */\n      swap1\n      pop\n        /* \"#utility.yul\":10637:10640   */\n      dup4\n        /* \"#utility.yul\":10630:10635   */\n      dup2\n        /* \"#utility.yul\":10627:10641   */\n      gt\n        /* \"#utility.yul\":10624:10664   */\n      iszero\n      tag_358\n      jumpi\n        /* \"#utility.yul\":10644:10662   */\n      tag_359\n      tag_227\n      jump\t// in\n    tag_359:\n        /* \"#utility.yul\":10624:10664   */\n    tag_358:\n        /* \"#utility.yul\":10677:10682   */\n      jump(tag_347)\n        /* \"#utility.yul\":10446:10692   */\n    tag_357:\n        /* \"#utility.yul\":10717:10759   */\n      tag_360\n        /* \"#utility.yul\":10755:10758   */\n      dup5\n        /* \"#utility.yul\":10745:10753   */\n      dup5\n        /* \"#utility.yul\":10739:10743   */\n      dup5\n        /* \"#utility.yul\":10736:10737   */\n      0x01\n        /* \"#utility.yul\":10717:10759   */\n      tag_229\n      jump\t// in\n    tag_360:\n        /* \"#utility.yul\":10702:10759   */\n      swap3\n      pop\n      swap1\n      pop\n        /* \"#utility.yul\":10791:10795   */\n      dup2\n        /* \"#utility.yul\":10786:10789   */\n      dup5\n        /* \"#utility.yul\":10782:10796   */\n      div\n        /* \"#utility.yul\":10775:10780   */\n      dup2\n        /* \"#utility.yul\":10772:10797   */\n      gt\n        /* \"#utility.yul\":10769:10820   */\n      iszero\n      tag_361\n      jumpi\n        /* \"#utility.yul\":10800:10818   */\n      tag_362\n      tag_227\n      jump\t// in\n    tag_362:\n        /* \"#utility.yul\":10769:10820   */\n    tag_361:\n        /* \"#utility.yul\":10849:10853   */\n      dup2\n        /* \"#utility.yul\":10842:10847   */\n      dup2\n        /* \"#utility.yul\":10838:10854   */\n      mul\n        /* \"#utility.yul\":10829:10854   */\n      swap1\n      pop\n        /* \"#utility.yul\":9787:10860   */\n    tag_347:\n      swap4\n      swap3\n      pop\n      pop\n      pop\n      jump\t// out\n        /* \"#utility.yul\":10866:11151   */\n    tag_93:\n        /* \"#utility.yul\":10926:10931   */\n      0x00\n        /* \"#utility.yul\":10950:10973   */\n      tag_364\n        /* \"#utility.yul\":10968:10972   */\n      dup3\n        /* \"#utility.yul\":10950:10973   */\n      tag_213\n      jump\t// in\n    tag_364:\n        /* \"#utility.yul\":10942:10973   */\n      swap2\n      pop\n        /* \"#utility.yul\":10994:11021   */\n      tag_365\n        /* \"#utility.yul\":11012:11020   */\n      dup4\n        /* \"#utility.yul\":10994:11021   */\n      tag_213\n      jump\t// in\n    tag_365:\n        /* \"#utility.yul\":10982:11021   */\n      swap3\n      pop\n        /* \"#utility.yul\":11040:11144   */\n      tag_366\n        /* \"#utility.yul\":11077:11143   */\n      0xffffffffffffffffffffffffffffffffffffffffffffffffffffffffffffffff\n        /* \"#utility.yul\":11067:11075   */\n      dup5\n        /* \"#utility.yul\":11061:11065   */\n      dup5\n        /* \"#utility.yul\":11040:11144   */\n      tag_230\n      jump\t// in\n    tag_366:\n        /* \"#utility.yul\":11031:11144   */\n      swap1\n      pop\n        /* \"#utility.yul\":10866:11151   */\n      swap3\n      swap2\n      pop\n      pop\n      jump\t// out\n        /* \"#utility.yul\":11157:11567   */\n    tag_95:\n        /* \"#utility.yul\":11197:11204   */\n      0x00\n        /* \"#utility.yul\":11220:11240   */\n      tag_368\n        /* \"#utility.yul\":11238:11239   */\n      dup3\n        /* \"#utility.yul\":11220:11240   */\n      tag_213\n      jump\t// in\n    tag_368:\n        /* \"#utility.yul\":11215:11240   */\n      swap2\n      pop\n        /* \"#utility.yul\":11254:11274   */\n      tag_369\n        /* \"#utility.yul\":11272:11273   */\n      dup4\n        /* \"#utility.yul\":11254:11274   */\n      tag_213\n      jump\t// in\n    tag_369:\n        /* \"#utility.yul\":11249:11274   */\n      swap3\n      pop\n        /* \"#utility.yul\":11309:11310   */\n      dup3\n        /* \"#utility.yul\":11306:11307   */\n      dup3\n        /* \"#utility.yul\":11302:11311   */\n      mul\n        /* \"#utility.yul\":11331:11361   */\n      tag_370\n        /* \"#utility.yul\":11349:11360   */\n      dup2\n        /* \"#utility.yul\":11331:11361   */\n      tag_213\n      jump\t// in\n    tag_370:\n        /* \"#utility.yul\":11320:11361   */\n      swap2\n      pop\n        /* \"#utility.yul\":11510:11511   */\n      dup3\n        /* \"#utility.yul\":11501:11508   */\n      dup3\n        /* \"#utility.yul\":11497:11512   */\n      div\n        /* \"#utility.yul\":11494:11495   */\n      dup5\n        /* \"#utility.yul\":11491:11513   */\n      eq\n        /* \"#utility.yul\":11471:11472   */\n      dup4\n        /* \"#utility.yul\":11464:11473   */\n      iszero\n        /* \"#utility.yul\":11444:11527   */\n      or\n        /* \"#utility.yul\":11421:11560   */\n      tag_371\n      jumpi\n        /* \"#utility.yul\":11540:11558   */\n      tag_372\n      tag_227\n      jump\t// in\n    tag_372:\n        /* \"#utility.yul\":11421:11560   */\n    tag_371:\n        /* \"#utility.yul\":11205:11567   */\n      pop\n        /* \"#utility.yul\":11157:11567   */\n      swap3\n      swap2\n      pop\n      pop\n      jump\t// out\n        /* \"#utility.yul\":11573:11737   */\n    tag_231:\n        /* \"#utility.yul\":11713:11729   */\n      0x496e76616c69642073656e646572000000000000000000000000000000000000\n        /* \"#utility.yul\":11709:11710   */\n      0x00\n        /* \"#utility.yul\":11701:11707   */\n      dup3\n        /* \"#utility.yul\":11697:11711   */\n      add\n        /* \"#utility.yul\":11690:11730   */\n      mstore\n        /* \"#utility.yul\":11573:11737   */\n      pop\n      jump\t// out\n        /* \"#utility.yul\":11743:12109   */\n    tag_232:\n        /* \"#utility.yul\":11885:11888   */\n      0x00\n        /* \"#utility.yul\":11906:11973   */\n      tag_375\n        /* \"#utility.yul\":11970:11972   */\n      0x0e\n        /* \"#utility.yul\":11965:11968   */\n      dup4\n        /* \"#utility.yul\":11906:11973   */\n      tag_202\n      jump\t// in\n    tag_375:\n        /* \"#utility.yul\":11899:11973   */\n      swap2\n      pop\n        /* \"#utility.yul\":11982:12075   */\n      tag_376\n        /* \"#utility.yul\":12071:12074   */\n      dup3\n        /* \"#utility.yul\":11982:12075   */\n      tag_231\n      jump\t// in\n    tag_376:\n        /* \"#utility.yul\":12100:12102   */\n      0x20\n        /* \"#utility.yul\":12095:12098   */\n      dup3\n        /* \"#utility.yul\":12091:12103   */\n      add\n        /* \"#utility.yul\":12084:12103   */\n      swap1\n      pop\n        /* \"#utility.yul\":11743:12109   */\n      swap2\n      swap1\n      pop\n      jump\t// out\n        /* \"#utility.yul\":12115:12534   */\n    tag_105:\n        /* \"#utility.yul\":12281:12285   */\n      0x00\n        /* \"#utility.yul\":12319:12321   */\n      0x20\n        /* \"#utility.yul\":12308:12317   */\n      dup3\n        /* \"#utility.yul\":12304:12322   */\n      add\n        /* \"#utility.yul\":12296:12322   */\n      swap1\n      pop\n        /* \"#utility.yul\":12368:12377   */\n      dup2\n        /* \"#utility.yul\":12362:12366   */\n      dup2\n        /* \"#utility.yul\":12358:12378   */\n      sub\n        /* \"#utility.yul\":12354:12355   */\n      0x00\n        /* \"#utility.yul\":12343:12352   */\n      dup4\n        /* \"#utility.yul\":12339:12356   */\n      add\n        /* \"#utility.yul\":12332:12379   */\n      mstore\n        /* \"#utility.yul\":12396:12527   */\n      tag_378\n        /* \"#utility.yul\":12522:12526   */\n      dup2\n        /* \"#utility.yul\":12396:12527   */\n      tag_232\n      jump\t// in\n    tag_378:\n        /* \"#utility.yul\":12388:12527   */\n      swap1\n      pop\n        /* \"#utility.yul\":12115:12534   */\n      swap2\n      swap1\n      pop\n      jump\t// out\n        /* \"#utility.yul\":12540:12707   */\n    tag_233:\n        /* \"#utility.yul\":12680:12699   */\n      0x496e76616c696420726563697069656e74000000000000000000000000000000\n        /* \"#utility.yul\":12676:12677   */\n      0x00\n        /* \"#utility.yul\":12668:12674   */\n      dup3\n        /* \"#utility.yul\":12664:12678   */\n      add\n        /* \"#utility.yul\":12657:12700   */\n      mstore\n        /* \"#utility.yul\":12540:12707   */\n      pop\n      jump\t// out\n        /* \"#utility.yul\":12713:13079   */\n    tag_234:\n        /* \"#utility.yul\":12855:12858   */\n      0x00\n        /* \"#utility.yul\":12876:12943   */\n      tag_381\n        /* \"#utility.yul\":12940:12942   */\n      0x11\n        /* \"#utility.yul\":12935:12938   */\n      dup4\n        /* \"#utility.yul\":12876:12943   */\n      tag_202\n      jump\t// in\n    tag_381:\n        /* \"#utility.yul\":12869:12943   */\n      swap2\n      pop\n        /* \"#utility.yul\":12952:13045   */\n      tag_382\n        /* \"#utility.yul\":13041:13044   */\n      dup3\n        /* \"#utility.yul\":12952:13045   */\n      tag_233\n      jump\t// in\n    tag_382:\n        /* \"#utility.yul\":13070:13072   */\n      0x20\n        /* \"#utility.yul\":13065:13068   */\n      dup3\n        /* \"#utility.yul\":13061:13073   */\n      add\n        /* \"#utility.yul\":13054:13073   */\n      swap1\n      pop\n        /* \"#utility.yul\":12713:13079   */\n      swap2\n      swap1\n      pop\n      jump\t// out\n        /* \"#utility.yul\":13085:13504   */\n    tag_108:\n        /* \"#utility.yul\":13251:13255   */\n      0x00\n        /* \"#utility.yul\":13289:13291   */\n      0x20\n        /* \"#utility.yul\":13278:13287   */\n      dup3\n        /* \"#utility.yul\":13274:13292   */\n      add\n        /* \"#utility.yul\":13266:13292   */\n      swap1\n      pop\n        /* \"#utility.yul\":13338:13347   */\n      dup2\n        /* \"#utility.yul\":13332:13336   */\n      dup2\n        /* \"#utility.yul\":13328:13348   */\n      sub\n        /* \"#utility.yul\":13324:13325   */\n      0x00\n        /* \"#utility.yul\":13313:13322   */\n      dup4\n        /* \"#utility.yul\":13309:13326   */\n      add\n        /* \"#utility.yul\":13302:13349   */\n      mstore\n        /* \"#utility.yul\":13366:13497   */\n      tag_384\n        /* \"#utility.yul\":13492:13496   */\n      dup2\n        /* \"#utility.yul\":13366:13497   */\n      tag_234\n      jump\t// in\n    tag_384:\n        /* \"#utility.yul\":13358:13497   */\n      swap1\n      pop\n        /* \"#utility.yul\":13085:13504   */\n      swap2\n      swap1\n      pop\n      jump\t// out\n        /* \"#utility.yul\":13510:13680   */\n    tag_235:\n        /* \"#utility.yul\":13650:13672   */\n      0x496e73756666696369656e742062616c616e6365000000000000000000000000\n        /* \"#utility.yul\":13646:13647   */\n      0x00\n        /* \"#utility.yul\":13638:13644   */\n      dup3\n        /* \"#utility.yul\":13634:13648   */\n      add\n        /* \"#utility.yul\":13627:13673   */\n      mstore\n        /* \"#utility.yul\":13510:13680   */\n      pop\n      jump\t// out\n        /* \"#utility.yul\":13686:14052   */\n    tag_236:\n        /* \"#utility.yul\":13828:13831   */\n      0x00\n        /* \"#utility.yul\":13849:13916   */\n      tag_387\n        /* \"#utility.yul\":13913:13915   */\n      0x14\n        /* \"#utility.yul\":13908:13911   */\n      dup4\n        /* \"#utility.yul\":13849:13916   */\n      tag_202\n      jump\t// in\n    tag_387:\n        /* \"#utility.yul\":13842:13916   */\n      swap2\n      pop\n        /* \"#utility.yul\":13925:14018   */\n      tag_388\n        /* \"#utility.yul\":14014:14017   */\n      dup3\n        /* \"#utility.yul\":13925:14018   */\n      tag_235\n      jump\t// in\n    tag_388:\n        /* \"#utility.yul\":14043:14045   */\n      0x20\n        /* \"#utility.yul\":14038:14041   */\n      dup3\n        /* \"#utility.yul\":14034:14046   */\n      add\n        /* \"#utility.yul\":14027:14046   */\n      swap1\n      pop\n        /* \"#utility.yul\":13686:14052   */\n      swap2\n      swap1\n      pop\n      jump\t// out\n        /* \"#utility.yul\":14058:14477   */\n    tag_111:\n        /* \"#utility.yul\":14224:14228   */\n      0x00\n        /* \"#utility.yul\":14262:14264   */\n      0x20\n        /* \"#utility.yul\":14251:14260   */\n      dup3\n        /* \"#utility.yul\":14247:14265   */\n      add\n        /* \"#utility.yul\":14239:14265   */\n      swap1\n      pop\n        /* \"#utility.yul\":14311:14320   */\n      dup2\n        /* \"#utility.yul\":14305:14309   */\n      dup2\n        /* \"#utility.yul\":14301:14321   */\n      sub\n        /* \"#utility.yul\":14297:14298   */\n      0x00\n        /* \"#utility.yul\":14286:14295   */\n      dup4\n        /* \"#utility.yul\":14282:14299   */\n      add\n        /* \"#utility.yul\":14275:14322   */\n      mstore\n        /* \"#utility.yul\":14339:14470   */\n      tag_390\n        /* \"#utility.yul\":14465:14469   */\n      dup2\n        /* \"#utility.yul\":14339:14470   */\n      tag_236\n      jump\t// in\n    tag_390:\n        /* \"#utility.yul\":14331:14470   */\n      swap1\n      pop\n        /* \"#utility.yul\":14058:14477   */\n      swap2\n      swap1\n      pop\n      jump\t// out\n        /* \"#utility.yul\":14483:14655   */\n    tag_237:\n        /* \"#utility.yul\":14623:14647   */\n      0x496e73756666696369656e7420616c6c6f77616e636500000000000000000000\n        /* \"#utility.yul\":14619:14620   */\n      0x00\n        /* \"#utility.yul\":14611:14617   */\n      dup3\n        /* \"#utility.yul\":14607:14621   */\n      add\n        /* \"#utility.yul\":14600:14648   */\n      mstore\n        /* \"#utility.yul\":14483:14655   */\n      pop\n      jump\t// out\n        /* \"#utility.yul\":14661:15027   */\n    tag_238:\n        /* \"#utility.yul\":14803:14806   */\n      0x00\n        /* \"#utility.yul\":14824:14891   */\n      tag_393\n        /* \"#utility.yul\":14888:14890   */\n      0x16\n        /* \"#utility.yul\":14883:14886   */\n      dup4\n        /* \"#utility.yul\":14824:14891   */\n      tag_202\n      jump\t// in\n    tag_393:\n        /* \"#utility.yul\":14817:14891   */\n      swap2\n      pop\n        /* \"#utility.yul\":14900:14993   */\n      tag_394\n        /* \"#utility.yul\":14989:14992   */\n      dup3\n        /* \"#utility.yul\":14900:14993   */\n      tag_237\n      jump\t// in\n    tag_394:\n        /* \"#utility.yul\":15018:15020   */\n      0x20\n        /* \"#utility.yul\":15013:15016   */\n      dup3\n        /* \"#utility.yul\":15009:15021   */\n      add\n        /* \"#utility.yul\":15002:15021   */\n      swap1\n      pop\n        /* \"#utility.yul\":14661:15027   */\n      swap2\n      swap1\n      pop\n      jump\t// out\n        /* \"#utility.yul\":15033:15452   */\n    tag_114:\n        /* \"#utility.yul\":15199:15203   */\n      0x00\n        /* \"#utility.yul\":15237:15239   */\n      0x20\n        /* \"#utility.yul\":15226:15235   */\n      dup3\n        /* \"#utility.yul\":15222:15240   */\n      add\n        /* \"#utility.yul\":15214:15240   */\n      swap1\n      pop\n        /* \"#utility.yul\":15286:15295   */\n      dup2\n        /* \"#utility.yul\":15280:15284   */\n      dup2\n        /* \"#utility.yul\":15276:15296   */\n      sub\n        /* \"#utility.yul\":15272:15273   */\n      0x00\n        /* \"#utility.yul\":15261:15270   */\n      dup4\n        /* \"#utility.yul\":15257:15274   */\n      add\n        /* \"#utility.yul\":15250:15297   */\n      mstore\n        /* \"#utility.yul\":15314:15445   */\n      tag_396\n        /* \"#utility.yul\":15440:15444   */\n      dup2\n        /* \"#utility.yul\":15314:15445   */\n      tag_238\n      jump\t// in\n    tag_396:\n        /* \"#utility.yul\":15306:15445   */\n      swap1\n      pop\n        /* \"#utility.yul\":15033:15452   */\n      swap2\n      swap1\n      pop\n      jump\t// out\n        /* \"#utility.yul\":15458:15652   */\n    tag_119:\n        /* \"#utility.yul\":15498:15502   */\n      0x00\n        /* \"#utility.yul\":15518:15538   */\n      tag_398\n        /* \"#utility.yul\":15536:15537   */\n      dup3\n        /* \"#utility.yul\":15518:15538   */\n      tag_213\n      jump\t// in\n    tag_398:\n        /* \"#utility.yul\":15513:15538   */\n      swap2\n      pop\n        /* \"#utility.yul\":15552:15572   */\n      tag_399\n        /* \"#utility.yul\":15570:15571   */\n      dup4\n        /* \"#utility.yul\":15552:15572   */\n      tag_213\n      jump\t// in\n    tag_399:\n        /* \"#utility.yul\":15547:15572   */\n      swap3\n      pop\n        /* \"#utility.yul\":15596:15597   */\n      dup3\n        /* \"#utility.yul\":15593:15594   */\n      dup3\n        /* \"#utility.yul\":15589:15598   */\n      sub\n        /* \"#utility.yul\":15581:15598   */\n      swap1\n      pop\n        /* \"#utility.yul\":15620:15621   */\n      dup2\n        /* \"#utility.yul\":15614:15618   */\n      dup2\n        /* \"#utility.yul\":15611:15622   */\n      gt\n        /* \"#utility.yul\":15608:15645   */\n      iszero\n      tag_400\n      jumpi\n        /* \"#utility.yul\":15625:15643   */\n      tag_401\n      tag_227\n      jump\t// in\n    tag_401:\n        /* \"#utility.yul\":15608:15645   */\n    tag_400:\n        /* \"#utility.yul\":15458:15652   */\n      swap3\n      swap2\n      pop\n      pop\n      jump\t// out\n        /* \"#utility.yul\":15658:15885   */\n    tag_239:\n        /* \"#utility.yul\":15798:15832   */\n      0x4f6e6c7920746865206465706c6f7965722063616e2063616c6c207468697320\n        /* \"#utility.yul\":15794:15795   */\n      0x00\n        /* \"#utility.yul\":15786:15792   */\n      dup3\n        /* \"#utility.yul\":15782:15796   */\n      add\n        /* \"#utility.yul\":15775:15833   */\n      mstore\n        /* \"#utility.yul\":15867:15877   */\n      0x66756e6374696f6e000000000000000000000000000000000000000000000000\n        /* \"#utility.yul\":15862:15864   */\n      0x20\n        /* \"#utility.yul\":15854:15860   */\n      dup3\n        /* \"#utility.yul\":15850:15865   */\n      add\n        /* \"#utility.yul\":15843:15878   */\n      mstore\n        /* \"#utility.yul\":15658:15885   */\n      pop\n      jump\t// out\n        /* \"#utility.yul\":15891:16257   */\n    tag_240:\n        /* \"#utility.yul\":16033:16036   */\n      0x00\n        /* \"#utility.yul\":16054:16121   */\n      tag_404\n        /* \"#utility.yul\":16118:16120   */\n      0x28\n        /* \"#utility.yul\":16113:16116   */\n      dup4\n        /* \"#utility.yul\":16054:16121   */\n      tag_202\n      jump\t// in\n    tag_404:\n        /* \"#utility.yul\":16047:16121   */\n      swap2\n      pop\n        /* \"#utility.yul\":16130:16223   */\n      tag_405\n        /* \"#utility.yul\":16219:16222   */\n      dup3\n        /* \"#utility.yul\":16130:16223   */\n      tag_239\n      jump\t// in\n    tag_405:\n        /* \"#utility.yul\":16248:16250   */\n      0x40\n        /* \"#utility.yul\":16243:16246   */\n      dup3\n        /* \"#utility.yul\":16239:16251   */\n      add\n        /* \"#utility.yul\":16232:16251   */\n      swap1\n      pop\n        /* \"#utility.yul\":15891:16257   */\n      swap2\n      swap1\n      pop\n      jump\t// out\n        /* \"#utility.yul\":16263:16682   */\n    tag_124:\n        /* \"#utility.yul\":16429:16433   */\n      0x00\n        /* \"#utility.yul\":16467:16469   */\n      0x20\n        /* \"#utility.yul\":16456:16465   */\n      dup3\n        /* \"#utility.yul\":16452:16470   */\n      add\n        /* \"#utility.yul\":16444:16470   */\n      swap1\n      pop\n        /* \"#utility.yul\":16516:16525   */\n      dup2\n        /* \"#utility.yul\":16510:16514   */\n      dup2\n        /* \"#utility.yul\":16506:16526   */\n      sub\n        /* \"#utility.yul\":16502:16503   */\n      0x00\n        /* \"#utility.yul\":16491:16500   */\n      dup4\n        /* \"#utility.yul\":16487:16504   */\n      add\n        /* \"#utility.yul\":16480:16527   */\n      mstore\n        /* \"#utility.yul\":16544:16675   */\n      tag_407\n        /* \"#utility.yul\":16670:16674   */\n      dup2\n        /* \"#utility.yul\":16544:16675   */\n      tag_240\n      jump\t// in\n    tag_407:\n        /* \"#utility.yul\":16536:16675   */\n      swap1\n      pop\n        /* \"#utility.yul\":16263:16682   */\n      swap2\n      swap1\n      pop\n      jump\t// out\n        /* \"#utility.yul\":16688:16853   */\n    tag_241:\n        /* \"#utility.yul\":16828:16845   */\n      0x496e76616c6964206163636f756e740000000000000000000000000000000000\n        /* \"#utility.yul\":16824:16825   */\n      0x00\n        /* \"#utility.yul\":16816:16822   */\n      dup3\n        /* \"#utility.yul\":16812:16826   */\n      add\n        /* \"#utility.yul\":16805:16846   */\n      mstore\n        /* \"#utility.yul\":16688:16853   */\n      pop\n      jump\t// out\n        /* \"#utility.yul\":16859:17225   */\n    tag_242:\n        /* \"#utility.yul\":17001:17004   */\n      0x00\n        /* \"#utility.yul\":17022:17089   */\n      tag_410\n        /* \"#utility.yul\":17086:17088   */\n      0x0f\n        /* \"#utility.yul\":17081:17084   */\n      dup4\n        /* \"#utility.yul\":17022:17089   */\n      tag_202\n      jump\t// in\n    tag_410:\n        /* \"#utility.yul\":17015:17089   */\n      swap2\n      pop\n        /* \"#utility.yul\":17098:17191   */\n      tag_411\n        /* \"#utility.yul\":17187:17190   */\n      dup3\n        /* \"#utility.yul\":17098:17191   */\n      tag_241\n      jump\t// in\n    tag_411:\n        /* \"#utility.yul\":17216:17218   */\n      0x20\n        /* \"#utility.yul\":17211:17214   */\n      dup3\n        /* \"#utility.yul\":17207:17219   */\n      add\n        /* \"#utility.yul\":17200:17219   */\n      swap1\n      pop\n        /* \"#utility.yul\":16859:17225   */\n      swap2\n      swap1\n      pop\n      jump\t// out\n        /* \"#utility.yul\":17231:17650   */\n    tag_137:\n        /* \"#utility.yul\":17397:17401   */\n      0x00\n        /* \"#utility.yul\":17435:17437   */\n      0x20\n        /* \"#utility.yul\":17424:17433   */\n      dup3\n        /* \"#utility.yul\":17420:17438   */\n      add\n        /* \"#utility.yul\":17412:17438   */\n      swap1\n      pop\n        /* \"#utility.yul\":17484:17493   */\n      dup2\n        /* \"#utility.yul\":17478:17482   */\n      dup2\n        /* \"#utility.yul\":17474:17494   */\n      sub\n        /* \"#utility.yul\":17470:17471   */\n      0x00\n        /* \"#utility.yul\":17459:17468   */\n      dup4\n        /* \"#utility.yul\":17455:17472   */\n      add\n        /* \"#utility.yul\":17448:17495   */\n      mstore\n        /* \"#utility.yul\":17512:17643   */\n      tag_413\n        /* \"#utility.yul\":17638:17642   */\n      dup2\n        /* \"#utility.yul\":17512:17643   */\n      tag_242\n      jump\t// in\n    tag_413:\n        /* \"#utility.yul\":17504:17643   */\n      swap1\n      pop\n        /* \"#utility.yul\":17231:17650   */\n      swap2\n      swap1\n      pop\n      jump\t// out\n        /* \"#utility.yul\":17656:17836   */\n    tag_243:\n        /* \"#utility.yul\":17796:17828   */\n      0x43616e6e6f74206c6f636b206465706c6f7965722773206163636f756e740000\n        /* \"#utility.yul\":17792:17793   */\n      0x00\n        /* \"#utility.yul\":17784:17790   */\n      dup3\n        /* \"#utility.yul\":17780:17794   */\n      add\n        /* \"#utility.yul\":17773:17829   */\n      mstore\n        /* \"#utility.yul\":17656:17836   */\n      pop\n      jump\t// out\n        /* \"#utility.yul\":17842:18208   */\n    tag_244:\n        /* \"#utility.yul\":17984:17987   */\n      0x00\n        /* \"#utility.yul\":18005:18072   */\n      tag_416\n        /* \"#utility.yul\":18069:18071   */\n      0x1e\n        /* \"#utility.yul\":18064:18067   */\n      dup4\n        /* \"#utility.yul\":18005:18072   */\n      tag_202\n      jump\t// in\n    tag_416:\n        /* \"#utility.yul\":17998:18072   */\n      swap2\n      pop\n        /* \"#utility.yul\":18081:18174   */\n      tag_417\n        /* \"#utility.yul\":18170:18173   */\n      dup3\n        /* \"#utility.yul\":18081:18174   */\n      tag_243\n      jump\t// in\n    tag_417:\n        /* \"#utility.yul\":18199:18201   */\n      0x20\n        /* \"#utility.yul\":18194:18197   */\n      dup3\n        /* \"#utility.yul\":18190:18202   */\n      add\n        /* \"#utility.yul\":18183:18202   */\n      swap1\n      pop\n        /* \"#utility.yul\":17842:18208   */\n      swap2\n      swap1\n      pop\n      jump\t// out\n        /* \"#utility.yul\":18214:18633   */\n    tag_140:\n        /* \"#utility.yul\":18380:18384   */\n      0x00\n        /* \"#utility.yul\":18418:18420   */\n      0x20\n        /* \"#utility.yul\":18407:18416   */\n      dup3\n        /* \"#utility.yul\":18403:18421   */\n      add\n        /* \"#utility.yul\":18395:18421   */\n      swap1\n      pop\n        /* \"#utility.yul\":18467:18476   */\n      dup2\n        /* \"#utility.yul\":18461:18465   */\n      dup2\n        /* \"#utility.yul\":18457:18477   */\n      sub\n        /* \"#utility.yul\":18453:18454   */\n      0x00\n        /* \"#utility.yul\":18442:18451   */\n      dup4\n        /* \"#utility.yul\":18438:18455   */\n      add\n        /* \"#utility.yul\":18431:18478   */\n      mstore\n        /* \"#utility.yul\":18495:18626   */\n      tag_419\n        /* \"#utility.yul\":18621:18625   */\n      dup2\n        /* \"#utility.yul\":18495:18626   */\n      tag_244\n      jump\t// in\n    tag_419:\n        /* \"#utility.yul\":18487:18626   */\n      swap1\n      pop\n        /* \"#utility.yul\":18214:18633   */\n      swap2\n      swap1\n      pop\n      jump\t// out\n        /* \"#utility.yul\":18639:18821   */\n    tag_245:\n        /* \"#utility.yul\":18779:18813   */\n      0x43616e6e6f7420756e6c6f636b206465706c6f7965722773206163636f756e74\n        /* \"#utility.yul\":18775:18776   */\n      0x00\n        /* \"#utility.yul\":18767:18773   */\n      dup3\n        /* \"#utility.yul\":18763:18777   */\n      add\n        /* \"#utility.yul\":18756:18814   */\n      mstore\n        /* \"#utility.yul\":18639:18821   */\n      pop\n      jump\t// out\n        /* \"#utility.yul\":18827:19193   */\n    tag_246:\n        /* \"#utility.yul\":18969:18972   */\n      0x00\n        /* \"#utility.yul\":18990:19057   */\n      tag_422\n        /* \"#utility.yul\":19054:19056   */\n      0x20\n        /* \"#utility.yul\":19049:19052   */\n      dup4\n        /* \"#utility.yul\":18990:19057   */\n      tag_202\n      jump\t// in\n    tag_422:\n        /* \"#utility.yul\":18983:19057   */\n      swap2\n      pop\n        /* \"#utility.yul\":19066:19159   */\n      tag_423\n        /* \"#utility.yul\":19155:19158   */\n      dup3\n        /* \"#utility.yul\":19066:19159   */\n      tag_245\n      jump\t// in\n    tag_423:\n        /* \"#utility.yul\":19184:19186   */\n      0x20\n        /* \"#utility.yul\":19179:19182   */\n      dup3\n        /* \"#utility.yul\":19175:19187   */\n      add\n        /* \"#utility.yul\":19168:19187   */\n      swap1\n      pop\n        /* \"#utility.yul\":18827:19193   */\n      swap2\n      swap1\n      pop\n      jump\t// out\n        /* \"#utility.yul\":19199:19618   */\n    tag_154:\n        /* \"#utility.yul\":19365:19369   */\n      0x00\n        /* \"#utility.yul\":19403:19405   */\n      0x20\n        /* \"#utility.yul\":19392:19401   */\n      dup3\n        /* \"#utility.yul\":19388:19406   */\n      add\n        /* \"#utility.yul\":19380:19406   */\n      swap1\n      pop\n        /* \"#utility.yul\":19452:19461   */\n      dup2\n        /* \"#utility.yul\":19446:19450   */\n      dup2\n        /* \"#utility.yul\":19442:19462   */\n      sub\n        /* \"#utility.yul\":19438:19439   */\n      0x00\n        /* \"#utility.yul\":19427:19436   */\n      dup4\n        /* \"#utility.yul\":19423:19440   */\n      add\n        /* \"#utility.yul\":19416:19463   */\n      mstore\n        /* \"#utility.yul\":19480:19611   */\n      tag_425\n        /* \"#utility.yul\":19606:19610   */\n      dup2\n        /* \"#utility.yul\":19480:19611   */\n      tag_246\n      jump\t// in\n    tag_425:\n        /* \"#utility.yul\":19472:19611   */\n      swap1\n      pop\n        /* \"#utility.yul\":19199:19618   */\n      swap2\n      swap1\n      pop\n      jump\t// out\n        /* \"#utility.yul\":19624:19803   */\n    tag_247:\n        /* \"#utility.yul\":19764:19795   */\n      0x43616e6e6f74206c6f636b206465706c6f796572277320746f6b656e73000000\n        /* \"#utility.yul\":19760:19761   */\n      0x00\n        /* \"#utility.yul\":19752:19758   */\n      dup3\n        /* \"#utility.yul\":19748:19762   */\n      add\n        /* \"#utility.yul\":19741:19796   */\n      mstore\n        /* \"#utility.yul\":19624:19803   */\n      pop\n      jump\t// out\n        /* \"#utility.yul\":19809:20175   */\n    tag_248:\n        /* \"#utility.yul\":19951:19954   */\n      0x00\n        /* \"#utility.yul\":19972:20039   */\n      tag_428\n        /* \"#utility.yul\":20036:20038   */\n      0x1d\n        /* \"#utility.yul\":20031:20034   */\n      dup4\n        /* \"#utility.yul\":19972:20039   */\n      tag_202\n      jump\t// in\n    tag_428:\n        /* \"#utility.yul\":19965:20039   */\n      swap2\n      pop\n        /* \"#utility.yul\":20048:20141   */\n      tag_429\n        /* \"#utility.yul\":20137:20140   */\n      dup3\n        /* \"#utility.yul\":20048:20141   */\n      tag_247\n      jump\t// in\n    tag_429:\n        /* \"#utility.yul\":20166:20168   */\n      0x20\n        /* \"#utility.yul\":20161:20164   */\n      dup3\n        /* \"#utility.yul\":20157:20169   */\n      add\n        /* \"#utility.yul\":20150:20169   */\n      swap1\n      pop\n        /* \"#utility.yul\":19809:20175   */\n      swap2\n      swap1\n      pop\n      jump\t// out\n        /* \"#utility.yul\":20181:20600   */\n    tag_175:\n        /* \"#utility.yul\":20347:20351   */\n      0x00\n        /* \"#utility.yul\":20385:20387   */\n      0x20\n        /* \"#utility.yul\":20374:20383   */\n      dup3\n        /* \"#utility.yul\":20370:20388   */\n      add\n        /* \"#utility.yul\":20362:20388   */\n      swap1\n      pop\n        /* \"#utility.yul\":20434:20443   */\n      dup2\n        /* \"#utility.yul\":20428:20432   */\n      dup2\n        /* \"#utility.yul\":20424:20444   */\n      sub\n        /* \"#utility.yul\":20420:20421   */\n      0x00\n        /* \"#utility.yul\":20409:20418   */\n      dup4\n        /* \"#utility.yul\":20405:20422   */\n      add\n        /* \"#utility.yul\":20398:20445   */\n      mstore\n        /* \"#utility.yul\":20462:20593   */\n      tag_431\n        /* \"#utility.yul\":20588:20592   */\n      dup2\n        /* \"#utility.yul\":20462:20593   */\n      tag_248\n      jump\t// in\n    tag_431:\n        /* \"#utility.yul\":20454:20593   */\n      swap1\n      pop\n        /* \"#utility.yul\":20181:20600   */\n      swap2\n      swap1\n      pop\n      jump\t// out\n        /* \"#utility.yul\":20606:20797   */\n    tag_180:\n        /* \"#utility.yul\":20646:20649   */\n      0x00\n        /* \"#utility.yul\":20665:20685   */\n      tag_433\n        /* \"#utility.yul\":20683:20684   */\n      dup3\n        /* \"#utility.yul\":20665:20685   */\n      tag_213\n      jump\t// in\n    tag_433:\n        /* \"#utility.yul\":20660:20685   */\n      swap2\n      pop\n        /* \"#utility.yul\":20699:20719   */\n      tag_434\n        /* \"#utility.yul\":20717:20718   */\n      dup4\n        /* \"#utility.yul\":20699:20719   */\n      tag_213\n      jump\t// in\n    tag_434:\n        /* \"#utility.yul\":20694:20719   */\n      swap3\n      pop\n        /* \"#utility.yul\":20742:20743   */\n      dup3\n        /* \"#utility.yul\":20739:20740   */\n      dup3\n        /* \"#utility.yul\":20735:20744   */\n      add\n        /* \"#utility.yul\":20728:20744   */\n      swap1\n      pop\n        /* \"#utility.yul\":20763:20766   */\n      dup1\n        /* \"#utility.yul\":20760:20761   */\n      dup3\n        /* \"#utility.yul\":20757:20767   */\n      gt\n        /* \"#utility.yul\":20754:20790   */\n      iszero\n      tag_435\n      jumpi\n        /* \"#utility.yul\":20770:20788   */\n      tag_436\n      tag_227\n      jump\t// in\n    tag_436:\n        /* \"#utility.yul\":20754:20790   */\n    tag_435:\n        /* \"#utility.yul\":20606:20797   */\n      swap3\n      swap2\n      pop\n      pop\n      jump\t// out\n        /* \"#utility.yul\":20803:20982   */\n    tag_249:\n        /* \"#utility.yul\":20943:20974   */\n      0x4c6f636b20706572696f6420686173206e6f7420656e64656420796574000000\n        /* \"#utility.yul\":20939:20940   */\n      0x00\n        /* \"#utility.yul\":20931:20937   */\n      dup3\n        /* \"#utility.yul\":20927:20941   */\n      add\n        /* \"#utility.yul\":20920:20975   */\n      mstore\n        /* \"#utility.yul\":20803:20982   */\n      pop\n      jump\t// out\n        /* \"#utility.yul\":20988:21354   */\n    tag_250:\n        /* \"#utility.yul\":21130:21133   */\n      0x00\n        /* \"#utility.yul\":21151:21218   */\n      tag_439\n        /* \"#utility.yul\":21215:21217   */\n      0x1d\n        /* \"#utility.yul\":21210:21213   */\n      dup4\n        /* \"#utility.yul\":21151:21218   */\n      tag_202\n      jump\t// in\n    tag_439:\n        /* \"#utility.yul\":21144:21218   */\n      swap2\n      pop\n        /* \"#utility.yul\":21227:21320   */\n      tag_440\n        /* \"#utility.yul\":21316:21319   */\n      dup3\n        /* \"#utility.yul\":21227:21320   */\n      tag_249\n      jump\t// in\n    tag_440:\n        /* \"#utility.yul\":21345:21347   */\n      0x20\n        /* \"#utility.yul\":21340:21343   */\n      dup3\n        /* \"#utility.yul\":21336:21348   */\n      add\n        /* \"#utility.yul\":21329:21348   */\n      swap1\n      pop\n        /* \"#utility.yul\":20988:21354   */\n      swap2\n      swap1\n      pop\n      jump\t// out\n        /* \"#utility.yul\":21360:21779   */\n    tag_189:\n        /* \"#utility.yul\":21526:21530   */\n      0x00\n        /* \"#utility.yul\":21564:21566   */\n      0x20\n        /* \"#utility.yul\":21553:21562   */\n      dup3\n        /* \"#utility.yul\":21549:21567   */\n      add\n        /* \"#utility.yul\":21541:21567   */\n      swap1\n      pop\n        /* \"#utility.yul\":21613:21622   */\n      dup2\n        /* \"#utility.yul\":21607:21611   */\n      dup2\n        /* \"#utility.yul\":21603:21623   */\n      sub\n        /* \"#utility.yul\":21599:21600   */\n      0x00\n        /* \"#utility.yul\":21588:21597   */\n      dup4\n        /* \"#utility.yul\":21584:21601   */\n      add\n        /* \"#utility.yul\":21577:21624   */\n      mstore\n        /* \"#utility.yul\":21641:21772   */\n      tag_442\n        /* \"#utility.yul\":21767:21771   */\n      dup2\n        /* \"#utility.yul\":21641:21772   */\n      tag_250\n      jump\t// in\n    tag_442:\n        /* \"#utility.yul\":21633:21772   */\n      swap1\n      pop\n        /* \"#utility.yul\":21360:21779   */\n      swap2\n      swap1\n      pop\n      jump\t// out\n        /* \"#utility.yul\":21785:21962   */\n    tag_251:\n        /* \"#utility.yul\":21925:21954   */\n      0x4e6f206c6f636b656420746f6b656e7320746f2072656c656173650000000000\n        /* \"#utility.yul\":21921:21922   */\n      0x00\n        /* \"#utility.yul\":21913:21919   */\n      dup3\n        /* \"#utility.yul\":21909:21923   */\n      add\n        /* \"#utility.yul\":21902:21955   */\n      mstore\n        /* \"#utility.yul\":21785:21962   */\n      pop\n      jump\t// out\n        /* \"#utility.yul\":21968:22334   */\n    tag_252:\n        /* \"#utility.yul\":22110:22113   */\n      0x00\n        /* \"#utility.yul\":22131:22198   */\n      tag_445\n        /* \"#utility.yul\":22195:22197   */\n      0x1b\n        /* \"#utility.yul\":22190:22193   */\n      dup4\n        /* \"#utility.yul\":22131:22198   */\n      tag_202\n      jump\t// in\n    tag_445:\n        /* \"#utility.yul\":22124:22198   */\n      swap2\n      pop\n        /* \"#utility.yul\":22207:22300   */\n      tag_446\n        /* \"#utility.yul\":22296:22299   */\n      dup3\n        /* \"#utility.yul\":22207:22300   */\n      tag_251\n      jump\t// in\n    tag_446:\n        /* \"#utility.yul\":22325:22327   */\n      0x20\n        /* \"#utility.yul\":22320:22323   */\n      dup3\n        /* \"#utility.yul\":22316:22328   */\n      add\n        /* \"#utility.yul\":22309:22328   */\n      swap1\n      pop\n        /* \"#utility.yul\":21968:22334   */\n      swap2\n      swap1\n      pop\n      jump\t// out\n        /* \"#utility.yul\":22340:22759   */\n    tag_192:\n        /* \"#utility.yul\":22506:22510   */\n      0x00\n        /* \"#utility.yul\":22544:22546   */\n      0x20\n        /* \"#utility.yul\":22533:22542   */\n      dup3\n        /* \"#utility.yul\":22529:22547   */\n      add\n        /* \"#utility.yul\":22521:22547   */\n      swap1\n      pop\n        /* \"#utility.yul\":22593:22602   */\n      dup2\n        /* \"#utility.yul\":22587:22591   */\n      dup2\n        /* \"#utility.yul\":22583:22603   */\n      sub\n        /* \"#utility.yul\":22579:22580   */\n      0x00\n        /* \"#utility.yul\":22568:22577   */\n      dup4\n        /* \"#utility.yul\":22564:22581   */\n      add\n        /* \"#utility.yul\":22557:22604   */\n      mstore\n        /* \"#utility.yul\":22621:22752   */\n      tag_448\n        /* \"#utility.yul\":22747:22751   */\n      dup2\n        /* \"#utility.yul\":22621:22752   */\n      tag_252\n      jump\t// in\n    tag_448:\n        /* \"#utility.yul\":22613:22752   */\n      swap1\n      pop\n        /* \"#utility.yul\":22340:22759   */\n      swap2\n      swap1\n      pop\n      jump\t// out\n\n    auxdata: 0xa2646970667358221220a373e6d2d65fbe595fb463fdc9d4afbf4c6d7ef67ebeaf7c8de1a967983e63fe64736f6c63430008120033\n}\n",
				"bytecode": {
					"linkReferences": {},
					"object": "60806040523480156200001157600080fd5b50604051620030ee380380620030ee833981810160405281019062000037919062000580565b600073ffffffffffffffffffffffffffffffffffffffff168373ffffffffffffffffffffffffffffffffffffffff1603620000a9576040517f08c379a0000000000000000000000000000000000000000000000000000000008152600401620000a09062000663565b60405180910390fd5b600073ffffffffffffffffffffffffffffffffffffffff168273ffffffffffffffffffffffffffffffffffffffff16036200011b576040517f08c379a00000000000000000000000000000000000000000000000000000000081526004016200011290620006d5565b60405180910390fd5b33600260006101000a81548173ffffffffffffffffffffffffffffffffffffffff021916908373ffffffffffffffffffffffffffffffffffffffff16021790555082600360006101000a81548173ffffffffffffffffffffffffffffffffffffffff021916908373ffffffffffffffffffffffffffffffffffffffff16021790555081600460006101000a81548173ffffffffffffffffffffffffffffffffffffffff021916908373ffffffffffffffffffffffffffffffffffffffff16021790555062278d0081620001ef919062000726565b6008819055506008544262000205919062000771565b60098190555060646005601260ff16600a62000222919062000900565b6305f5e10062000233919062000726565b6200023f919062000726565b6200024b919062000980565b600581905550600554600080600460009054906101000a900473ffffffffffffffffffffffffffffffffffffffff1673ffffffffffffffffffffffffffffffffffffffff1673ffffffffffffffffffffffffffffffffffffffff1681526020019081526020016000208190555060646028601260ff16600a620002cf919062000900565b6305f5e100620002e0919062000726565b620002ec919062000726565b620002f8919062000980565b600080600360009054906101000a900473ffffffffffffffffffffffffffffffffffffffff1673ffffffffffffffffffffffffffffffffffffffff1673ffffffffffffffffffffffffffffffffffffffff16815260200190815260200160002081905550600460009054906101000a900473ffffffffffffffffffffffffffffffffffffffff1673ffffffffffffffffffffffffffffffffffffffff16600073ffffffffffffffffffffffffffffffffffffffff167fddf252ad1be2c89b69c2b068fc378daa952ba7f163c4a11628f55a4df523b3ef600554604051620003e09190620009c9565b60405180910390a3600360009054906101000a900473ffffffffffffffffffffffffffffffffffffffff1673ffffffffffffffffffffffffffffffffffffffff16600073ffffffffffffffffffffffffffffffffffffffff167fddf252ad1be2c89b69c2b068fc378daa952ba7f163c4a11628f55a4df523b3ef600080600360009054906101000a900473ffffffffffffffffffffffffffffffffffffffff1673ffffffffffffffffffffffffffffffffffffffff1673ffffffffffffffffffffffffffffffffffffffff16815260200190815260200160002054604051620004ca9190620009c9565b60405180910390a3505050620009e6565b600080fd5b600073ffffffffffffffffffffffffffffffffffffffff82169050919050565b60006200050d82620004e0565b9050919050565b6200051f8162000500565b81146200052b57600080fd5b50565b6000815190506200053f8162000514565b92915050565b6000819050919050565b6200055a8162000545565b81146200056657600080fd5b50565b6000815190506200057a816200054f565b92915050565b6000806000606084860312156200059c576200059b620004db565b5b6000620005ac868287016200052e565b9350506020620005bf868287016200052e565b9250506040620005d28682870162000569565b9150509250925092565b600082825260208201905092915050565b7f496e76616c696420646576656c6f706d656e74207465616d2077616c6c65742060008201527f6164647265737300000000000000000000000000000000000000000000000000602082015250565b60006200064b602783620005dc565b91506200065882620005ed565b604082019050919050565b600060208201905081810360008301526200067e816200063c565b9050919050565b7f496e76616c696420666f756e6465722061646472657373000000000000000000600082015250565b6000620006bd601783620005dc565b9150620006ca8262000685565b602082019050919050565b60006020820190508181036000830152620006f081620006ae565b9050919050565b7f4e487b7100000000000000000000000000000000000000000000000000000000600052601160045260246000fd5b6000620007338262000545565b9150620007408362000545565b9250828202620007508162000545565b915082820484148315176200076a5762000769620006f7565b5b5092915050565b60006200077e8262000545565b91506200078b8362000545565b9250828201905080821115620007a657620007a5620006f7565b5b92915050565b60008160011c9050919050565b6000808291508390505b60018511156200080b57808604811115620007e357620007e2620006f7565b5b6001851615620007f35780820291505b80810290506200080385620007ac565b9450620007c3565b94509492505050565b600082620008265760019050620008f9565b81620008365760009050620008f9565b81600181146200084f57600281146200085a5762000890565b6001915050620008f9565b60ff8411156200086f576200086e620006f7565b5b8360020a915084821115620008895762000888620006f7565b5b50620008f9565b5060208310610133831016604e8410600b8410161715620008ca5782820a905083811115620008c457620008c3620006f7565b5b620008f9565b620008d98484846001620007b9565b92509050818404811115620008f357620008f2620006f7565b5b81810290505b9392505050565b60006200090d8262000545565b91506200091a8362000545565b9250620009497fffffffffffffffffffffffffffffffffffffffffffffffffffffffffffffffff848462000814565b905092915050565b7f4e487b7100000000000000000000000000000000000000000000000000000000600052601260045260246000fd5b60006200098d8262000545565b91506200099a8362000545565b925082620009ad57620009ac62000951565b5b828204905092915050565b620009c38162000545565b82525050565b6000602082019050620009e06000830184620009b8565b92915050565b6126f880620009f66000396000f3fe608060405234801561001057600080fd5b50600436106100f55760003560e01c806370a0823111610097578063a9059cbb11610066578063a9059cbb14610286578063b1c25586146102b6578063dd62ed3e146102d2578063fbd42e0f14610302576100f5565b806370a08231146101ec57806374eb9b681461021c578063905295e31461024c57806395d89b4114610268576100f5565b806323b872dd116100d357806323b872dd14610166578063313ce567146101965780633b81c1ec146101b457806347a64f44146101d0576100f5565b806306fdde03146100fa578063095ea7b31461011857806318160ddd14610148575b600080fd5b61010261030c565b60405161010f9190611be5565b60405180910390f35b610132600480360381019061012d9190611ca0565b610345565b60405161013f9190611cfb565b60405180910390f35b6101506105c7565b60405161015d9190611d25565b60405180910390f35b610180600480360381019061017b9190611d40565b6105ea565b60405161018d9190611cfb565b60405180910390f35b61019e6109d3565b6040516101ab9190611daf565b60405180910390f35b6101ce60048036038101906101c99190611ca0565b6109d8565b005b6101ea60048036038101906101e59190611dca565b610bab565b005b61020660048036038101906102019190611dca565b610d95565b6040516102139190611d25565b60405180910390f35b61023660048036038101906102319190611dca565b610e3c565b6040516102439190611cfb565b60405180910390f35b61026660048036038101906102619190611dca565b610f00565b005b6102706110ea565b60405161027d9190611be5565b60405180910390f35b6102a0600480360381019061029b9190611ca0565b611123565b6040516102ad9190611cfb565b60405180910390f35b6102d060048036038101906102cb9190611ca0565b61134b565b005b6102ec60048036038101906102e79190611df7565b611670565b6040516102f99190611d25565b60405180910390f35b61030a6116f7565b005b6040518060400160405280600981526020017f44494153434841494e000000000000000000000000000000000000000000000081525081565b600033600260009054906101000a900473ffffffffffffffffffffffffffffffffffffffff1673ffffffffffffffffffffffffffffffffffffffff168173ffffffffffffffffffffffffffffffffffffffff16036103d8576040517f08c379a00000000000000000000000000000000000000000000000000000000081526004016103cf90611ea9565b60405180910390fd5b33600660008273ffffffffffffffffffffffffffffffffffffffff1673ffffffffffffffffffffffffffffffffffffffff16815260200190815260200160002060009054906101000a900460ff1615610466576040517f08c379a000000000000000000000000000000000000000000000000000000000815260040161045d90611f15565b60405180910390fd5b600073ffffffffffffffffffffffffffffffffffffffff168573ffffffffffffffffffffffffffffffffffffffff16036104d5576040517f08c379a00000000000000000000000000000000000000000000000000000000081526004016104cc90611f81565b60405180910390fd5b83600160003373ffffffffffffffffffffffffffffffffffffffff1673ffffffffffffffffffffffffffffffffffffffff16815260200190815260200160002060008773ffffffffffffffffffffffffffffffffffffffff1673ffffffffffffffffffffffffffffffffffffffff168152602001908152602001600020819055508473ffffffffffffffffffffffffffffffffffffffff163373ffffffffffffffffffffffffffffffffffffffff167f8c5be1e5ebec7d5bd14f71427d1e84f3dd0314c0f7b2291e5b200ac8c7c3b925866040516105b39190611d25565b60405180910390a360019250505092915050565b601260ff16600a6105d89190612103565b6305f5e1006105e7919061214e565b81565b600083600260009054906101000a900473ffffffffffffffffffffffffffffffffffffffff1673ffffffffffffffffffffffffffffffffffffffff168173ffffffffffffffffffffffffffffffffffffffff160361067d576040517f08c379a000000000000000000000000000000000000000000000000000000000815260040161067490611ea9565b60405180910390fd5b84600660008273ffffffffffffffffffffffffffffffffffffffff1673ffffffffffffffffffffffffffffffffffffffff16815260200190815260200160002060009054906101000a900460ff161561070b576040517f08c379a000000000000000000000000000000000000000000000000000000000815260040161070290611f15565b60405180910390fd5b600073ffffffffffffffffffffffffffffffffffffffff168673ffffffffffffffffffffffffffffffffffffffff160361077a576040517f08c379a0000000000000000000000000000000000000000000000000000000008152600401610771906121dc565b60405180910390fd5b600073ffffffffffffffffffffffffffffffffffffffff168573ffffffffffffffffffffffffffffffffffffffff16036107e9576040517f08c379a00000000000000000000000000000000000000000000000000000000081526004016107e090612248565b60405180910390fd5b6000808773ffffffffffffffffffffffffffffffffffffffff1673ffffffffffffffffffffffffffffffffffffffff1681526020019081526020016000205484111561086a576040517f08c379a0000000000000000000000000000000000000000000000000000000008152600401610861906122b4565b60405180910390fd5b600160008773ffffffffffffffffffffffffffffffffffffffff1673ffffffffffffffffffffffffffffffffffffffff16815260200190815260200160002060003373ffffffffffffffffffffffffffffffffffffffff1673ffffffffffffffffffffffffffffffffffffffff16815260200190815260200160002054841115610929576040517f08c379a000000000000000000000000000000000000000000000000000000000815260040161092090612320565b60405180910390fd5b610934868686611956565b6109c6863386600160008b73ffffffffffffffffffffffffffffffffffffffff1673ffffffffffffffffffffffffffffffffffffffff16815260200190815260200160002060003373ffffffffffffffffffffffffffffffffffffffff1673ffffffffffffffffffffffffffffffffffffffff168152602001908152602001600020546109c19190612340565b611a6a565b6001925050509392505050565b601281565b600260009054906101000a900473ffffffffffffffffffffffffffffffffffffffff1673ffffffffffffffffffffffffffffffffffffffff163373ffffffffffffffffffffffffffffffffffffffff1614610a68576040517f08c379a0000000000000000000000000000000000000000000000000000000008152600401610a5f906123e6565b60405180910390fd5b600073ffffffffffffffffffffffffffffffffffffffff168273ffffffffffffffffffffffffffffffffffffffff1603610ad7576040517f08c379a0000000000000000000000000000000000000000000000000000000008152600401610ace90612248565b60405180910390fd5b600080600360009054906101000a900473ffffffffffffffffffffffffffffffffffffffff1673ffffffffffffffffffffffffffffffffffffffff1673ffffffffffffffffffffffffffffffffffffffff16815260200190815260200160002054811115610b7a576040517f08c379a0000000000000000000000000000000000000000000000000000000008152600401610b71906122b4565b60405180910390fd5b610ba7600360009054906101000a900473ffffffffffffffffffffffffffffffffffffffff168383611956565b5050565b600260009054906101000a900473ffffffffffffffffffffffffffffffffffffffff1673ffffffffffffffffffffffffffffffffffffffff163373ffffffffffffffffffffffffffffffffffffffff1614610c3b576040517f08c379a0000000000000000000000000000000000000000000000000000000008152600401610c32906123e6565b60405180910390fd5b600073ffffffffffffffffffffffffffffffffffffffff168173ffffffffffffffffffffffffffffffffffffffff1603610caa576040517f08c379a0000000000000000000000000000000000000000000000000000000008152600401610ca190612452565b60405180910390fd5b600260009054906101000a900473ffffffffffffffffffffffffffffffffffffffff1673ffffffffffffffffffffffffffffffffffffffff168173ffffffffffffffffffffffffffffffffffffffff1603610d3a576040517f08c379a0000000000000000000000000000000000000000000000000000000008152600401610d31906124be565b60405180910390fd5b6001600660008373ffffffffffffffffffffffffffffffffffffffff1673ffffffffffffffffffffffffffffffffffffffff16815260200190815260200160002060006101000a81548160ff02191690831515021790555050565b6000600260009054906101000a900473ffffffffffffffffffffffffffffffffffffffff1673ffffffffffffffffffffffffffffffffffffffff168273ffffffffffffffffffffffffffffffffffffffff1603610df55760009050610e37565b6000808373ffffffffffffffffffffffffffffffffffffffff1673ffffffffffffffffffffffffffffffffffffffff1681526020019081526020016000205490505b919050565b60008073ffffffffffffffffffffffffffffffffffffffff168273ffffffffffffffffffffffffffffffffffffffff1603610eac576040517f08c379a0000000000000000000000000000000000000000000000000000000008152600401610ea390612452565b60405180910390fd5b600660008373ffffffffffffffffffffffffffffffffffffffff1673ffffffffffffffffffffffffffffffffffffffff16815260200190815260200160002060009054906101000a900460ff169050919050565b600260009054906101000a900473ffffffffffffffffffffffffffffffffffffffff1673ffffffffffffffffffffffffffffffffffffffff163373ffffffffffffffffffffffffffffffffffffffff1614610f90576040517f08c379a0000000000000000000000000000000000000000000000000000000008152600401610f87906123e6565b60405180910390fd5b600073ffffffffffffffffffffffffffffffffffffffff168173ffffffffffffffffffffffffffffffffffffffff1603610fff576040517f08c379a0000000000000000000000000000000000000000000000000000000008152600401610ff690612452565b60405180910390fd5b600260009054906101000a900473ffffffffffffffffffffffffffffffffffffffff1673ffffffffffffffffffffffffffffffffffffffff168173ffffffffffffffffffffffffffffffffffffffff160361108f576040517f08c379a00000000000000000000000000000000000000000000000000000000081526004016110869061252a565b60405180910390fd5b6000600660008373ffffffffffffffffffffffffffffffffffffffff1673ffffffffffffffffffffffffffffffffffffffff16815260200190815260200160002060006101000a81548160ff02191690831515021790555050565b6040518060400160405280600481526020017f444941530000000000000000000000000000000000000000000000000000000081525081565b600033600260009054906101000a900473ffffffffffffffffffffffffffffffffffffffff1673ffffffffffffffffffffffffffffffffffffffff168173ffffffffffffffffffffffffffffffffffffffff16036111b6576040517f08c379a00000000000000000000000000000000000000000000000000000000081526004016111ad90611ea9565b60405180910390fd5b33600660008273ffffffffffffffffffffffffffffffffffffffff1673ffffffffffffffffffffffffffffffffffffffff16815260200190815260200160002060009054906101000a900460ff1615611244576040517f08c379a000000000000000000000000000000000000000000000000000000000815260040161123b90611f15565b60405180910390fd5b600073ffffffffffffffffffffffffffffffffffffffff168573ffffffffffffffffffffffffffffffffffffffff16036112b3576040517f08c379a00000000000000000000000000000000000000000000000000000000081526004016112aa90612248565b60405180910390fd5b6000803373ffffffffffffffffffffffffffffffffffffffff1673ffffffffffffffffffffffffffffffffffffffff16815260200190815260200160002054841115611334576040517f08c379a000000000000000000000000000000000000000000000000000000000815260040161132b906122b4565b60405180910390fd5b61133f338686611956565b60019250505092915050565b600260009054906101000a900473ffffffffffffffffffffffffffffffffffffffff1673ffffffffffffffffffffffffffffffffffffffff163373ffffffffffffffffffffffffffffffffffffffff16146113db576040517f08c379a00000000000000000000000000000000000000000000000000000000081526004016113d2906123e6565b60405180910390fd5b600073ffffffffffffffffffffffffffffffffffffffff168273ffffffffffffffffffffffffffffffffffffffff160361144a576040517f08c379a000000000000000000000000000000000000000000000000000000000815260040161144190612452565b60405180910390fd5b600260009054906101000a900473ffffffffffffffffffffffffffffffffffffffff1673ffffffffffffffffffffffffffffffffffffffff168273ffffffffffffffffffffffffffffffffffffffff16036114da576040517f08c379a00000000000000000000000000000000000000000000000000000000081526004016114d190612596565b60405180910390fd5b6000808373ffffffffffffffffffffffffffffffffffffffff1673ffffffffffffffffffffffffffffffffffffffff1681526020019081526020016000205481111561155b576040517f08c379a0000000000000000000000000000000000000000000000000000000008152600401611552906122b4565b60405180910390fd5b806000808473ffffffffffffffffffffffffffffffffffffffff1673ffffffffffffffffffffffffffffffffffffffff16815260200190815260200160002060008282546115a99190612340565b9250508190555080600760008473ffffffffffffffffffffffffffffffffffffffff1673ffffffffffffffffffffffffffffffffffffffff16815260200190815260200160002060008282546115ff91906125b6565b92505081905550600073ffffffffffffffffffffffffffffffffffffffff168273ffffffffffffffffffffffffffffffffffffffff167fddf252ad1be2c89b69c2b068fc378daa952ba7f163c4a11628f55a4df523b3ef836040516116649190611d25565b60405180910390a35050565b6000600160008473ffffffffffffffffffffffffffffffffffffffff1673ffffffffffffffffffffffffffffffffffffffff16815260200190815260200160002060008373ffffffffffffffffffffffffffffffffffffffff1673ffffffffffffffffffffffffffffffffffffffff16815260200190815260200160002054905092915050565b600260009054906101000a900473ffffffffffffffffffffffffffffffffffffffff1673ffffffffffffffffffffffffffffffffffffffff163373ffffffffffffffffffffffffffffffffffffffff1614611787576040517f08c379a000000000000000000000000000000000000000000000000000000000815260040161177e906123e6565b60405180910390fd5b6009544210156117cc576040517f08c379a00000000000000000000000000000000000000000000000000000000081526004016117c390612636565b60405180910390fd5b6000600760003373ffffffffffffffffffffffffffffffffffffffff1673ffffffffffffffffffffffffffffffffffffffff16815260200190815260200160002054905060008111611853576040517f08c379a000000000000000000000000000000000000000000000000000000000815260040161184a906126a2565b60405180910390fd5b806000803373ffffffffffffffffffffffffffffffffffffffff1673ffffffffffffffffffffffffffffffffffffffff16815260200190815260200160002060008282546118a191906125b6565b925050819055506000600760003373ffffffffffffffffffffffffffffffffffffffff1673ffffffffffffffffffffffffffffffffffffffff168152602001908152602001600020819055503373ffffffffffffffffffffffffffffffffffffffff16600073ffffffffffffffffffffffffffffffffffffffff167fddf252ad1be2c89b69c2b068fc378daa952ba7f163c4a11628f55a4df523b3ef8360405161194b9190611d25565b60405180910390a350565b806000808573ffffffffffffffffffffffffffffffffffffffff1673ffffffffffffffffffffffffffffffffffffffff16815260200190815260200160002060008282546119a49190612340565b92505081905550806000808473ffffffffffffffffffffffffffffffffffffffff1673ffffffffffffffffffffffffffffffffffffffff16815260200190815260200160002060008282546119f991906125b6565b925050819055508173ffffffffffffffffffffffffffffffffffffffff168373ffffffffffffffffffffffffffffffffffffffff167fddf252ad1be2c89b69c2b068fc378daa952ba7f163c4a11628f55a4df523b3ef83604051611a5d9190611d25565b60405180910390a3505050565b80600160008573ffffffffffffffffffffffffffffffffffffffff1673ffffffffffffffffffffffffffffffffffffffff16815260200190815260200160002060008473ffffffffffffffffffffffffffffffffffffffff1673ffffffffffffffffffffffffffffffffffffffff168152602001908152602001600020819055508173ffffffffffffffffffffffffffffffffffffffff168373ffffffffffffffffffffffffffffffffffffffff167f8c5be1e5ebec7d5bd14f71427d1e84f3dd0314c0f7b2291e5b200ac8c7c3b92583604051611b489190611d25565b60405180910390a3505050565b600081519050919050565b600082825260208201905092915050565b60005b83811015611b8f578082015181840152602081019050611b74565b60008484015250505050565b6000601f19601f8301169050919050565b6000611bb782611b55565b611bc18185611b60565b9350611bd1818560208601611b71565b611bda81611b9b565b840191505092915050565b60006020820190508181036000830152611bff8184611bac565b905092915050565b600080fd5b600073ffffffffffffffffffffffffffffffffffffffff82169050919050565b6000611c3782611c0c565b9050919050565b611c4781611c2c565b8114611c5257600080fd5b50565b600081359050611c6481611c3e565b92915050565b6000819050919050565b611c7d81611c6a565b8114611c8857600080fd5b50565b600081359050611c9a81611c74565b92915050565b60008060408385031215611cb757611cb6611c07565b5b6000611cc585828601611c55565b9250506020611cd685828601611c8b565b9150509250929050565b60008115159050919050565b611cf581611ce0565b82525050565b6000602082019050611d106000830184611cec565b92915050565b611d1f81611c6a565b82525050565b6000602082019050611d3a6000830184611d16565b92915050565b600080600060608486031215611d5957611d58611c07565b5b6000611d6786828701611c55565b9350506020611d7886828701611c55565b9250506040611d8986828701611c8b565b9150509250925092565b600060ff82169050919050565b611da981611d93565b82525050565b6000602082019050611dc46000830184611da0565b92915050565b600060208284031215611de057611ddf611c07565b5b6000611dee84828501611c55565b91505092915050565b60008060408385031215611e0e57611e0d611c07565b5b6000611e1c85828601611c55565b9250506020611e2d85828601611c55565b9150509250929050565b7f4465706c6f79657220616464726573732063616e6e6f7420706572666f726d2060008201527f7468697320616374696f6e000000000000000000000000000000000000000000602082015250565b6000611e93602b83611b60565b9150611e9e82611e37565b604082019050919050565b60006020820190508181036000830152611ec281611e86565b9050919050565b7f4163636f756e74206973206c6f636b6564000000000000000000000000000000600082015250565b6000611eff601183611b60565b9150611f0a82611ec9565b602082019050919050565b60006020820190508181036000830152611f2e81611ef2565b9050919050565b7f496e76616c6964207370656e6465720000000000000000000000000000000000600082015250565b6000611f6b600f83611b60565b9150611f7682611f35565b602082019050919050565b60006020820190508181036000830152611f9a81611f5e565b9050919050565b7f4e487b7100000000000000000000000000000000000000000000000000000000600052601160045260246000fd5b60008160011c9050919050565b6000808291508390505b60018511156120275780860481111561200357612002611fa1565b5b60018516156120125780820291505b808102905061202085611fd0565b9450611fe7565b94509492505050565b60008261204057600190506120fc565b8161204e57600090506120fc565b8160018114612064576002811461206e5761209d565b60019150506120fc565b60ff8411156120805761207f611fa1565b5b8360020a91508482111561209757612096611fa1565b5b506120fc565b5060208310610133831016604e8410600b84101617156120d25782820a9050838111156120cd576120cc611fa1565b5b6120fc565b6120df8484846001611fdd565b925090508184048111156120f6576120f5611fa1565b5b81810290505b9392505050565b600061210e82611c6a565b915061211983611c6a565b92506121467fffffffffffffffffffffffffffffffffffffffffffffffffffffffffffffffff8484612030565b905092915050565b600061215982611c6a565b915061216483611c6a565b925082820261217281611c6a565b9150828204841483151761218957612188611fa1565b5b5092915050565b7f496e76616c69642073656e646572000000000000000000000000000000000000600082015250565b60006121c6600e83611b60565b91506121d182612190565b602082019050919050565b600060208201905081810360008301526121f5816121b9565b9050919050565b7f496e76616c696420726563697069656e74000000000000000000000000000000600082015250565b6000612232601183611b60565b915061223d826121fc565b602082019050919050565b6000602082019050818103600083015261226181612225565b9050919050565b7f496e73756666696369656e742062616c616e6365000000000000000000000000600082015250565b600061229e601483611b60565b91506122a982612268565b602082019050919050565b600060208201905081810360008301526122cd81612291565b9050919050565b7f496e73756666696369656e7420616c6c6f77616e636500000000000000000000600082015250565b600061230a601683611b60565b9150612315826122d4565b602082019050919050565b60006020820190508181036000830152612339816122fd565b9050919050565b600061234b82611c6a565b915061235683611c6a565b925082820390508181111561236e5761236d611fa1565b5b92915050565b7f4f6e6c7920746865206465706c6f7965722063616e2063616c6c20746869732060008201527f66756e6374696f6e000000000000000000000000000000000000000000000000602082015250565b60006123d0602883611b60565b91506123db82612374565b604082019050919050565b600060208201905081810360008301526123ff816123c3565b9050919050565b7f496e76616c6964206163636f756e740000000000000000000000000000000000600082015250565b600061243c600f83611b60565b915061244782612406565b602082019050919050565b6000602082019050818103600083015261246b8161242f565b9050919050565b7f43616e6e6f74206c6f636b206465706c6f7965722773206163636f756e740000600082015250565b60006124a8601e83611b60565b91506124b382612472565b602082019050919050565b600060208201905081810360008301526124d78161249b565b9050919050565b7f43616e6e6f7420756e6c6f636b206465706c6f7965722773206163636f756e74600082015250565b6000612514602083611b60565b915061251f826124de565b602082019050919050565b6000602082019050818103600083015261254381612507565b9050919050565b7f43616e6e6f74206c6f636b206465706c6f796572277320746f6b656e73000000600082015250565b6000612580601d83611b60565b915061258b8261254a565b602082019050919050565b600060208201905081810360008301526125af81612573565b9050919050565b60006125c182611c6a565b91506125cc83611c6a565b92508282019050808211156125e4576125e3611fa1565b5b92915050565b7f4c6f636b20706572696f6420686173206e6f7420656e64656420796574000000600082015250565b6000612620601d83611b60565b915061262b826125ea565b602082019050919050565b6000602082019050818103600083015261264f81612613565b9050919050565b7f4e6f206c6f636b656420746f6b656e7320746f2072656c656173650000000000600082015250565b600061268c601b83611b60565b915061269782612656565b602082019050919050565b600060208201905081810360008301526126bb8161267f565b905091905056fea2646970667358221220a373e6d2d65fbe595fb463fdc9d4afbf4c6d7ef67ebeaf7c8de1a967983e63fe64736f6c63430008120033",
					"opcodes": "PUSH1 0x80 PUSH1 0x40 MSTORE CALLVALUE DUP1 ISZERO PUSH3 0x11 JUMPI PUSH1 0x0 DUP1 REVERT JUMPDEST POP PUSH1 0x40 MLOAD PUSH3 0x30EE CODESIZE SUB DUP1 PUSH3 0x30EE DUP4 CODECOPY DUP2 DUP2 ADD PUSH1 0x40 MSTORE DUP2 ADD SWAP1 PUSH3 0x37 SWAP2 SWAP1 PUSH3 0x580 JUMP JUMPDEST PUSH1 0x0 PUSH20 0xFFFFFFFFFFFFFFFFFFFFFFFFFFFFFFFFFFFFFFFF AND DUP4 PUSH20 0xFFFFFFFFFFFFFFFFFFFFFFFFFFFFFFFFFFFFFFFF AND SUB PUSH3 0xA9 JUMPI PUSH1 0x40 MLOAD PUSH32 0x8C379A000000000000000000000000000000000000000000000000000000000 DUP2 MSTORE PUSH1 0x4 ADD PUSH3 0xA0 SWAP1 PUSH3 0x663 JUMP JUMPDEST PUSH1 0x40 MLOAD DUP1 SWAP2 SUB SWAP1 REVERT JUMPDEST PUSH1 0x0 PUSH20 0xFFFFFFFFFFFFFFFFFFFFFFFFFFFFFFFFFFFFFFFF AND DUP3 PUSH20 0xFFFFFFFFFFFFFFFFFFFFFFFFFFFFFFFFFFFFFFFF AND SUB PUSH3 0x11B JUMPI PUSH1 0x40 MLOAD PUSH32 0x8C379A000000000000000000000000000000000000000000000000000000000 DUP2 MSTORE PUSH1 0x4 ADD PUSH3 0x112 SWAP1 PUSH3 0x6D5 JUMP JUMPDEST PUSH1 0x40 MLOAD DUP1 SWAP2 SUB SWAP1 REVERT JUMPDEST CALLER PUSH1 0x2 PUSH1 0x0 PUSH2 0x100 EXP DUP2 SLOAD DUP2 PUSH20 0xFFFFFFFFFFFFFFFFFFFFFFFFFFFFFFFFFFFFFFFF MUL NOT AND SWAP1 DUP4 PUSH20 0xFFFFFFFFFFFFFFFFFFFFFFFFFFFFFFFFFFFFFFFF AND MUL OR SWAP1 SSTORE POP DUP3 PUSH1 0x3 PUSH1 0x0 PUSH2 0x100 EXP DUP2 SLOAD DUP2 PUSH20 0xFFFFFFFFFFFFFFFFFFFFFFFFFFFFFFFFFFFFFFFF MUL NOT AND SWAP1 DUP4 PUSH20 0xFFFFFFFFFFFFFFFFFFFFFFFFFFFFFFFFFFFFFFFF AND MUL OR SWAP1 SSTORE POP DUP2 PUSH1 0x4 PUSH1 0x0 PUSH2 0x100 EXP DUP2 SLOAD DUP2 PUSH20 0xFFFFFFFFFFFFFFFFFFFFFFFFFFFFFFFFFFFFFFFF MUL NOT AND SWAP1 DUP4 PUSH20 0xFFFFFFFFFFFFFFFFFFFFFFFFFFFFFFFFFFFFFFFF AND MUL OR SWAP1 SSTORE POP PUSH3 0x278D00 DUP2 PUSH3 0x1EF SWAP2 SWAP1 PUSH3 0x726 JUMP JUMPDEST PUSH1 0x8 DUP2 SWAP1 SSTORE POP PUSH1 0x8 SLOAD TIMESTAMP PUSH3 0x205 SWAP2 SWAP1 PUSH3 0x771 JUMP JUMPDEST PUSH1 0x9 DUP2 SWAP1 SSTORE POP PUSH1 0x64 PUSH1 0x5 PUSH1 0x12 PUSH1 0xFF AND PUSH1 0xA PUSH3 0x222 SWAP2 SWAP1 PUSH3 0x900 JUMP JUMPDEST PUSH4 0x5F5E100 PUSH3 0x233 SWAP2 SWAP1 PUSH3 0x726 JUMP JUMPDEST PUSH3 0x23F SWAP2 SWAP1 PUSH3 0x726 JUMP JUMPDEST PUSH3 0x24B SWAP2 SWAP1 PUSH3 0x980 JUMP JUMPDEST PUSH1 0x5 DUP2 SWAP1 SSTORE POP PUSH1 0x5 SLOAD PUSH1 0x0 DUP1 PUSH1 0x4 PUSH1 0x0 SWAP1 SLOAD SWAP1 PUSH2 0x100 EXP SWAP1 DIV PUSH20 0xFFFFFFFFFFFFFFFFFFFFFFFFFFFFFFFFFFFFFFFF AND PUSH20 0xFFFFFFFFFFFFFFFFFFFFFFFFFFFFFFFFFFFFFFFF AND PUSH20 0xFFFFFFFFFFFFFFFFFFFFFFFFFFFFFFFFFFFFFFFF AND DUP2 MSTORE PUSH1 0x20 ADD SWAP1 DUP2 MSTORE PUSH1 0x20 ADD PUSH1 0x0 KECCAK256 DUP2 SWAP1 SSTORE POP PUSH1 0x64 PUSH1 0x28 PUSH1 0x12 PUSH1 0xFF AND PUSH1 0xA PUSH3 0x2CF SWAP2 SWAP1 PUSH3 0x900 JUMP JUMPDEST PUSH4 0x5F5E100 PUSH3 0x2E0 SWAP2 SWAP1 PUSH3 0x726 JUMP JUMPDEST PUSH3 0x2EC SWAP2 SWAP1 PUSH3 0x726 JUMP JUMPDEST PUSH3 0x2F8 SWAP2 SWAP1 PUSH3 0x980 JUMP JUMPDEST PUSH1 0x0 DUP1 PUSH1 0x3 PUSH1 0x0 SWAP1 SLOAD SWAP1 PUSH2 0x100 EXP SWAP1 DIV PUSH20 0xFFFFFFFFFFFFFFFFFFFFFFFFFFFFFFFFFFFFFFFF AND PUSH20 0xFFFFFFFFFFFFFFFFFFFFFFFFFFFFFFFFFFFFFFFF AND PUSH20 0xFFFFFFFFFFFFFFFFFFFFFFFFFFFFFFFFFFFFFFFF AND DUP2 MSTORE PUSH1 0x20 ADD SWAP1 DUP2 MSTORE PUSH1 0x20 ADD PUSH1 0x0 KECCAK256 DUP2 SWAP1 SSTORE POP PUSH1 0x4 PUSH1 0x0 SWAP1 SLOAD SWAP1 PUSH2 0x100 EXP SWAP1 DIV PUSH20 0xFFFFFFFFFFFFFFFFFFFFFFFFFFFFFFFFFFFFFFFF AND PUSH20 0xFFFFFFFFFFFFFFFFFFFFFFFFFFFFFFFFFFFFFFFF AND PUSH1 0x0 PUSH20 0xFFFFFFFFFFFFFFFFFFFFFFFFFFFFFFFFFFFFFFFF AND PUSH32 0xDDF252AD1BE2C89B69C2B068FC378DAA952BA7F163C4A11628F55A4DF523B3EF PUSH1 0x5 SLOAD PUSH1 0x40 MLOAD PUSH3 0x3E0 SWAP2 SWAP1 PUSH3 0x9C9 JUMP JUMPDEST PUSH1 0x40 MLOAD DUP1 SWAP2 SUB SWAP1 LOG3 PUSH1 0x3 PUSH1 0x0 SWAP1 SLOAD SWAP1 PUSH2 0x100 EXP SWAP1 DIV PUSH20 0xFFFFFFFFFFFFFFFFFFFFFFFFFFFFFFFFFFFFFFFF AND PUSH20 0xFFFFFFFFFFFFFFFFFFFFFFFFFFFFFFFFFFFFFFFF AND PUSH1 0x0 PUSH20 0xFFFFFFFFFFFFFFFFFFFFFFFFFFFFFFFFFFFFFFFF AND PUSH32 0xDDF252AD1BE2C89B69C2B068FC378DAA952BA7F163C4A11628F55A4DF523B3EF PUSH1 0x0 DUP1 PUSH1 0x3 PUSH1 0x0 SWAP1 SLOAD SWAP1 PUSH2 0x100 EXP SWAP1 DIV PUSH20 0xFFFFFFFFFFFFFFFFFFFFFFFFFFFFFFFFFFFFFFFF AND PUSH20 0xFFFFFFFFFFFFFFFFFFFFFFFFFFFFFFFFFFFFFFFF AND PUSH20 0xFFFFFFFFFFFFFFFFFFFFFFFFFFFFFFFFFFFFFFFF AND DUP2 MSTORE PUSH1 0x20 ADD SWAP1 DUP2 MSTORE PUSH1 0x20 ADD PUSH1 0x0 KECCAK256 SLOAD PUSH1 0x40 MLOAD PUSH3 0x4CA SWAP2 SWAP1 PUSH3 0x9C9 JUMP JUMPDEST PUSH1 0x40 MLOAD DUP1 SWAP2 SUB SWAP1 LOG3 POP POP POP PUSH3 0x9E6 JUMP JUMPDEST PUSH1 0x0 DUP1 REVERT JUMPDEST PUSH1 0x0 PUSH20 0xFFFFFFFFFFFFFFFFFFFFFFFFFFFFFFFFFFFFFFFF DUP3 AND SWAP1 POP SWAP2 SWAP1 POP JUMP JUMPDEST PUSH1 0x0 PUSH3 0x50D DUP3 PUSH3 0x4E0 JUMP JUMPDEST SWAP1 POP SWAP2 SWAP1 POP JUMP JUMPDEST PUSH3 0x51F DUP2 PUSH3 0x500 JUMP JUMPDEST DUP2 EQ PUSH3 0x52B JUMPI PUSH1 0x0 DUP1 REVERT JUMPDEST POP JUMP JUMPDEST PUSH1 0x0 DUP2 MLOAD SWAP1 POP PUSH3 0x53F DUP2 PUSH3 0x514 JUMP JUMPDEST SWAP3 SWAP2 POP POP JUMP JUMPDEST PUSH1 0x0 DUP2 SWAP1 POP SWAP2 SWAP1 POP JUMP JUMPDEST PUSH3 0x55A DUP2 PUSH3 0x545 JUMP JUMPDEST DUP2 EQ PUSH3 0x566 JUMPI PUSH1 0x0 DUP1 REVERT JUMPDEST POP JUMP JUMPDEST PUSH1 0x0 DUP2 MLOAD SWAP1 POP PUSH3 0x57A DUP2 PUSH3 0x54F JUMP JUMPDEST SWAP3 SWAP2 POP POP JUMP JUMPDEST PUSH1 0x0 DUP1 PUSH1 0x0 PUSH1 0x60 DUP5 DUP7 SUB SLT ISZERO PUSH3 0x59C JUMPI PUSH3 0x59B PUSH3 0x4DB JUMP JUMPDEST JUMPDEST PUSH1 0x0 PUSH3 0x5AC DUP7 DUP3 DUP8 ADD PUSH3 0x52E JUMP JUMPDEST SWAP4 POP POP PUSH1 0x20 PUSH3 0x5BF DUP7 DUP3 DUP8 ADD PUSH3 0x52E JUMP JUMPDEST SWAP3 POP POP PUSH1 0x40 PUSH3 0x5D2 DUP7 DUP3 DUP8 ADD PUSH3 0x569 JUMP JUMPDEST SWAP2 POP POP SWAP3 POP SWAP3 POP SWAP3 JUMP JUMPDEST PUSH1 0x0 DUP3 DUP3 MSTORE PUSH1 0x20 DUP3 ADD SWAP1 POP SWAP3 SWAP2 POP POP JUMP JUMPDEST PUSH32 0x496E76616C696420646576656C6F706D656E74207465616D2077616C6C657420 PUSH1 0x0 DUP3 ADD MSTORE PUSH32 0x6164647265737300000000000000000000000000000000000000000000000000 PUSH1 0x20 DUP3 ADD MSTORE POP JUMP JUMPDEST PUSH1 0x0 PUSH3 0x64B PUSH1 0x27 DUP4 PUSH3 0x5DC JUMP JUMPDEST SWAP2 POP PUSH3 0x658 DUP3 PUSH3 0x5ED JUMP JUMPDEST PUSH1 0x40 DUP3 ADD SWAP1 POP SWAP2 SWAP1 POP JUMP JUMPDEST PUSH1 0x0 PUSH1 0x20 DUP3 ADD SWAP1 POP DUP2 DUP2 SUB PUSH1 0x0 DUP4 ADD MSTORE PUSH3 0x67E DUP2 PUSH3 0x63C JUMP JUMPDEST SWAP1 POP SWAP2 SWAP1 POP JUMP JUMPDEST PUSH32 0x496E76616C696420666F756E6465722061646472657373000000000000000000 PUSH1 0x0 DUP3 ADD MSTORE POP JUMP JUMPDEST PUSH1 0x0 PUSH3 0x6BD PUSH1 0x17 DUP4 PUSH3 0x5DC JUMP JUMPDEST SWAP2 POP PUSH3 0x6CA DUP3 PUSH3 0x685 JUMP JUMPDEST PUSH1 0x20 DUP3 ADD SWAP1 POP SWAP2 SWAP1 POP JUMP JUMPDEST PUSH1 0x0 PUSH1 0x20 DUP3 ADD SWAP1 POP DUP2 DUP2 SUB PUSH1 0x0 DUP4 ADD MSTORE PUSH3 0x6F0 DUP2 PUSH3 0x6AE JUMP JUMPDEST SWAP1 POP SWAP2 SWAP1 POP JUMP JUMPDEST PUSH32 0x4E487B7100000000000000000000000000000000000000000000000000000000 PUSH1 0x0 MSTORE PUSH1 0x11 PUSH1 0x4 MSTORE PUSH1 0x24 PUSH1 0x0 REVERT JUMPDEST PUSH1 0x0 PUSH3 0x733 DUP3 PUSH3 0x545 JUMP JUMPDEST SWAP2 POP PUSH3 0x740 DUP4 PUSH3 0x545 JUMP JUMPDEST SWAP3 POP DUP3 DUP3 MUL PUSH3 0x750 DUP2 PUSH3 0x545 JUMP JUMPDEST SWAP2 POP DUP3 DUP3 DIV DUP5 EQ DUP4 ISZERO OR PUSH3 0x76A JUMPI PUSH3 0x769 PUSH3 0x6F7 JUMP JUMPDEST JUMPDEST POP SWAP3 SWAP2 POP POP JUMP JUMPDEST PUSH1 0x0 PUSH3 0x77E DUP3 PUSH3 0x545 JUMP JUMPDEST SWAP2 POP PUSH3 0x78B DUP4 PUSH3 0x545 JUMP JUMPDEST SWAP3 POP DUP3 DUP3 ADD SWAP1 POP DUP1 DUP3 GT ISZERO PUSH3 0x7A6 JUMPI PUSH3 0x7A5 PUSH3 0x6F7 JUMP JUMPDEST JUMPDEST SWAP3 SWAP2 POP POP JUMP JUMPDEST PUSH1 0x0 DUP2 PUSH1 0x1 SHR SWAP1 POP SWAP2 SWAP1 POP JUMP JUMPDEST PUSH1 0x0 DUP1 DUP3 SWAP2 POP DUP4 SWAP1 POP JUMPDEST PUSH1 0x1 DUP6 GT ISZERO PUSH3 0x80B JUMPI DUP1 DUP7 DIV DUP2 GT ISZERO PUSH3 0x7E3 JUMPI PUSH3 0x7E2 PUSH3 0x6F7 JUMP JUMPDEST JUMPDEST PUSH1 0x1 DUP6 AND ISZERO PUSH3 0x7F3 JUMPI DUP1 DUP3 MUL SWAP2 POP JUMPDEST DUP1 DUP2 MUL SWAP1 POP PUSH3 0x803 DUP6 PUSH3 0x7AC JUMP JUMPDEST SWAP5 POP PUSH3 0x7C3 JUMP JUMPDEST SWAP5 POP SWAP5 SWAP3 POP POP POP JUMP JUMPDEST PUSH1 0x0 DUP3 PUSH3 0x826 JUMPI PUSH1 0x1 SWAP1 POP PUSH3 0x8F9 JUMP JUMPDEST DUP2 PUSH3 0x836 JUMPI PUSH1 0x0 SWAP1 POP PUSH3 0x8F9 JUMP JUMPDEST DUP2 PUSH1 0x1 DUP2 EQ PUSH3 0x84F JUMPI PUSH1 0x2 DUP2 EQ PUSH3 0x85A JUMPI PUSH3 0x890 JUMP JUMPDEST PUSH1 0x1 SWAP2 POP POP PUSH3 0x8F9 JUMP JUMPDEST PUSH1 0xFF DUP5 GT ISZERO PUSH3 0x86F JUMPI PUSH3 0x86E PUSH3 0x6F7 JUMP JUMPDEST JUMPDEST DUP4 PUSH1 0x2 EXP SWAP2 POP DUP5 DUP3 GT ISZERO PUSH3 0x889 JUMPI PUSH3 0x888 PUSH3 0x6F7 JUMP JUMPDEST JUMPDEST POP PUSH3 0x8F9 JUMP JUMPDEST POP PUSH1 0x20 DUP4 LT PUSH2 0x133 DUP4 LT AND PUSH1 0x4E DUP5 LT PUSH1 0xB DUP5 LT AND OR ISZERO PUSH3 0x8CA JUMPI DUP3 DUP3 EXP SWAP1 POP DUP4 DUP2 GT ISZERO PUSH3 0x8C4 JUMPI PUSH3 0x8C3 PUSH3 0x6F7 JUMP JUMPDEST JUMPDEST PUSH3 0x8F9 JUMP JUMPDEST PUSH3 0x8D9 DUP5 DUP5 DUP5 PUSH1 0x1 PUSH3 0x7B9 JUMP JUMPDEST SWAP3 POP SWAP1 POP DUP2 DUP5 DIV DUP2 GT ISZERO PUSH3 0x8F3 JUMPI PUSH3 0x8F2 PUSH3 0x6F7 JUMP JUMPDEST JUMPDEST DUP2 DUP2 MUL SWAP1 POP JUMPDEST SWAP4 SWAP3 POP POP POP JUMP JUMPDEST PUSH1 0x0 PUSH3 0x90D DUP3 PUSH3 0x545 JUMP JUMPDEST SWAP2 POP PUSH3 0x91A DUP4 PUSH3 0x545 JUMP JUMPDEST SWAP3 POP PUSH3 0x949 PUSH32 0xFFFFFFFFFFFFFFFFFFFFFFFFFFFFFFFFFFFFFFFFFFFFFFFFFFFFFFFFFFFFFFFF DUP5 DUP5 PUSH3 0x814 JUMP JUMPDEST SWAP1 POP SWAP3 SWAP2 POP POP JUMP JUMPDEST PUSH32 0x4E487B7100000000000000000000000000000000000000000000000000000000 PUSH1 0x0 MSTORE PUSH1 0x12 PUSH1 0x4 MSTORE PUSH1 0x24 PUSH1 0x0 REVERT JUMPDEST PUSH1 0x0 PUSH3 0x98D DUP3 PUSH3 0x545 JUMP JUMPDEST SWAP2 POP PUSH3 0x99A DUP4 PUSH3 0x545 JUMP JUMPDEST SWAP3 POP DUP3 PUSH3 0x9AD JUMPI PUSH3 0x9AC PUSH3 0x951 JUMP JUMPDEST JUMPDEST DUP3 DUP3 DIV SWAP1 POP SWAP3 SWAP2 POP POP JUMP JUMPDEST PUSH3 0x9C3 DUP2 PUSH3 0x545 JUMP JUMPDEST DUP3 MSTORE POP POP JUMP JUMPDEST PUSH1 0x0 PUSH1 0x20 DUP3 ADD SWAP1 POP PUSH3 0x9E0 PUSH1 0x0 DUP4 ADD DUP5 PUSH3 0x9B8 JUMP JUMPDEST SWAP3 SWAP2 POP POP JUMP JUMPDEST PUSH2 0x26F8 DUP1 PUSH3 0x9F6 PUSH1 0x0 CODECOPY PUSH1 0x0 RETURN INVALID PUSH1 0x80 PUSH1 0x40 MSTORE CALLVALUE DUP1 ISZERO PUSH2 0x10 JUMPI PUSH1 0x0 DUP1 REVERT JUMPDEST POP PUSH1 0x4 CALLDATASIZE LT PUSH2 0xF5 JUMPI PUSH1 0x0 CALLDATALOAD PUSH1 0xE0 SHR DUP1 PUSH4 0x70A08231 GT PUSH2 0x97 JUMPI DUP1 PUSH4 0xA9059CBB GT PUSH2 0x66 JUMPI DUP1 PUSH4 0xA9059CBB EQ PUSH2 0x286 JUMPI DUP1 PUSH4 0xB1C25586 EQ PUSH2 0x2B6 JUMPI DUP1 PUSH4 0xDD62ED3E EQ PUSH2 0x2D2 JUMPI DUP1 PUSH4 0xFBD42E0F EQ PUSH2 0x302 JUMPI PUSH2 0xF5 JUMP JUMPDEST DUP1 PUSH4 0x70A08231 EQ PUSH2 0x1EC JUMPI DUP1 PUSH4 0x74EB9B68 EQ PUSH2 0x21C JUMPI DUP1 PUSH4 0x905295E3 EQ PUSH2 0x24C JUMPI DUP1 PUSH4 0x95D89B41 EQ PUSH2 0x268 JUMPI PUSH2 0xF5 JUMP JUMPDEST DUP1 PUSH4 0x23B872DD GT PUSH2 0xD3 JUMPI DUP1 PUSH4 0x23B872DD EQ PUSH2 0x166 JUMPI DUP1 PUSH4 0x313CE567 EQ PUSH2 0x196 JUMPI DUP1 PUSH4 0x3B81C1EC EQ PUSH2 0x1B4 JUMPI DUP1 PUSH4 0x47A64F44 EQ PUSH2 0x1D0 JUMPI PUSH2 0xF5 JUMP JUMPDEST DUP1 PUSH4 0x6FDDE03 EQ PUSH2 0xFA JUMPI DUP1 PUSH4 0x95EA7B3 EQ PUSH2 0x118 JUMPI DUP1 PUSH4 0x18160DDD EQ PUSH2 0x148 JUMPI JUMPDEST PUSH1 0x0 DUP1 REVERT JUMPDEST PUSH2 0x102 PUSH2 0x30C JUMP JUMPDEST PUSH1 0x40 MLOAD PUSH2 0x10F SWAP2 SWAP1 PUSH2 0x1BE5 JUMP JUMPDEST PUSH1 0x40 MLOAD DUP1 SWAP2 SUB SWAP1 RETURN JUMPDEST PUSH2 0x132 PUSH1 0x4 DUP1 CALLDATASIZE SUB DUP2 ADD SWAP1 PUSH2 0x12D SWAP2 SWAP1 PUSH2 0x1CA0 JUMP JUMPDEST PUSH2 0x345 JUMP JUMPDEST PUSH1 0x40 MLOAD PUSH2 0x13F SWAP2 SWAP1 PUSH2 0x1CFB JUMP JUMPDEST PUSH1 0x40 MLOAD DUP1 SWAP2 SUB SWAP1 RETURN JUMPDEST PUSH2 0x150 PUSH2 0x5C7 JUMP JUMPDEST PUSH1 0x40 MLOAD PUSH2 0x15D SWAP2 SWAP1 PUSH2 0x1D25 JUMP JUMPDEST PUSH1 0x40 MLOAD DUP1 SWAP2 SUB SWAP1 RETURN JUMPDEST PUSH2 0x180 PUSH1 0x4 DUP1 CALLDATASIZE SUB DUP2 ADD SWAP1 PUSH2 0x17B SWAP2 SWAP1 PUSH2 0x1D40 JUMP JUMPDEST PUSH2 0x5EA JUMP JUMPDEST PUSH1 0x40 MLOAD PUSH2 0x18D SWAP2 SWAP1 PUSH2 0x1CFB JUMP JUMPDEST PUSH1 0x40 MLOAD DUP1 SWAP2 SUB SWAP1 RETURN JUMPDEST PUSH2 0x19E PUSH2 0x9D3 JUMP JUMPDEST PUSH1 0x40 MLOAD PUSH2 0x1AB SWAP2 SWAP1 PUSH2 0x1DAF JUMP JUMPDEST PUSH1 0x40 MLOAD DUP1 SWAP2 SUB SWAP1 RETURN JUMPDEST PUSH2 0x1CE PUSH1 0x4 DUP1 CALLDATASIZE SUB DUP2 ADD SWAP1 PUSH2 0x1C9 SWAP2 SWAP1 PUSH2 0x1CA0 JUMP JUMPDEST PUSH2 0x9D8 JUMP JUMPDEST STOP JUMPDEST PUSH2 0x1EA PUSH1 0x4 DUP1 CALLDATASIZE SUB DUP2 ADD SWAP1 PUSH2 0x1E5 SWAP2 SWAP1 PUSH2 0x1DCA JUMP JUMPDEST PUSH2 0xBAB JUMP JUMPDEST STOP JUMPDEST PUSH2 0x206 PUSH1 0x4 DUP1 CALLDATASIZE SUB DUP2 ADD SWAP1 PUSH2 0x201 SWAP2 SWAP1 PUSH2 0x1DCA JUMP JUMPDEST PUSH2 0xD95 JUMP JUMPDEST PUSH1 0x40 MLOAD PUSH2 0x213 SWAP2 SWAP1 PUSH2 0x1D25 JUMP JUMPDEST PUSH1 0x40 MLOAD DUP1 SWAP2 SUB SWAP1 RETURN JUMPDEST PUSH2 0x236 PUSH1 0x4 DUP1 CALLDATASIZE SUB DUP2 ADD SWAP1 PUSH2 0x231 SWAP2 SWAP1 PUSH2 0x1DCA JUMP JUMPDEST PUSH2 0xE3C JUMP JUMPDEST PUSH1 0x40 MLOAD PUSH2 0x243 SWAP2 SWAP1 PUSH2 0x1CFB JUMP JUMPDEST PUSH1 0x40 MLOAD DUP1 SWAP2 SUB SWAP1 RETURN JUMPDEST PUSH2 0x266 PUSH1 0x4 DUP1 CALLDATASIZE SUB DUP2 ADD SWAP1 PUSH2 0x261 SWAP2 SWAP1 PUSH2 0x1DCA JUMP JUMPDEST PUSH2 0xF00 JUMP JUMPDEST STOP JUMPDEST PUSH2 0x270 PUSH2 0x10EA JUMP JUMPDEST PUSH1 0x40 MLOAD PUSH2 0x27D SWAP2 SWAP1 PUSH2 0x1BE5 JUMP JUMPDEST PUSH1 0x40 MLOAD DUP1 SWAP2 SUB SWAP1 RETURN JUMPDEST PUSH2 0x2A0 PUSH1 0x4 DUP1 CALLDATASIZE SUB DUP2 ADD SWAP1 PUSH2 0x29B SWAP2 SWAP1 PUSH2 0x1CA0 JUMP JUMPDEST PUSH2 0x1123 JUMP JUMPDEST PUSH1 0x40 MLOAD PUSH2 0x2AD SWAP2 SWAP1 PUSH2 0x1CFB JUMP JUMPDEST PUSH1 0x40 MLOAD DUP1 SWAP2 SUB SWAP1 RETURN JUMPDEST PUSH2 0x2D0 PUSH1 0x4 DUP1 CALLDATASIZE SUB DUP2 ADD SWAP1 PUSH2 0x2CB SWAP2 SWAP1 PUSH2 0x1CA0 JUMP JUMPDEST PUSH2 0x134B JUMP JUMPDEST STOP JUMPDEST PUSH2 0x2EC PUSH1 0x4 DUP1 CALLDATASIZE SUB DUP2 ADD SWAP1 PUSH2 0x2E7 SWAP2 SWAP1 PUSH2 0x1DF7 JUMP JUMPDEST PUSH2 0x1670 JUMP JUMPDEST PUSH1 0x40 MLOAD PUSH2 0x2F9 SWAP2 SWAP1 PUSH2 0x1D25 JUMP JUMPDEST PUSH1 0x40 MLOAD DUP1 SWAP2 SUB SWAP1 RETURN JUMPDEST PUSH2 0x30A PUSH2 0x16F7 JUMP JUMPDEST STOP JUMPDEST PUSH1 0x40 MLOAD DUP1 PUSH1 0x40 ADD PUSH1 0x40 MSTORE DUP1 PUSH1 0x9 DUP2 MSTORE PUSH1 0x20 ADD PUSH32 0x44494153434841494E0000000000000000000000000000000000000000000000 DUP2 MSTORE POP DUP2 JUMP JUMPDEST PUSH1 0x0 CALLER PUSH1 0x2 PUSH1 0x0 SWAP1 SLOAD SWAP1 PUSH2 0x100 EXP SWAP1 DIV PUSH20 0xFFFFFFFFFFFFFFFFFFFFFFFFFFFFFFFFFFFFFFFF AND PUSH20 0xFFFFFFFFFFFFFFFFFFFFFFFFFFFFFFFFFFFFFFFF AND DUP2 PUSH20 0xFFFFFFFFFFFFFFFFFFFFFFFFFFFFFFFFFFFFFFFF AND SUB PUSH2 0x3D8 JUMPI PUSH1 0x40 MLOAD PUSH32 0x8C379A000000000000000000000000000000000000000000000000000000000 DUP2 MSTORE PUSH1 0x4 ADD PUSH2 0x3CF SWAP1 PUSH2 0x1EA9 JUMP JUMPDEST PUSH1 0x40 MLOAD DUP1 SWAP2 SUB SWAP1 REVERT JUMPDEST CALLER PUSH1 0x6 PUSH1 0x0 DUP3 PUSH20 0xFFFFFFFFFFFFFFFFFFFFFFFFFFFFFFFFFFFFFFFF AND PUSH20 0xFFFFFFFFFFFFFFFFFFFFFFFFFFFFFFFFFFFFFFFF AND DUP2 MSTORE PUSH1 0x20 ADD SWAP1 DUP2 MSTORE PUSH1 0x20 ADD PUSH1 0x0 KECCAK256 PUSH1 0x0 SWAP1 SLOAD SWAP1 PUSH2 0x100 EXP SWAP1 DIV PUSH1 0xFF AND ISZERO PUSH2 0x466 JUMPI PUSH1 0x40 MLOAD PUSH32 0x8C379A000000000000000000000000000000000000000000000000000000000 DUP2 MSTORE PUSH1 0x4 ADD PUSH2 0x45D SWAP1 PUSH2 0x1F15 JUMP JUMPDEST PUSH1 0x40 MLOAD DUP1 SWAP2 SUB SWAP1 REVERT JUMPDEST PUSH1 0x0 PUSH20 0xFFFFFFFFFFFFFFFFFFFFFFFFFFFFFFFFFFFFFFFF AND DUP6 PUSH20 0xFFFFFFFFFFFFFFFFFFFFFFFFFFFFFFFFFFFFFFFF AND SUB PUSH2 0x4D5 JUMPI PUSH1 0x40 MLOAD PUSH32 0x8C379A000000000000000000000000000000000000000000000000000000000 DUP2 MSTORE PUSH1 0x4 ADD PUSH2 0x4CC SWAP1 PUSH2 0x1F81 JUMP JUMPDEST PUSH1 0x40 MLOAD DUP1 SWAP2 SUB SWAP1 REVERT JUMPDEST DUP4 PUSH1 0x1 PUSH1 0x0 CALLER PUSH20 0xFFFFFFFFFFFFFFFFFFFFFFFFFFFFFFFFFFFFFFFF AND PUSH20 0xFFFFFFFFFFFFFFFFFFFFFFFFFFFFFFFFFFFFFFFF AND DUP2 MSTORE PUSH1 0x20 ADD SWAP1 DUP2 MSTORE PUSH1 0x20 ADD PUSH1 0x0 KECCAK256 PUSH1 0x0 DUP8 PUSH20 0xFFFFFFFFFFFFFFFFFFFFFFFFFFFFFFFFFFFFFFFF AND PUSH20 0xFFFFFFFFFFFFFFFFFFFFFFFFFFFFFFFFFFFFFFFF AND DUP2 MSTORE PUSH1 0x20 ADD SWAP1 DUP2 MSTORE PUSH1 0x20 ADD PUSH1 0x0 KECCAK256 DUP2 SWAP1 SSTORE POP DUP5 PUSH20 0xFFFFFFFFFFFFFFFFFFFFFFFFFFFFFFFFFFFFFFFF AND CALLER PUSH20 0xFFFFFFFFFFFFFFFFFFFFFFFFFFFFFFFFFFFFFFFF AND PUSH32 0x8C5BE1E5EBEC7D5BD14F71427D1E84F3DD0314C0F7B2291E5B200AC8C7C3B925 DUP7 PUSH1 0x40 MLOAD PUSH2 0x5B3 SWAP2 SWAP1 PUSH2 0x1D25 JUMP JUMPDEST PUSH1 0x40 MLOAD DUP1 SWAP2 SUB SWAP1 LOG3 PUSH1 0x1 SWAP3 POP POP POP SWAP3 SWAP2 POP POP JUMP JUMPDEST PUSH1 0x12 PUSH1 0xFF AND PUSH1 0xA PUSH2 0x5D8 SWAP2 SWAP1 PUSH2 0x2103 JUMP JUMPDEST PUSH4 0x5F5E100 PUSH2 0x5E7 SWAP2 SWAP1 PUSH2 0x214E JUMP JUMPDEST DUP2 JUMP JUMPDEST PUSH1 0x0 DUP4 PUSH1 0x2 PUSH1 0x0 SWAP1 SLOAD SWAP1 PUSH2 0x100 EXP SWAP1 DIV PUSH20 0xFFFFFFFFFFFFFFFFFFFFFFFFFFFFFFFFFFFFFFFF AND PUSH20 0xFFFFFFFFFFFFFFFFFFFFFFFFFFFFFFFFFFFFFFFF AND DUP2 PUSH20 0xFFFFFFFFFFFFFFFFFFFFFFFFFFFFFFFFFFFFFFFF AND SUB PUSH2 0x67D JUMPI PUSH1 0x40 MLOAD PUSH32 0x8C379A000000000000000000000000000000000000000000000000000000000 DUP2 MSTORE PUSH1 0x4 ADD PUSH2 0x674 SWAP1 PUSH2 0x1EA9 JUMP JUMPDEST PUSH1 0x40 MLOAD DUP1 SWAP2 SUB SWAP1 REVERT JUMPDEST DUP5 PUSH1 0x6 PUSH1 0x0 DUP3 PUSH20 0xFFFFFFFFFFFFFFFFFFFFFFFFFFFFFFFFFFFFFFFF AND PUSH20 0xFFFFFFFFFFFFFFFFFFFFFFFFFFFFFFFFFFFFFFFF AND DUP2 MSTORE PUSH1 0x20 ADD SWAP1 DUP2 MSTORE PUSH1 0x20 ADD PUSH1 0x0 KECCAK256 PUSH1 0x0 SWAP1 SLOAD SWAP1 PUSH2 0x100 EXP SWAP1 DIV PUSH1 0xFF AND ISZERO PUSH2 0x70B JUMPI PUSH1 0x40 MLOAD PUSH32 0x8C379A000000000000000000000000000000000000000000000000000000000 DUP2 MSTORE PUSH1 0x4 ADD PUSH2 0x702 SWAP1 PUSH2 0x1F15 JUMP JUMPDEST PUSH1 0x40 MLOAD DUP1 SWAP2 SUB SWAP1 REVERT JUMPDEST PUSH1 0x0 PUSH20 0xFFFFFFFFFFFFFFFFFFFFFFFFFFFFFFFFFFFFFFFF AND DUP7 PUSH20 0xFFFFFFFFFFFFFFFFFFFFFFFFFFFFFFFFFFFFFFFF AND SUB PUSH2 0x77A JUMPI PUSH1 0x40 MLOAD PUSH32 0x8C379A000000000000000000000000000000000000000000000000000000000 DUP2 MSTORE PUSH1 0x4 ADD PUSH2 0x771 SWAP1 PUSH2 0x21DC JUMP JUMPDEST PUSH1 0x40 MLOAD DUP1 SWAP2 SUB SWAP1 REVERT JUMPDEST PUSH1 0x0 PUSH20 0xFFFFFFFFFFFFFFFFFFFFFFFFFFFFFFFFFFFFFFFF AND DUP6 PUSH20 0xFFFFFFFFFFFFFFFFFFFFFFFFFFFFFFFFFFFFFFFF AND SUB PUSH2 0x7E9 JUMPI PUSH1 0x40 MLOAD PUSH32 0x8C379A000000000000000000000000000000000000000000000000000000000 DUP2 MSTORE PUSH1 0x4 ADD PUSH2 0x7E0 SWAP1 PUSH2 0x2248 JUMP JUMPDEST PUSH1 0x40 MLOAD DUP1 SWAP2 SUB SWAP1 REVERT JUMPDEST PUSH1 0x0 DUP1 DUP8 PUSH20 0xFFFFFFFFFFFFFFFFFFFFFFFFFFFFFFFFFFFFFFFF AND PUSH20 0xFFFFFFFFFFFFFFFFFFFFFFFFFFFFFFFFFFFFFFFF AND DUP2 MSTORE PUSH1 0x20 ADD SWAP1 DUP2 MSTORE PUSH1 0x20 ADD PUSH1 0x0 KECCAK256 SLOAD DUP5 GT ISZERO PUSH2 0x86A JUMPI PUSH1 0x40 MLOAD PUSH32 0x8C379A000000000000000000000000000000000000000000000000000000000 DUP2 MSTORE PUSH1 0x4 ADD PUSH2 0x861 SWAP1 PUSH2 0x22B4 JUMP JUMPDEST PUSH1 0x40 MLOAD DUP1 SWAP2 SUB SWAP1 REVERT JUMPDEST PUSH1 0x1 PUSH1 0x0 DUP8 PUSH20 0xFFFFFFFFFFFFFFFFFFFFFFFFFFFFFFFFFFFFFFFF AND PUSH20 0xFFFFFFFFFFFFFFFFFFFFFFFFFFFFFFFFFFFFFFFF AND DUP2 MSTORE PUSH1 0x20 ADD SWAP1 DUP2 MSTORE PUSH1 0x20 ADD PUSH1 0x0 KECCAK256 PUSH1 0x0 CALLER PUSH20 0xFFFFFFFFFFFFFFFFFFFFFFFFFFFFFFFFFFFFFFFF AND PUSH20 0xFFFFFFFFFFFFFFFFFFFFFFFFFFFFFFFFFFFFFFFF AND DUP2 MSTORE PUSH1 0x20 ADD SWAP1 DUP2 MSTORE PUSH1 0x20 ADD PUSH1 0x0 KECCAK256 SLOAD DUP5 GT ISZERO PUSH2 0x929 JUMPI PUSH1 0x40 MLOAD PUSH32 0x8C379A000000000000000000000000000000000000000000000000000000000 DUP2 MSTORE PUSH1 0x4 ADD PUSH2 0x920 SWAP1 PUSH2 0x2320 JUMP JUMPDEST PUSH1 0x40 MLOAD DUP1 SWAP2 SUB SWAP1 REVERT JUMPDEST PUSH2 0x934 DUP7 DUP7 DUP7 PUSH2 0x1956 JUMP JUMPDEST PUSH2 0x9C6 DUP7 CALLER DUP7 PUSH1 0x1 PUSH1 0x0 DUP12 PUSH20 0xFFFFFFFFFFFFFFFFFFFFFFFFFFFFFFFFFFFFFFFF AND PUSH20 0xFFFFFFFFFFFFFFFFFFFFFFFFFFFFFFFFFFFFFFFF AND DUP2 MSTORE PUSH1 0x20 ADD SWAP1 DUP2 MSTORE PUSH1 0x20 ADD PUSH1 0x0 KECCAK256 PUSH1 0x0 CALLER PUSH20 0xFFFFFFFFFFFFFFFFFFFFFFFFFFFFFFFFFFFFFFFF AND PUSH20 0xFFFFFFFFFFFFFFFFFFFFFFFFFFFFFFFFFFFFFFFF AND DUP2 MSTORE PUSH1 0x20 ADD SWAP1 DUP2 MSTORE PUSH1 0x20 ADD PUSH1 0x0 KECCAK256 SLOAD PUSH2 0x9C1 SWAP2 SWAP1 PUSH2 0x2340 JUMP JUMPDEST PUSH2 0x1A6A JUMP JUMPDEST PUSH1 0x1 SWAP3 POP POP POP SWAP4 SWAP3 POP POP POP JUMP JUMPDEST PUSH1 0x12 DUP2 JUMP JUMPDEST PUSH1 0x2 PUSH1 0x0 SWAP1 SLOAD SWAP1 PUSH2 0x100 EXP SWAP1 DIV PUSH20 0xFFFFFFFFFFFFFFFFFFFFFFFFFFFFFFFFFFFFFFFF AND PUSH20 0xFFFFFFFFFFFFFFFFFFFFFFFFFFFFFFFFFFFFFFFF AND CALLER PUSH20 0xFFFFFFFFFFFFFFFFFFFFFFFFFFFFFFFFFFFFFFFF AND EQ PUSH2 0xA68 JUMPI PUSH1 0x40 MLOAD PUSH32 0x8C379A000000000000000000000000000000000000000000000000000000000 DUP2 MSTORE PUSH1 0x4 ADD PUSH2 0xA5F SWAP1 PUSH2 0x23E6 JUMP JUMPDEST PUSH1 0x40 MLOAD DUP1 SWAP2 SUB SWAP1 REVERT JUMPDEST PUSH1 0x0 PUSH20 0xFFFFFFFFFFFFFFFFFFFFFFFFFFFFFFFFFFFFFFFF AND DUP3 PUSH20 0xFFFFFFFFFFFFFFFFFFFFFFFFFFFFFFFFFFFFFFFF AND SUB PUSH2 0xAD7 JUMPI PUSH1 0x40 MLOAD PUSH32 0x8C379A000000000000000000000000000000000000000000000000000000000 DUP2 MSTORE PUSH1 0x4 ADD PUSH2 0xACE SWAP1 PUSH2 0x2248 JUMP JUMPDEST PUSH1 0x40 MLOAD DUP1 SWAP2 SUB SWAP1 REVERT JUMPDEST PUSH1 0x0 DUP1 PUSH1 0x3 PUSH1 0x0 SWAP1 SLOAD SWAP1 PUSH2 0x100 EXP SWAP1 DIV PUSH20 0xFFFFFFFFFFFFFFFFFFFFFFFFFFFFFFFFFFFFFFFF AND PUSH20 0xFFFFFFFFFFFFFFFFFFFFFFFFFFFFFFFFFFFFFFFF AND PUSH20 0xFFFFFFFFFFFFFFFFFFFFFFFFFFFFFFFFFFFFFFFF AND DUP2 MSTORE PUSH1 0x20 ADD SWAP1 DUP2 MSTORE PUSH1 0x20 ADD PUSH1 0x0 KECCAK256 SLOAD DUP2 GT ISZERO PUSH2 0xB7A JUMPI PUSH1 0x40 MLOAD PUSH32 0x8C379A000000000000000000000000000000000000000000000000000000000 DUP2 MSTORE PUSH1 0x4 ADD PUSH2 0xB71 SWAP1 PUSH2 0x22B4 JUMP JUMPDEST PUSH1 0x40 MLOAD DUP1 SWAP2 SUB SWAP1 REVERT JUMPDEST PUSH2 0xBA7 PUSH1 0x3 PUSH1 0x0 SWAP1 SLOAD SWAP1 PUSH2 0x100 EXP SWAP1 DIV PUSH20 0xFFFFFFFFFFFFFFFFFFFFFFFFFFFFFFFFFFFFFFFF AND DUP4 DUP4 PUSH2 0x1956 JUMP JUMPDEST POP POP JUMP JUMPDEST PUSH1 0x2 PUSH1 0x0 SWAP1 SLOAD SWAP1 PUSH2 0x100 EXP SWAP1 DIV PUSH20 0xFFFFFFFFFFFFFFFFFFFFFFFFFFFFFFFFFFFFFFFF AND PUSH20 0xFFFFFFFFFFFFFFFFFFFFFFFFFFFFFFFFFFFFFFFF AND CALLER PUSH20 0xFFFFFFFFFFFFFFFFFFFFFFFFFFFFFFFFFFFFFFFF AND EQ PUSH2 0xC3B JUMPI PUSH1 0x40 MLOAD PUSH32 0x8C379A000000000000000000000000000000000000000000000000000000000 DUP2 MSTORE PUSH1 0x4 ADD PUSH2 0xC32 SWAP1 PUSH2 0x23E6 JUMP JUMPDEST PUSH1 0x40 MLOAD DUP1 SWAP2 SUB SWAP1 REVERT JUMPDEST PUSH1 0x0 PUSH20 0xFFFFFFFFFFFFFFFFFFFFFFFFFFFFFFFFFFFFFFFF AND DUP2 PUSH20 0xFFFFFFFFFFFFFFFFFFFFFFFFFFFFFFFFFFFFFFFF AND SUB PUSH2 0xCAA JUMPI PUSH1 0x40 MLOAD PUSH32 0x8C379A000000000000000000000000000000000000000000000000000000000 DUP2 MSTORE PUSH1 0x4 ADD PUSH2 0xCA1 SWAP1 PUSH2 0x2452 JUMP JUMPDEST PUSH1 0x40 MLOAD DUP1 SWAP2 SUB SWAP1 REVERT JUMPDEST PUSH1 0x2 PUSH1 0x0 SWAP1 SLOAD SWAP1 PUSH2 0x100 EXP SWAP1 DIV PUSH20 0xFFFFFFFFFFFFFFFFFFFFFFFFFFFFFFFFFFFFFFFF AND PUSH20 0xFFFFFFFFFFFFFFFFFFFFFFFFFFFFFFFFFFFFFFFF AND DUP2 PUSH20 0xFFFFFFFFFFFFFFFFFFFFFFFFFFFFFFFFFFFFFFFF AND SUB PUSH2 0xD3A JUMPI PUSH1 0x40 MLOAD PUSH32 0x8C379A000000000000000000000000000000000000000000000000000000000 DUP2 MSTORE PUSH1 0x4 ADD PUSH2 0xD31 SWAP1 PUSH2 0x24BE JUMP JUMPDEST PUSH1 0x40 MLOAD DUP1 SWAP2 SUB SWAP1 REVERT JUMPDEST PUSH1 0x1 PUSH1 0x6 PUSH1 0x0 DUP4 PUSH20 0xFFFFFFFFFFFFFFFFFFFFFFFFFFFFFFFFFFFFFFFF AND PUSH20 0xFFFFFFFFFFFFFFFFFFFFFFFFFFFFFFFFFFFFFFFF AND DUP2 MSTORE PUSH1 0x20 ADD SWAP1 DUP2 MSTORE PUSH1 0x20 ADD PUSH1 0x0 KECCAK256 PUSH1 0x0 PUSH2 0x100 EXP DUP2 SLOAD DUP2 PUSH1 0xFF MUL NOT AND SWAP1 DUP4 ISZERO ISZERO MUL OR SWAP1 SSTORE POP POP JUMP JUMPDEST PUSH1 0x0 PUSH1 0x2 PUSH1 0x0 SWAP1 SLOAD SWAP1 PUSH2 0x100 EXP SWAP1 DIV PUSH20 0xFFFFFFFFFFFFFFFFFFFFFFFFFFFFFFFFFFFFFFFF AND PUSH20 0xFFFFFFFFFFFFFFFFFFFFFFFFFFFFFFFFFFFFFFFF AND DUP3 PUSH20 0xFFFFFFFFFFFFFFFFFFFFFFFFFFFFFFFFFFFFFFFF AND SUB PUSH2 0xDF5 JUMPI PUSH1 0x0 SWAP1 POP PUSH2 0xE37 JUMP JUMPDEST PUSH1 0x0 DUP1 DUP4 PUSH20 0xFFFFFFFFFFFFFFFFFFFFFFFFFFFFFFFFFFFFFFFF AND PUSH20 0xFFFFFFFFFFFFFFFFFFFFFFFFFFFFFFFFFFFFFFFF AND DUP2 MSTORE PUSH1 0x20 ADD SWAP1 DUP2 MSTORE PUSH1 0x20 ADD PUSH1 0x0 KECCAK256 SLOAD SWAP1 POP JUMPDEST SWAP2 SWAP1 POP JUMP JUMPDEST PUSH1 0x0 DUP1 PUSH20 0xFFFFFFFFFFFFFFFFFFFFFFFFFFFFFFFFFFFFFFFF AND DUP3 PUSH20 0xFFFFFFFFFFFFFFFFFFFFFFFFFFFFFFFFFFFFFFFF AND SUB PUSH2 0xEAC JUMPI PUSH1 0x40 MLOAD PUSH32 0x8C379A000000000000000000000000000000000000000000000000000000000 DUP2 MSTORE PUSH1 0x4 ADD PUSH2 0xEA3 SWAP1 PUSH2 0x2452 JUMP JUMPDEST PUSH1 0x40 MLOAD DUP1 SWAP2 SUB SWAP1 REVERT JUMPDEST PUSH1 0x6 PUSH1 0x0 DUP4 PUSH20 0xFFFFFFFFFFFFFFFFFFFFFFFFFFFFFFFFFFFFFFFF AND PUSH20 0xFFFFFFFFFFFFFFFFFFFFFFFFFFFFFFFFFFFFFFFF AND DUP2 MSTORE PUSH1 0x20 ADD SWAP1 DUP2 MSTORE PUSH1 0x20 ADD PUSH1 0x0 KECCAK256 PUSH1 0x0 SWAP1 SLOAD SWAP1 PUSH2 0x100 EXP SWAP1 DIV PUSH1 0xFF AND SWAP1 POP SWAP2 SWAP1 POP JUMP JUMPDEST PUSH1 0x2 PUSH1 0x0 SWAP1 SLOAD SWAP1 PUSH2 0x100 EXP SWAP1 DIV PUSH20 0xFFFFFFFFFFFFFFFFFFFFFFFFFFFFFFFFFFFFFFFF AND PUSH20 0xFFFFFFFFFFFFFFFFFFFFFFFFFFFFFFFFFFFFFFFF AND CALLER PUSH20 0xFFFFFFFFFFFFFFFFFFFFFFFFFFFFFFFFFFFFFFFF AND EQ PUSH2 0xF90 JUMPI PUSH1 0x40 MLOAD PUSH32 0x8C379A000000000000000000000000000000000000000000000000000000000 DUP2 MSTORE PUSH1 0x4 ADD PUSH2 0xF87 SWAP1 PUSH2 0x23E6 JUMP JUMPDEST PUSH1 0x40 MLOAD DUP1 SWAP2 SUB SWAP1 REVERT JUMPDEST PUSH1 0x0 PUSH20 0xFFFFFFFFFFFFFFFFFFFFFFFFFFFFFFFFFFFFFFFF AND DUP2 PUSH20 0xFFFFFFFFFFFFFFFFFFFFFFFFFFFFFFFFFFFFFFFF AND SUB PUSH2 0xFFF JUMPI PUSH1 0x40 MLOAD PUSH32 0x8C379A000000000000000000000000000000000000000000000000000000000 DUP2 MSTORE PUSH1 0x4 ADD PUSH2 0xFF6 SWAP1 PUSH2 0x2452 JUMP JUMPDEST PUSH1 0x40 MLOAD DUP1 SWAP2 SUB SWAP1 REVERT JUMPDEST PUSH1 0x2 PUSH1 0x0 SWAP1 SLOAD SWAP1 PUSH2 0x100 EXP SWAP1 DIV PUSH20 0xFFFFFFFFFFFFFFFFFFFFFFFFFFFFFFFFFFFFFFFF AND PUSH20 0xFFFFFFFFFFFFFFFFFFFFFFFFFFFFFFFFFFFFFFFF AND DUP2 PUSH20 0xFFFFFFFFFFFFFFFFFFFFFFFFFFFFFFFFFFFFFFFF AND SUB PUSH2 0x108F JUMPI PUSH1 0x40 MLOAD PUSH32 0x8C379A000000000000000000000000000000000000000000000000000000000 DUP2 MSTORE PUSH1 0x4 ADD PUSH2 0x1086 SWAP1 PUSH2 0x252A JUMP JUMPDEST PUSH1 0x40 MLOAD DUP1 SWAP2 SUB SWAP1 REVERT JUMPDEST PUSH1 0x0 PUSH1 0x6 PUSH1 0x0 DUP4 PUSH20 0xFFFFFFFFFFFFFFFFFFFFFFFFFFFFFFFFFFFFFFFF AND PUSH20 0xFFFFFFFFFFFFFFFFFFFFFFFFFFFFFFFFFFFFFFFF AND DUP2 MSTORE PUSH1 0x20 ADD SWAP1 DUP2 MSTORE PUSH1 0x20 ADD PUSH1 0x0 KECCAK256 PUSH1 0x0 PUSH2 0x100 EXP DUP2 SLOAD DUP2 PUSH1 0xFF MUL NOT AND SWAP1 DUP4 ISZERO ISZERO MUL OR SWAP1 SSTORE POP POP JUMP JUMPDEST PUSH1 0x40 MLOAD DUP1 PUSH1 0x40 ADD PUSH1 0x40 MSTORE DUP1 PUSH1 0x4 DUP2 MSTORE PUSH1 0x20 ADD PUSH32 0x4449415300000000000000000000000000000000000000000000000000000000 DUP2 MSTORE POP DUP2 JUMP JUMPDEST PUSH1 0x0 CALLER PUSH1 0x2 PUSH1 0x0 SWAP1 SLOAD SWAP1 PUSH2 0x100 EXP SWAP1 DIV PUSH20 0xFFFFFFFFFFFFFFFFFFFFFFFFFFFFFFFFFFFFFFFF AND PUSH20 0xFFFFFFFFFFFFFFFFFFFFFFFFFFFFFFFFFFFFFFFF AND DUP2 PUSH20 0xFFFFFFFFFFFFFFFFFFFFFFFFFFFFFFFFFFFFFFFF AND SUB PUSH2 0x11B6 JUMPI PUSH1 0x40 MLOAD PUSH32 0x8C379A000000000000000000000000000000000000000000000000000000000 DUP2 MSTORE PUSH1 0x4 ADD PUSH2 0x11AD SWAP1 PUSH2 0x1EA9 JUMP JUMPDEST PUSH1 0x40 MLOAD DUP1 SWAP2 SUB SWAP1 REVERT JUMPDEST CALLER PUSH1 0x6 PUSH1 0x0 DUP3 PUSH20 0xFFFFFFFFFFFFFFFFFFFFFFFFFFFFFFFFFFFFFFFF AND PUSH20 0xFFFFFFFFFFFFFFFFFFFFFFFFFFFFFFFFFFFFFFFF AND DUP2 MSTORE PUSH1 0x20 ADD SWAP1 DUP2 MSTORE PUSH1 0x20 ADD PUSH1 0x0 KECCAK256 PUSH1 0x0 SWAP1 SLOAD SWAP1 PUSH2 0x100 EXP SWAP1 DIV PUSH1 0xFF AND ISZERO PUSH2 0x1244 JUMPI PUSH1 0x40 MLOAD PUSH32 0x8C379A000000000000000000000000000000000000000000000000000000000 DUP2 MSTORE PUSH1 0x4 ADD PUSH2 0x123B SWAP1 PUSH2 0x1F15 JUMP JUMPDEST PUSH1 0x40 MLOAD DUP1 SWAP2 SUB SWAP1 REVERT JUMPDEST PUSH1 0x0 PUSH20 0xFFFFFFFFFFFFFFFFFFFFFFFFFFFFFFFFFFFFFFFF AND DUP6 PUSH20 0xFFFFFFFFFFFFFFFFFFFFFFFFFFFFFFFFFFFFFFFF AND SUB PUSH2 0x12B3 JUMPI PUSH1 0x40 MLOAD PUSH32 0x8C379A000000000000000000000000000000000000000000000000000000000 DUP2 MSTORE PUSH1 0x4 ADD PUSH2 0x12AA SWAP1 PUSH2 0x2248 JUMP JUMPDEST PUSH1 0x40 MLOAD DUP1 SWAP2 SUB SWAP1 REVERT JUMPDEST PUSH1 0x0 DUP1 CALLER PUSH20 0xFFFFFFFFFFFFFFFFFFFFFFFFFFFFFFFFFFFFFFFF AND PUSH20 0xFFFFFFFFFFFFFFFFFFFFFFFFFFFFFFFFFFFFFFFF AND DUP2 MSTORE PUSH1 0x20 ADD SWAP1 DUP2 MSTORE PUSH1 0x20 ADD PUSH1 0x0 KECCAK256 SLOAD DUP5 GT ISZERO PUSH2 0x1334 JUMPI PUSH1 0x40 MLOAD PUSH32 0x8C379A000000000000000000000000000000000000000000000000000000000 DUP2 MSTORE PUSH1 0x4 ADD PUSH2 0x132B SWAP1 PUSH2 0x22B4 JUMP JUMPDEST PUSH1 0x40 MLOAD DUP1 SWAP2 SUB SWAP1 REVERT JUMPDEST PUSH2 0x133F CALLER DUP7 DUP7 PUSH2 0x1956 JUMP JUMPDEST PUSH1 0x1 SWAP3 POP POP POP SWAP3 SWAP2 POP POP JUMP JUMPDEST PUSH1 0x2 PUSH1 0x0 SWAP1 SLOAD SWAP1 PUSH2 0x100 EXP SWAP1 DIV PUSH20 0xFFFFFFFFFFFFFFFFFFFFFFFFFFFFFFFFFFFFFFFF AND PUSH20 0xFFFFFFFFFFFFFFFFFFFFFFFFFFFFFFFFFFFFFFFF AND CALLER PUSH20 0xFFFFFFFFFFFFFFFFFFFFFFFFFFFFFFFFFFFFFFFF AND EQ PUSH2 0x13DB JUMPI PUSH1 0x40 MLOAD PUSH32 0x8C379A000000000000000000000000000000000000000000000000000000000 DUP2 MSTORE PUSH1 0x4 ADD PUSH2 0x13D2 SWAP1 PUSH2 0x23E6 JUMP JUMPDEST PUSH1 0x40 MLOAD DUP1 SWAP2 SUB SWAP1 REVERT JUMPDEST PUSH1 0x0 PUSH20 0xFFFFFFFFFFFFFFFFFFFFFFFFFFFFFFFFFFFFFFFF AND DUP3 PUSH20 0xFFFFFFFFFFFFFFFFFFFFFFFFFFFFFFFFFFFFFFFF AND SUB PUSH2 0x144A JUMPI PUSH1 0x40 MLOAD PUSH32 0x8C379A000000000000000000000000000000000000000000000000000000000 DUP2 MSTORE PUSH1 0x4 ADD PUSH2 0x1441 SWAP1 PUSH2 0x2452 JUMP JUMPDEST PUSH1 0x40 MLOAD DUP1 SWAP2 SUB SWAP1 REVERT JUMPDEST PUSH1 0x2 PUSH1 0x0 SWAP1 SLOAD SWAP1 PUSH2 0x100 EXP SWAP1 DIV PUSH20 0xFFFFFFFFFFFFFFFFFFFFFFFFFFFFFFFFFFFFFFFF AND PUSH20 0xFFFFFFFFFFFFFFFFFFFFFFFFFFFFFFFFFFFFFFFF AND DUP3 PUSH20 0xFFFFFFFFFFFFFFFFFFFFFFFFFFFFFFFFFFFFFFFF AND SUB PUSH2 0x14DA JUMPI PUSH1 0x40 MLOAD PUSH32 0x8C379A000000000000000000000000000000000000000000000000000000000 DUP2 MSTORE PUSH1 0x4 ADD PUSH2 0x14D1 SWAP1 PUSH2 0x2596 JUMP JUMPDEST PUSH1 0x40 MLOAD DUP1 SWAP2 SUB SWAP1 REVERT JUMPDEST PUSH1 0x0 DUP1 DUP4 PUSH20 0xFFFFFFFFFFFFFFFFFFFFFFFFFFFFFFFFFFFFFFFF AND PUSH20 0xFFFFFFFFFFFFFFFFFFFFFFFFFFFFFFFFFFFFFFFF AND DUP2 MSTORE PUSH1 0x20 ADD SWAP1 DUP2 MSTORE PUSH1 0x20 ADD PUSH1 0x0 KECCAK256 SLOAD DUP2 GT ISZERO PUSH2 0x155B JUMPI PUSH1 0x40 MLOAD PUSH32 0x8C379A000000000000000000000000000000000000000000000000000000000 DUP2 MSTORE PUSH1 0x4 ADD PUSH2 0x1552 SWAP1 PUSH2 0x22B4 JUMP JUMPDEST PUSH1 0x40 MLOAD DUP1 SWAP2 SUB SWAP1 REVERT JUMPDEST DUP1 PUSH1 0x0 DUP1 DUP5 PUSH20 0xFFFFFFFFFFFFFFFFFFFFFFFFFFFFFFFFFFFFFFFF AND PUSH20 0xFFFFFFFFFFFFFFFFFFFFFFFFFFFFFFFFFFFFFFFF AND DUP2 MSTORE PUSH1 0x20 ADD SWAP1 DUP2 MSTORE PUSH1 0x20 ADD PUSH1 0x0 KECCAK256 PUSH1 0x0 DUP3 DUP3 SLOAD PUSH2 0x15A9 SWAP2 SWAP1 PUSH2 0x2340 JUMP JUMPDEST SWAP3 POP POP DUP2 SWAP1 SSTORE POP DUP1 PUSH1 0x7 PUSH1 0x0 DUP5 PUSH20 0xFFFFFFFFFFFFFFFFFFFFFFFFFFFFFFFFFFFFFFFF AND PUSH20 0xFFFFFFFFFFFFFFFFFFFFFFFFFFFFFFFFFFFFFFFF AND DUP2 MSTORE PUSH1 0x20 ADD SWAP1 DUP2 MSTORE PUSH1 0x20 ADD PUSH1 0x0 KECCAK256 PUSH1 0x0 DUP3 DUP3 SLOAD PUSH2 0x15FF SWAP2 SWAP1 PUSH2 0x25B6 JUMP JUMPDEST SWAP3 POP POP DUP2 SWAP1 SSTORE POP PUSH1 0x0 PUSH20 0xFFFFFFFFFFFFFFFFFFFFFFFFFFFFFFFFFFFFFFFF AND DUP3 PUSH20 0xFFFFFFFFFFFFFFFFFFFFFFFFFFFFFFFFFFFFFFFF AND PUSH32 0xDDF252AD1BE2C89B69C2B068FC378DAA952BA7F163C4A11628F55A4DF523B3EF DUP4 PUSH1 0x40 MLOAD PUSH2 0x1664 SWAP2 SWAP1 PUSH2 0x1D25 JUMP JUMPDEST PUSH1 0x40 MLOAD DUP1 SWAP2 SUB SWAP1 LOG3 POP POP JUMP JUMPDEST PUSH1 0x0 PUSH1 0x1 PUSH1 0x0 DUP5 PUSH20 0xFFFFFFFFFFFFFFFFFFFFFFFFFFFFFFFFFFFFFFFF AND PUSH20 0xFFFFFFFFFFFFFFFFFFFFFFFFFFFFFFFFFFFFFFFF AND DUP2 MSTORE PUSH1 0x20 ADD SWAP1 DUP2 MSTORE PUSH1 0x20 ADD PUSH1 0x0 KECCAK256 PUSH1 0x0 DUP4 PUSH20 0xFFFFFFFFFFFFFFFFFFFFFFFFFFFFFFFFFFFFFFFF AND PUSH20 0xFFFFFFFFFFFFFFFFFFFFFFFFFFFFFFFFFFFFFFFF AND DUP2 MSTORE PUSH1 0x20 ADD SWAP1 DUP2 MSTORE PUSH1 0x20 ADD PUSH1 0x0 KECCAK256 SLOAD SWAP1 POP SWAP3 SWAP2 POP POP JUMP JUMPDEST PUSH1 0x2 PUSH1 0x0 SWAP1 SLOAD SWAP1 PUSH2 0x100 EXP SWAP1 DIV PUSH20 0xFFFFFFFFFFFFFFFFFFFFFFFFFFFFFFFFFFFFFFFF AND PUSH20 0xFFFFFFFFFFFFFFFFFFFFFFFFFFFFFFFFFFFFFFFF AND CALLER PUSH20 0xFFFFFFFFFFFFFFFFFFFFFFFFFFFFFFFFFFFFFFFF AND EQ PUSH2 0x1787 JUMPI PUSH1 0x40 MLOAD PUSH32 0x8C379A000000000000000000000000000000000000000000000000000000000 DUP2 MSTORE PUSH1 0x4 ADD PUSH2 0x177E SWAP1 PUSH2 0x23E6 JUMP JUMPDEST PUSH1 0x40 MLOAD DUP1 SWAP2 SUB SWAP1 REVERT JUMPDEST PUSH1 0x9 SLOAD TIMESTAMP LT ISZERO PUSH2 0x17CC JUMPI PUSH1 0x40 MLOAD PUSH32 0x8C379A000000000000000000000000000000000000000000000000000000000 DUP2 MSTORE PUSH1 0x4 ADD PUSH2 0x17C3 SWAP1 PUSH2 0x2636 JUMP JUMPDEST PUSH1 0x40 MLOAD DUP1 SWAP2 SUB SWAP1 REVERT JUMPDEST PUSH1 0x0 PUSH1 0x7 PUSH1 0x0 CALLER PUSH20 0xFFFFFFFFFFFFFFFFFFFFFFFFFFFFFFFFFFFFFFFF AND PUSH20 0xFFFFFFFFFFFFFFFFFFFFFFFFFFFFFFFFFFFFFFFF AND DUP2 MSTORE PUSH1 0x20 ADD SWAP1 DUP2 MSTORE PUSH1 0x20 ADD PUSH1 0x0 KECCAK256 SLOAD SWAP1 POP PUSH1 0x0 DUP2 GT PUSH2 0x1853 JUMPI PUSH1 0x40 MLOAD PUSH32 0x8C379A000000000000000000000000000000000000000000000000000000000 DUP2 MSTORE PUSH1 0x4 ADD PUSH2 0x184A SWAP1 PUSH2 0x26A2 JUMP JUMPDEST PUSH1 0x40 MLOAD DUP1 SWAP2 SUB SWAP1 REVERT JUMPDEST DUP1 PUSH1 0x0 DUP1 CALLER PUSH20 0xFFFFFFFFFFFFFFFFFFFFFFFFFFFFFFFFFFFFFFFF AND PUSH20 0xFFFFFFFFFFFFFFFFFFFFFFFFFFFFFFFFFFFFFFFF AND DUP2 MSTORE PUSH1 0x20 ADD SWAP1 DUP2 MSTORE PUSH1 0x20 ADD PUSH1 0x0 KECCAK256 PUSH1 0x0 DUP3 DUP3 SLOAD PUSH2 0x18A1 SWAP2 SWAP1 PUSH2 0x25B6 JUMP JUMPDEST SWAP3 POP POP DUP2 SWAP1 SSTORE POP PUSH1 0x0 PUSH1 0x7 PUSH1 0x0 CALLER PUSH20 0xFFFFFFFFFFFFFFFFFFFFFFFFFFFFFFFFFFFFFFFF AND PUSH20 0xFFFFFFFFFFFFFFFFFFFFFFFFFFFFFFFFFFFFFFFF AND DUP2 MSTORE PUSH1 0x20 ADD SWAP1 DUP2 MSTORE PUSH1 0x20 ADD PUSH1 0x0 KECCAK256 DUP2 SWAP1 SSTORE POP CALLER PUSH20 0xFFFFFFFFFFFFFFFFFFFFFFFFFFFFFFFFFFFFFFFF AND PUSH1 0x0 PUSH20 0xFFFFFFFFFFFFFFFFFFFFFFFFFFFFFFFFFFFFFFFF AND PUSH32 0xDDF252AD1BE2C89B69C2B068FC378DAA952BA7F163C4A11628F55A4DF523B3EF DUP4 PUSH1 0x40 MLOAD PUSH2 0x194B SWAP2 SWAP1 PUSH2 0x1D25 JUMP JUMPDEST PUSH1 0x40 MLOAD DUP1 SWAP2 SUB SWAP1 LOG3 POP JUMP JUMPDEST DUP1 PUSH1 0x0 DUP1 DUP6 PUSH20 0xFFFFFFFFFFFFFFFFFFFFFFFFFFFFFFFFFFFFFFFF AND PUSH20 0xFFFFFFFFFFFFFFFFFFFFFFFFFFFFFFFFFFFFFFFF AND DUP2 MSTORE PUSH1 0x20 ADD SWAP1 DUP2 MSTORE PUSH1 0x20 ADD PUSH1 0x0 KECCAK256 PUSH1 0x0 DUP3 DUP3 SLOAD PUSH2 0x19A4 SWAP2 SWAP1 PUSH2 0x2340 JUMP JUMPDEST SWAP3 POP POP DUP2 SWAP1 SSTORE POP DUP1 PUSH1 0x0 DUP1 DUP5 PUSH20 0xFFFFFFFFFFFFFFFFFFFFFFFFFFFFFFFFFFFFFFFF AND PUSH20 0xFFFFFFFFFFFFFFFFFFFFFFFFFFFFFFFFFFFFFFFF AND DUP2 MSTORE PUSH1 0x20 ADD SWAP1 DUP2 MSTORE PUSH1 0x20 ADD PUSH1 0x0 KECCAK256 PUSH1 0x0 DUP3 DUP3 SLOAD PUSH2 0x19F9 SWAP2 SWAP1 PUSH2 0x25B6 JUMP JUMPDEST SWAP3 POP POP DUP2 SWAP1 SSTORE POP DUP2 PUSH20 0xFFFFFFFFFFFFFFFFFFFFFFFFFFFFFFFFFFFFFFFF AND DUP4 PUSH20 0xFFFFFFFFFFFFFFFFFFFFFFFFFFFFFFFFFFFFFFFF AND PUSH32 0xDDF252AD1BE2C89B69C2B068FC378DAA952BA7F163C4A11628F55A4DF523B3EF DUP4 PUSH1 0x40 MLOAD PUSH2 0x1A5D SWAP2 SWAP1 PUSH2 0x1D25 JUMP JUMPDEST PUSH1 0x40 MLOAD DUP1 SWAP2 SUB SWAP1 LOG3 POP POP POP JUMP JUMPDEST DUP1 PUSH1 0x1 PUSH1 0x0 DUP6 PUSH20 0xFFFFFFFFFFFFFFFFFFFFFFFFFFFFFFFFFFFFFFFF AND PUSH20 0xFFFFFFFFFFFFFFFFFFFFFFFFFFFFFFFFFFFFFFFF AND DUP2 MSTORE PUSH1 0x20 ADD SWAP1 DUP2 MSTORE PUSH1 0x20 ADD PUSH1 0x0 KECCAK256 PUSH1 0x0 DUP5 PUSH20 0xFFFFFFFFFFFFFFFFFFFFFFFFFFFFFFFFFFFFFFFF AND PUSH20 0xFFFFFFFFFFFFFFFFFFFFFFFFFFFFFFFFFFFFFFFF AND DUP2 MSTORE PUSH1 0x20 ADD SWAP1 DUP2 MSTORE PUSH1 0x20 ADD PUSH1 0x0 KECCAK256 DUP2 SWAP1 SSTORE POP DUP2 PUSH20 0xFFFFFFFFFFFFFFFFFFFFFFFFFFFFFFFFFFFFFFFF AND DUP4 PUSH20 0xFFFFFFFFFFFFFFFFFFFFFFFFFFFFFFFFFFFFFFFF AND PUSH32 0x8C5BE1E5EBEC7D5BD14F71427D1E84F3DD0314C0F7B2291E5B200AC8C7C3B925 DUP4 PUSH1 0x40 MLOAD PUSH2 0x1B48 SWAP2 SWAP1 PUSH2 0x1D25 JUMP JUMPDEST PUSH1 0x40 MLOAD DUP1 SWAP2 SUB SWAP1 LOG3 POP POP POP JUMP JUMPDEST PUSH1 0x0 DUP2 MLOAD SWAP1 POP SWAP2 SWAP1 POP JUMP JUMPDEST PUSH1 0x0 DUP3 DUP3 MSTORE PUSH1 0x20 DUP3 ADD SWAP1 POP SWAP3 SWAP2 POP POP JUMP JUMPDEST PUSH1 0x0 JUMPDEST DUP4 DUP2 LT ISZERO PUSH2 0x1B8F JUMPI DUP1 DUP3 ADD MLOAD DUP2 DUP5 ADD MSTORE PUSH1 0x20 DUP2 ADD SWAP1 POP PUSH2 0x1B74 JUMP JUMPDEST PUSH1 0x0 DUP5 DUP5 ADD MSTORE POP POP POP POP JUMP JUMPDEST PUSH1 0x0 PUSH1 0x1F NOT PUSH1 0x1F DUP4 ADD AND SWAP1 POP SWAP2 SWAP1 POP JUMP JUMPDEST PUSH1 0x0 PUSH2 0x1BB7 DUP3 PUSH2 0x1B55 JUMP JUMPDEST PUSH2 0x1BC1 DUP2 DUP6 PUSH2 0x1B60 JUMP JUMPDEST SWAP4 POP PUSH2 0x1BD1 DUP2 DUP6 PUSH1 0x20 DUP7 ADD PUSH2 0x1B71 JUMP JUMPDEST PUSH2 0x1BDA DUP2 PUSH2 0x1B9B JUMP JUMPDEST DUP5 ADD SWAP2 POP POP SWAP3 SWAP2 POP POP JUMP JUMPDEST PUSH1 0x0 PUSH1 0x20 DUP3 ADD SWAP1 POP DUP2 DUP2 SUB PUSH1 0x0 DUP4 ADD MSTORE PUSH2 0x1BFF DUP2 DUP5 PUSH2 0x1BAC JUMP JUMPDEST SWAP1 POP SWAP3 SWAP2 POP POP JUMP JUMPDEST PUSH1 0x0 DUP1 REVERT JUMPDEST PUSH1 0x0 PUSH20 0xFFFFFFFFFFFFFFFFFFFFFFFFFFFFFFFFFFFFFFFF DUP3 AND SWAP1 POP SWAP2 SWAP1 POP JUMP JUMPDEST PUSH1 0x0 PUSH2 0x1C37 DUP3 PUSH2 0x1C0C JUMP JUMPDEST SWAP1 POP SWAP2 SWAP1 POP JUMP JUMPDEST PUSH2 0x1C47 DUP2 PUSH2 0x1C2C JUMP JUMPDEST DUP2 EQ PUSH2 0x1C52 JUMPI PUSH1 0x0 DUP1 REVERT JUMPDEST POP JUMP JUMPDEST PUSH1 0x0 DUP2 CALLDATALOAD SWAP1 POP PUSH2 0x1C64 DUP2 PUSH2 0x1C3E JUMP JUMPDEST SWAP3 SWAP2 POP POP JUMP JUMPDEST PUSH1 0x0 DUP2 SWAP1 POP SWAP2 SWAP1 POP JUMP JUMPDEST PUSH2 0x1C7D DUP2 PUSH2 0x1C6A JUMP JUMPDEST DUP2 EQ PUSH2 0x1C88 JUMPI PUSH1 0x0 DUP1 REVERT JUMPDEST POP JUMP JUMPDEST PUSH1 0x0 DUP2 CALLDATALOAD SWAP1 POP PUSH2 0x1C9A DUP2 PUSH2 0x1C74 JUMP JUMPDEST SWAP3 SWAP2 POP POP JUMP JUMPDEST PUSH1 0x0 DUP1 PUSH1 0x40 DUP4 DUP6 SUB SLT ISZERO PUSH2 0x1CB7 JUMPI PUSH2 0x1CB6 PUSH2 0x1C07 JUMP JUMPDEST JUMPDEST PUSH1 0x0 PUSH2 0x1CC5 DUP6 DUP3 DUP7 ADD PUSH2 0x1C55 JUMP JUMPDEST SWAP3 POP POP PUSH1 0x20 PUSH2 0x1CD6 DUP6 DUP3 DUP7 ADD PUSH2 0x1C8B JUMP JUMPDEST SWAP2 POP POP SWAP3 POP SWAP3 SWAP1 POP JUMP JUMPDEST PUSH1 0x0 DUP2 ISZERO ISZERO SWAP1 POP SWAP2 SWAP1 POP JUMP JUMPDEST PUSH2 0x1CF5 DUP2 PUSH2 0x1CE0 JUMP JUMPDEST DUP3 MSTORE POP POP JUMP JUMPDEST PUSH1 0x0 PUSH1 0x20 DUP3 ADD SWAP1 POP PUSH2 0x1D10 PUSH1 0x0 DUP4 ADD DUP5 PUSH2 0x1CEC JUMP JUMPDEST SWAP3 SWAP2 POP POP JUMP JUMPDEST PUSH2 0x1D1F DUP2 PUSH2 0x1C6A JUMP JUMPDEST DUP3 MSTORE POP POP JUMP JUMPDEST PUSH1 0x0 PUSH1 0x20 DUP3 ADD SWAP1 POP PUSH2 0x1D3A PUSH1 0x0 DUP4 ADD DUP5 PUSH2 0x1D16 JUMP JUMPDEST SWAP3 SWAP2 POP POP JUMP JUMPDEST PUSH1 0x0 DUP1 PUSH1 0x0 PUSH1 0x60 DUP5 DUP7 SUB SLT ISZERO PUSH2 0x1D59 JUMPI PUSH2 0x1D58 PUSH2 0x1C07 JUMP JUMPDEST JUMPDEST PUSH1 0x0 PUSH2 0x1D67 DUP7 DUP3 DUP8 ADD PUSH2 0x1C55 JUMP JUMPDEST SWAP4 POP POP PUSH1 0x20 PUSH2 0x1D78 DUP7 DUP3 DUP8 ADD PUSH2 0x1C55 JUMP JUMPDEST SWAP3 POP POP PUSH1 0x40 PUSH2 0x1D89 DUP7 DUP3 DUP8 ADD PUSH2 0x1C8B JUMP JUMPDEST SWAP2 POP POP SWAP3 POP SWAP3 POP SWAP3 JUMP JUMPDEST PUSH1 0x0 PUSH1 0xFF DUP3 AND SWAP1 POP SWAP2 SWAP1 POP JUMP JUMPDEST PUSH2 0x1DA9 DUP2 PUSH2 0x1D93 JUMP JUMPDEST DUP3 MSTORE POP POP JUMP JUMPDEST PUSH1 0x0 PUSH1 0x20 DUP3 ADD SWAP1 POP PUSH2 0x1DC4 PUSH1 0x0 DUP4 ADD DUP5 PUSH2 0x1DA0 JUMP JUMPDEST SWAP3 SWAP2 POP POP JUMP JUMPDEST PUSH1 0x0 PUSH1 0x20 DUP3 DUP5 SUB SLT ISZERO PUSH2 0x1DE0 JUMPI PUSH2 0x1DDF PUSH2 0x1C07 JUMP JUMPDEST JUMPDEST PUSH1 0x0 PUSH2 0x1DEE DUP5 DUP3 DUP6 ADD PUSH2 0x1C55 JUMP JUMPDEST SWAP2 POP POP SWAP3 SWAP2 POP POP JUMP JUMPDEST PUSH1 0x0 DUP1 PUSH1 0x40 DUP4 DUP6 SUB SLT ISZERO PUSH2 0x1E0E JUMPI PUSH2 0x1E0D PUSH2 0x1C07 JUMP JUMPDEST JUMPDEST PUSH1 0x0 PUSH2 0x1E1C DUP6 DUP3 DUP7 ADD PUSH2 0x1C55 JUMP JUMPDEST SWAP3 POP POP PUSH1 0x20 PUSH2 0x1E2D DUP6 DUP3 DUP7 ADD PUSH2 0x1C55 JUMP JUMPDEST SWAP2 POP POP SWAP3 POP SWAP3 SWAP1 POP JUMP JUMPDEST PUSH32 0x4465706C6F79657220616464726573732063616E6E6F7420706572666F726D20 PUSH1 0x0 DUP3 ADD MSTORE PUSH32 0x7468697320616374696F6E000000000000000000000000000000000000000000 PUSH1 0x20 DUP3 ADD MSTORE POP JUMP JUMPDEST PUSH1 0x0 PUSH2 0x1E93 PUSH1 0x2B DUP4 PUSH2 0x1B60 JUMP JUMPDEST SWAP2 POP PUSH2 0x1E9E DUP3 PUSH2 0x1E37 JUMP JUMPDEST PUSH1 0x40 DUP3 ADD SWAP1 POP SWAP2 SWAP1 POP JUMP JUMPDEST PUSH1 0x0 PUSH1 0x20 DUP3 ADD SWAP1 POP DUP2 DUP2 SUB PUSH1 0x0 DUP4 ADD MSTORE PUSH2 0x1EC2 DUP2 PUSH2 0x1E86 JUMP JUMPDEST SWAP1 POP SWAP2 SWAP1 POP JUMP JUMPDEST PUSH32 0x4163636F756E74206973206C6F636B6564000000000000000000000000000000 PUSH1 0x0 DUP3 ADD MSTORE POP JUMP JUMPDEST PUSH1 0x0 PUSH2 0x1EFF PUSH1 0x11 DUP4 PUSH2 0x1B60 JUMP JUMPDEST SWAP2 POP PUSH2 0x1F0A DUP3 PUSH2 0x1EC9 JUMP JUMPDEST PUSH1 0x20 DUP3 ADD SWAP1 POP SWAP2 SWAP1 POP JUMP JUMPDEST PUSH1 0x0 PUSH1 0x20 DUP3 ADD SWAP1 POP DUP2 DUP2 SUB PUSH1 0x0 DUP4 ADD MSTORE PUSH2 0x1F2E DUP2 PUSH2 0x1EF2 JUMP JUMPDEST SWAP1 POP SWAP2 SWAP1 POP JUMP JUMPDEST PUSH32 0x496E76616C6964207370656E6465720000000000000000000000000000000000 PUSH1 0x0 DUP3 ADD MSTORE POP JUMP JUMPDEST PUSH1 0x0 PUSH2 0x1F6B PUSH1 0xF DUP4 PUSH2 0x1B60 JUMP JUMPDEST SWAP2 POP PUSH2 0x1F76 DUP3 PUSH2 0x1F35 JUMP JUMPDEST PUSH1 0x20 DUP3 ADD SWAP1 POP SWAP2 SWAP1 POP JUMP JUMPDEST PUSH1 0x0 PUSH1 0x20 DUP3 ADD SWAP1 POP DUP2 DUP2 SUB PUSH1 0x0 DUP4 ADD MSTORE PUSH2 0x1F9A DUP2 PUSH2 0x1F5E JUMP JUMPDEST SWAP1 POP SWAP2 SWAP1 POP JUMP JUMPDEST PUSH32 0x4E487B7100000000000000000000000000000000000000000000000000000000 PUSH1 0x0 MSTORE PUSH1 0x11 PUSH1 0x4 MSTORE PUSH1 0x24 PUSH1 0x0 REVERT JUMPDEST PUSH1 0x0 DUP2 PUSH1 0x1 SHR SWAP1 POP SWAP2 SWAP1 POP JUMP JUMPDEST PUSH1 0x0 DUP1 DUP3 SWAP2 POP DUP4 SWAP1 POP JUMPDEST PUSH1 0x1 DUP6 GT ISZERO PUSH2 0x2027 JUMPI DUP1 DUP7 DIV DUP2 GT ISZERO PUSH2 0x2003 JUMPI PUSH2 0x2002 PUSH2 0x1FA1 JUMP JUMPDEST JUMPDEST PUSH1 0x1 DUP6 AND ISZERO PUSH2 0x2012 JUMPI DUP1 DUP3 MUL SWAP2 POP JUMPDEST DUP1 DUP2 MUL SWAP1 POP PUSH2 0x2020 DUP6 PUSH2 0x1FD0 JUMP JUMPDEST SWAP5 POP PUSH2 0x1FE7 JUMP JUMPDEST SWAP5 POP SWAP5 SWAP3 POP POP POP JUMP JUMPDEST PUSH1 0x0 DUP3 PUSH2 0x2040 JUMPI PUSH1 0x1 SWAP1 POP PUSH2 0x20FC JUMP JUMPDEST DUP2 PUSH2 0x204E JUMPI PUSH1 0x0 SWAP1 POP PUSH2 0x20FC JUMP JUMPDEST DUP2 PUSH1 0x1 DUP2 EQ PUSH2 0x2064 JUMPI PUSH1 0x2 DUP2 EQ PUSH2 0x206E JUMPI PUSH2 0x209D JUMP JUMPDEST PUSH1 0x1 SWAP2 POP POP PUSH2 0x20FC JUMP JUMPDEST PUSH1 0xFF DUP5 GT ISZERO PUSH2 0x2080 JUMPI PUSH2 0x207F PUSH2 0x1FA1 JUMP JUMPDEST JUMPDEST DUP4 PUSH1 0x2 EXP SWAP2 POP DUP5 DUP3 GT ISZERO PUSH2 0x2097 JUMPI PUSH2 0x2096 PUSH2 0x1FA1 JUMP JUMPDEST JUMPDEST POP PUSH2 0x20FC JUMP JUMPDEST POP PUSH1 0x20 DUP4 LT PUSH2 0x133 DUP4 LT AND PUSH1 0x4E DUP5 LT PUSH1 0xB DUP5 LT AND OR ISZERO PUSH2 0x20D2 JUMPI DUP3 DUP3 EXP SWAP1 POP DUP4 DUP2 GT ISZERO PUSH2 0x20CD JUMPI PUSH2 0x20CC PUSH2 0x1FA1 JUMP JUMPDEST JUMPDEST PUSH2 0x20FC JUMP JUMPDEST PUSH2 0x20DF DUP5 DUP5 DUP5 PUSH1 0x1 PUSH2 0x1FDD JUMP JUMPDEST SWAP3 POP SWAP1 POP DUP2 DUP5 DIV DUP2 GT ISZERO PUSH2 0x20F6 JUMPI PUSH2 0x20F5 PUSH2 0x1FA1 JUMP JUMPDEST JUMPDEST DUP2 DUP2 MUL SWAP1 POP JUMPDEST SWAP4 SWAP3 POP POP POP JUMP JUMPDEST PUSH1 0x0 PUSH2 0x210E DUP3 PUSH2 0x1C6A JUMP JUMPDEST SWAP2 POP PUSH2 0x2119 DUP4 PUSH2 0x1C6A JUMP JUMPDEST SWAP3 POP PUSH2 0x2146 PUSH32 0xFFFFFFFFFFFFFFFFFFFFFFFFFFFFFFFFFFFFFFFFFFFFFFFFFFFFFFFFFFFFFFFF DUP5 DUP5 PUSH2 0x2030 JUMP JUMPDEST SWAP1 POP SWAP3 SWAP2 POP POP JUMP JUMPDEST PUSH1 0x0 PUSH2 0x2159 DUP3 PUSH2 0x1C6A JUMP JUMPDEST SWAP2 POP PUSH2 0x2164 DUP4 PUSH2 0x1C6A JUMP JUMPDEST SWAP3 POP DUP3 DUP3 MUL PUSH2 0x2172 DUP2 PUSH2 0x1C6A JUMP JUMPDEST SWAP2 POP DUP3 DUP3 DIV DUP5 EQ DUP4 ISZERO OR PUSH2 0x2189 JUMPI PUSH2 0x2188 PUSH2 0x1FA1 JUMP JUMPDEST JUMPDEST POP SWAP3 SWAP2 POP POP JUMP JUMPDEST PUSH32 0x496E76616C69642073656E646572000000000000000000000000000000000000 PUSH1 0x0 DUP3 ADD MSTORE POP JUMP JUMPDEST PUSH1 0x0 PUSH2 0x21C6 PUSH1 0xE DUP4 PUSH2 0x1B60 JUMP JUMPDEST SWAP2 POP PUSH2 0x21D1 DUP3 PUSH2 0x2190 JUMP JUMPDEST PUSH1 0x20 DUP3 ADD SWAP1 POP SWAP2 SWAP1 POP JUMP JUMPDEST PUSH1 0x0 PUSH1 0x20 DUP3 ADD SWAP1 POP DUP2 DUP2 SUB PUSH1 0x0 DUP4 ADD MSTORE PUSH2 0x21F5 DUP2 PUSH2 0x21B9 JUMP JUMPDEST SWAP1 POP SWAP2 SWAP1 POP JUMP JUMPDEST PUSH32 0x496E76616C696420726563697069656E74000000000000000000000000000000 PUSH1 0x0 DUP3 ADD MSTORE POP JUMP JUMPDEST PUSH1 0x0 PUSH2 0x2232 PUSH1 0x11 DUP4 PUSH2 0x1B60 JUMP JUMPDEST SWAP2 POP PUSH2 0x223D DUP3 PUSH2 0x21FC JUMP JUMPDEST PUSH1 0x20 DUP3 ADD SWAP1 POP SWAP2 SWAP1 POP JUMP JUMPDEST PUSH1 0x0 PUSH1 0x20 DUP3 ADD SWAP1 POP DUP2 DUP2 SUB PUSH1 0x0 DUP4 ADD MSTORE PUSH2 0x2261 DUP2 PUSH2 0x2225 JUMP JUMPDEST SWAP1 POP SWAP2 SWAP1 POP JUMP JUMPDEST PUSH32 0x496E73756666696369656E742062616C616E6365000000000000000000000000 PUSH1 0x0 DUP3 ADD MSTORE POP JUMP JUMPDEST PUSH1 0x0 PUSH2 0x229E PUSH1 0x14 DUP4 PUSH2 0x1B60 JUMP JUMPDEST SWAP2 POP PUSH2 0x22A9 DUP3 PUSH2 0x2268 JUMP JUMPDEST PUSH1 0x20 DUP3 ADD SWAP1 POP SWAP2 SWAP1 POP JUMP JUMPDEST PUSH1 0x0 PUSH1 0x20 DUP3 ADD SWAP1 POP DUP2 DUP2 SUB PUSH1 0x0 DUP4 ADD MSTORE PUSH2 0x22CD DUP2 PUSH2 0x2291 JUMP JUMPDEST SWAP1 POP SWAP2 SWAP1 POP JUMP JUMPDEST PUSH32 0x496E73756666696369656E7420616C6C6F77616E636500000000000000000000 PUSH1 0x0 DUP3 ADD MSTORE POP JUMP JUMPDEST PUSH1 0x0 PUSH2 0x230A PUSH1 0x16 DUP4 PUSH2 0x1B60 JUMP JUMPDEST SWAP2 POP PUSH2 0x2315 DUP3 PUSH2 0x22D4 JUMP JUMPDEST PUSH1 0x20 DUP3 ADD SWAP1 POP SWAP2 SWAP1 POP JUMP JUMPDEST PUSH1 0x0 PUSH1 0x20 DUP3 ADD SWAP1 POP DUP2 DUP2 SUB PUSH1 0x0 DUP4 ADD MSTORE PUSH2 0x2339 DUP2 PUSH2 0x22FD JUMP JUMPDEST SWAP1 POP SWAP2 SWAP1 POP JUMP JUMPDEST PUSH1 0x0 PUSH2 0x234B DUP3 PUSH2 0x1C6A JUMP JUMPDEST SWAP2 POP PUSH2 0x2356 DUP4 PUSH2 0x1C6A JUMP JUMPDEST SWAP3 POP DUP3 DUP3 SUB SWAP1 POP DUP2 DUP2 GT ISZERO PUSH2 0x236E JUMPI PUSH2 0x236D PUSH2 0x1FA1 JUMP JUMPDEST JUMPDEST SWAP3 SWAP2 POP POP JUMP JUMPDEST PUSH32 0x4F6E6C7920746865206465706C6F7965722063616E2063616C6C207468697320 PUSH1 0x0 DUP3 ADD MSTORE PUSH32 0x66756E6374696F6E000000000000000000000000000000000000000000000000 PUSH1 0x20 DUP3 ADD MSTORE POP JUMP JUMPDEST PUSH1 0x0 PUSH2 0x23D0 PUSH1 0x28 DUP4 PUSH2 0x1B60 JUMP JUMPDEST SWAP2 POP PUSH2 0x23DB DUP3 PUSH2 0x2374 JUMP JUMPDEST PUSH1 0x40 DUP3 ADD SWAP1 POP SWAP2 SWAP1 POP JUMP JUMPDEST PUSH1 0x0 PUSH1 0x20 DUP3 ADD SWAP1 POP DUP2 DUP2 SUB PUSH1 0x0 DUP4 ADD MSTORE PUSH2 0x23FF DUP2 PUSH2 0x23C3 JUMP JUMPDEST SWAP1 POP SWAP2 SWAP1 POP JUMP JUMPDEST PUSH32 0x496E76616C6964206163636F756E740000000000000000000000000000000000 PUSH1 0x0 DUP3 ADD MSTORE POP JUMP JUMPDEST PUSH1 0x0 PUSH2 0x243C PUSH1 0xF DUP4 PUSH2 0x1B60 JUMP JUMPDEST SWAP2 POP PUSH2 0x2447 DUP3 PUSH2 0x2406 JUMP JUMPDEST PUSH1 0x20 DUP3 ADD SWAP1 POP SWAP2 SWAP1 POP JUMP JUMPDEST PUSH1 0x0 PUSH1 0x20 DUP3 ADD SWAP1 POP DUP2 DUP2 SUB PUSH1 0x0 DUP4 ADD MSTORE PUSH2 0x246B DUP2 PUSH2 0x242F JUMP JUMPDEST SWAP1 POP SWAP2 SWAP1 POP JUMP JUMPDEST PUSH32 0x43616E6E6F74206C6F636B206465706C6F7965722773206163636F756E740000 PUSH1 0x0 DUP3 ADD MSTORE POP JUMP JUMPDEST PUSH1 0x0 PUSH2 0x24A8 PUSH1 0x1E DUP4 PUSH2 0x1B60 JUMP JUMPDEST SWAP2 POP PUSH2 0x24B3 DUP3 PUSH2 0x2472 JUMP JUMPDEST PUSH1 0x20 DUP3 ADD SWAP1 POP SWAP2 SWAP1 POP JUMP JUMPDEST PUSH1 0x0 PUSH1 0x20 DUP3 ADD SWAP1 POP DUP2 DUP2 SUB PUSH1 0x0 DUP4 ADD MSTORE PUSH2 0x24D7 DUP2 PUSH2 0x249B JUMP JUMPDEST SWAP1 POP SWAP2 SWAP1 POP JUMP JUMPDEST PUSH32 0x43616E6E6F7420756E6C6F636B206465706C6F7965722773206163636F756E74 PUSH1 0x0 DUP3 ADD MSTORE POP JUMP JUMPDEST PUSH1 0x0 PUSH2 0x2514 PUSH1 0x20 DUP4 PUSH2 0x1B60 JUMP JUMPDEST SWAP2 POP PUSH2 0x251F DUP3 PUSH2 0x24DE JUMP JUMPDEST PUSH1 0x20 DUP3 ADD SWAP1 POP SWAP2 SWAP1 POP JUMP JUMPDEST PUSH1 0x0 PUSH1 0x20 DUP3 ADD SWAP1 POP DUP2 DUP2 SUB PUSH1 0x0 DUP4 ADD MSTORE PUSH2 0x2543 DUP2 PUSH2 0x2507 JUMP JUMPDEST SWAP1 POP SWAP2 SWAP1 POP JUMP JUMPDEST PUSH32 0x43616E6E6F74206C6F636B206465706C6F796572277320746F6B656E73000000 PUSH1 0x0 DUP3 ADD MSTORE POP JUMP JUMPDEST PUSH1 0x0 PUSH2 0x2580 PUSH1 0x1D DUP4 PUSH2 0x1B60 JUMP JUMPDEST SWAP2 POP PUSH2 0x258B DUP3 PUSH2 0x254A JUMP JUMPDEST PUSH1 0x20 DUP3 ADD SWAP1 POP SWAP2 SWAP1 POP JUMP JUMPDEST PUSH1 0x0 PUSH1 0x20 DUP3 ADD SWAP1 POP DUP2 DUP2 SUB PUSH1 0x0 DUP4 ADD MSTORE PUSH2 0x25AF DUP2 PUSH2 0x2573 JUMP JUMPDEST SWAP1 POP SWAP2 SWAP1 POP JUMP JUMPDEST PUSH1 0x0 PUSH2 0x25C1 DUP3 PUSH2 0x1C6A JUMP JUMPDEST SWAP2 POP PUSH2 0x25CC DUP4 PUSH2 0x1C6A JUMP JUMPDEST SWAP3 POP DUP3 DUP3 ADD SWAP1 POP DUP1 DUP3 GT ISZERO PUSH2 0x25E4 JUMPI PUSH2 0x25E3 PUSH2 0x1FA1 JUMP JUMPDEST JUMPDEST SWAP3 SWAP2 POP POP JUMP JUMPDEST PUSH32 0x4C6F636B20706572696F6420686173206E6F7420656E64656420796574000000 PUSH1 0x0 DUP3 ADD MSTORE POP JUMP JUMPDEST PUSH1 0x0 PUSH2 0x2620 PUSH1 0x1D DUP4 PUSH2 0x1B60 JUMP JUMPDEST SWAP2 POP PUSH2 0x262B DUP3 PUSH2 0x25EA JUMP JUMPDEST PUSH1 0x20 DUP3 ADD SWAP1 POP SWAP2 SWAP1 POP JUMP JUMPDEST PUSH1 0x0 PUSH1 0x20 DUP3 ADD SWAP1 POP DUP2 DUP2 SUB PUSH1 0x0 DUP4 ADD MSTORE PUSH2 0x264F DUP2 PUSH2 0x2613 JUMP JUMPDEST SWAP1 POP SWAP2 SWAP1 POP JUMP JUMPDEST PUSH32 0x4E6F206C6F636B656420746F6B656E7320746F2072656C656173650000000000 PUSH1 0x0 DUP3 ADD MSTORE POP JUMP JUMPDEST PUSH1 0x0 PUSH2 0x268C PUSH1 0x1B DUP4 PUSH2 0x1B60 JUMP JUMPDEST SWAP2 POP PUSH2 0x2697 DUP3 PUSH2 0x2656 JUMP JUMPDEST PUSH1 0x20 DUP3 ADD SWAP1 POP SWAP2 SWAP1 POP JUMP JUMPDEST PUSH1 0x0 PUSH1 0x20 DUP3 ADD SWAP1 POP DUP2 DUP2 SUB PUSH1 0x0 DUP4 ADD MSTORE PUSH2 0x26BB DUP2 PUSH2 0x267F JUMP JUMPDEST SWAP1 POP SWAP2 SWAP1 POP JUMP INVALID LOG2 PUSH5 0x6970667358 0x22 SLT KECCAK256 LOG3 PUSH20 0xE6D2D65FBE595FB463FDC9D4AFBF4C6D7EF67EBE 0xAF PUSH29 0x8DE1A967983E63FE64736F6C6343000812003300000000000000000000 "
				},
				"gasEstimates": {
					"creation": {
						"codeDepositCost": "1995200",
						"executionCost": "infinite",
						"totalCost": "infinite"
					},
					"external": {
						"allowance(address,address)": "infinite",
						"approve(address,uint256)": "infinite",
						"balanceOf(address)": "5036",
						"decimals()": "380",
						"isAccountLocked(address)": "2963",
						"lockAccount(address)": "29277",
						"lockTokens(address,uint256)": "infinite",
						"name()": "infinite",
						"releaseLockedTokens()": "infinite",
						"symbol()": "infinite",
						"totalSupply()": "infinite",
						"transfer(address,uint256)": "infinite",
						"transferFrom(address,address,uint256)": "infinite",
						"transferFromDevelopmentTeam(address,uint256)": "infinite",
						"unlockAccount(address)": "29255"
					},
					"internal": {
						"_approve(address,address,uint256)": "infinite",
						"_transfer(address,address,uint256)": "infinite"
					}
				},
				"methodIdentifiers": {
					"allowance(address,address)": "dd62ed3e",
					"approve(address,uint256)": "095ea7b3",
					"balanceOf(address)": "70a08231",
					"decimals()": "313ce567",
					"isAccountLocked(address)": "74eb9b68",
					"lockAccount(address)": "47a64f44",
					"lockTokens(address,uint256)": "b1c25586",
					"name()": "06fdde03",
					"releaseLockedTokens()": "fbd42e0f",
					"symbol()": "95d89b41",
					"totalSupply()": "18160ddd",
					"transfer(address,uint256)": "a9059cbb",
					"transferFrom(address,address,uint256)": "23b872dd",
					"transferFromDevelopmentTeam(address,uint256)": "3b81c1ec",
					"unlockAccount(address)": "905295e3"
				}
			},
			"storageLayout": {
				"storage": [
					{
						"astId": 24,
						"contract": "dias-chain.sol:DiasChain",
						"label": "_balances",
						"offset": 0,
						"slot": "0",
						"type": "t_mapping(t_address,t_uint256)"
					},
					{
						"astId": 30,
						"contract": "dias-chain.sol:DiasChain",
						"label": "_allowances",
						"offset": 0,
						"slot": "1",
						"type": "t_mapping(t_address,t_mapping(t_address,t_uint256))"
					},
					{
						"astId": 32,
						"contract": "dias-chain.sol:DiasChain",
						"label": "_deployer",
						"offset": 0,
						"slot": "2",
						"type": "t_address"
					},
					{
						"astId": 34,
						"contract": "dias-chain.sol:DiasChain",
						"label": "_developmentTeamWallet",
						"offset": 0,
						"slot": "3",
						"type": "t_address"
					},
					{
						"astId": 36,
						"contract": "dias-chain.sol:DiasChain",
						"label": "_founder",
						"offset": 0,
						"slot": "4",
						"type": "t_address"
					},
					{
						"astId": 41,
						"contract": "dias-chain.sol:DiasChain",
						"label": "_founderAllocation",
						"offset": 0,
						"slot": "5",
						"type": "t_uint256"
					},
					{
						"astId": 45,
						"contract": "dias-chain.sol:DiasChain",
						"label": "_lockedAccounts",
						"offset": 0,
						"slot": "6",
						"type": "t_mapping(t_address,t_bool)"
					},
					{
						"astId": 49,
						"contract": "dias-chain.sol:DiasChain",
						"label": "_lockedBalances",
						"offset": 0,
						"slot": "7",
						"type": "t_mapping(t_address,t_uint256)"
					},
					{
						"astId": 51,
						"contract": "dias-chain.sol:DiasChain",
						"label": "_lockDuration",
						"offset": 0,
						"slot": "8",
						"type": "t_uint256"
					},
					{
						"astId": 53,
						"contract": "dias-chain.sol:DiasChain",
						"label": "_releaseTime",
						"offset": 0,
						"slot": "9",
						"type": "t_uint256"
					}
				],
				"types": {
					"t_address": {
						"encoding": "inplace",
						"label": "address",
						"numberOfBytes": "20"
					},
					"t_bool": {
						"encoding": "inplace",
						"label": "bool",
						"numberOfBytes": "1"
					},
					"t_mapping(t_address,t_bool)": {
						"encoding": "mapping",
						"key": "t_address",
						"label": "mapping(address => bool)",
						"numberOfBytes": "32",
						"value": "t_bool"
					},
					"t_mapping(t_address,t_mapping(t_address,t_uint256))": {
						"encoding": "mapping",
						"key": "t_address",
						"label": "mapping(address => mapping(address => uint256))",
						"numberOfBytes": "32",
						"value": "t_mapping(t_address,t_uint256)"
					},
					"t_mapping(t_address,t_uint256)": {
						"encoding": "mapping",
						"key": "t_address",
						"label": "mapping(address => uint256)",
						"numberOfBytes": "32",
						"value": "t_uint256"
					},
					"t_uint256": {
						"encoding": "inplace",
						"label": "uint256",
						"numberOfBytes": "32"
					}
				}
			},
			"userdoc": {
				"kind": "user",
				"methods": {},
				"version": 1
			}
		}
	}
}